{
  "_format": "hh-sol-artifact-1",
  "contractName": "MetadataValidator",
  "sourceName": "contracts/polygon/MetadataValidator.sol",
  "abi": [
    {
      "inputs": [],
      "stateMutability": "nonpayable",
      "type": "constructor"
    },
    {
      "inputs": [
        {
          "internalType": "address",
          "name": "ownerEthAddress",
          "type": "address"
        },
        {
          "internalType": "string",
          "name": "newJSONMeta",
          "type": "string"
        },
        {
          "internalType": "uint256",
          "name": "additionStartIndex",
          "type": "uint256"
        },
        {
          "internalType": "uint256",
          "name": "additionEndIndex",
          "type": "uint256"
        },
        {
          "internalType": "bytes",
          "name": "ownerSignature",
          "type": "bytes"
        },
        {
          "internalType": "address",
          "name": "sender",
          "type": "address"
        }
      ],
      "name": "validateMetadata",
      "outputs": [
        {
          "internalType": "string",
          "name": "",
          "type": "string"
        },
        {
          "internalType": "string",
          "name": "",
          "type": "string"
        }
      ],
      "stateMutability": "view",
      "type": "function"
    }
  ],
  "bytecode": "0x608060405234801561001057600080fd5b50614901806100206000396000f3fe608060405234801561001057600080fd5b506004361061002b5760003560e01c806301227b8814610030575b600080fd5b61004a60048036038101906100459190613d98565b610061565b604051610058929190614351565b60405180910390f35b60608060008060006100748a8a8a61017f565b925092509250806100ba576040517f08c379a00000000000000000000000000000000000000000000000000000000081526004016100b190614428565b60405180910390fd5b6100c583888d610239565b610104576040517f08c379a00000000000000000000000000000000000000000000000000000000081526004016100fb90614408565b60405180910390fd5b61010e838361028f565b61014d576040517f08c379a000000000000000000000000000000000000000000000000000000000815260040161014490614448565b60405180910390fd5b600061015a8b8b8b6105b9565b905060006101678c610616565b90508181965096505050505050965096945050505050565b60608060008061019c87876001896101979190614536565b6107cf565b905060006101b7886001896101b19190614536565b886107cf565b90506000806101c783600a61093d565b509150915060006040518060400160405280600181526020017f2c000000000000000000000000000000000000000000000000000000000000008152508051906020012085805190602001201480156102205750600083145b9050838282975097509750505050505093509350939050565b60008061024585611b3c565b905060006102538286611b77565b90508073ffffffffffffffffffffffffffffffffffffffff168473ffffffffffffffffffffffffffffffffffffffff1614925050509392505050565b600080600360048111156102cc577f4e487b7100000000000000000000000000000000000000000000000000000000600052602160045260246000fd5b83600181518110610306577f4e487b7100000000000000000000000000000000000000000000000000000000600052603260045260246000fd5b602002602001015160000151600481111561034a577f4e487b7100000000000000000000000000000000000000000000000000000000600052602160045260246000fd5b14801561040c57506003600481111561038c577f4e487b7100000000000000000000000000000000000000000000000000000000600052602160045260246000fd5b836002815181106103c6577f4e487b7100000000000000000000000000000000000000000000000000000000600052603260045260246000fd5b602002602001015160000151600481111561040a577f4e487b7100000000000000000000000000000000000000000000000000000000600052602160045260246000fd5b145b90508061041d5760009150506105b3565b60006104b4858560018151811061045d577f4e487b7100000000000000000000000000000000000000000000000000000000600052603260045260246000fd5b602002602001015160200151866001815181106104a3577f4e487b7100000000000000000000000000000000000000000000000000000000600052603260045260246000fd5b6020026020010151606001516107cf565b905060006040518060400160405280600781526020017f75706461746572000000000000000000000000000000000000000000000000008152508051906020012082805190602001201490508061051157600093505050506105b3565b60006105a88787600281518110610551577f4e487b7100000000000000000000000000000000000000000000000000000000600052603260045260246000fd5b60200260200101516020015188600281518110610597577f4e487b7100000000000000000000000000000000000000000000000000000000600052603260045260246000fd5b6020026020010151606001516107cf565b905060019450505050505b92915050565b606060006105c9856000866107cf565b905060006105d9868588516107cf565b9050600082826040516020016105f09291906142b9565b604051602081830303815290604052905061060a81610616565b93505050509392505050565b6060600082905060006106298251611b9e565b9050600061065b8251600261063e91906145bd565b6004855161064c9190614536565b6106569190614536565b611b9e565b90506107c56107c06040518060400160405280600281526020017f12200000000000000000000000000000000000000000000000000000000000008152506107bb60026040518060400160405280600181526020017f0a00000000000000000000000000000000000000000000000000000000000000815250866040518060400160405280600381526020017f0802120000000000000000000000000000000000000000000000000000000000815250898b6040518060400160405280600181526020017f18000000000000000000000000000000000000000000000000000000000000008152508c60405160200161075a9796959493929190614254565b604051602081830303815290604052604051610776919061423d565b602060405180830381855afa158015610793573d6000803e3d6000fd5b5050506040513d601f19601f820116820180604052508101906107b69190613e51565b611bfe565b611d4f565b611f8c565b9350505050919050565b60606000849050600084846107e49190614617565b67ffffffffffffffff811115610823577f4e487b7100000000000000000000000000000000000000000000000000000000600052604160045260246000fd5b6040519080825280601f01601f1916602001820160405280156108555781602001600182028036833780820191505090505b50905060008590505b848110156109305782818151811061089f577f4e487b7100000000000000000000000000000000000000000000000000000000600052603260045260246000fd5b602001015160f81c60f81b8287836108b79190614617565b815181106108ee577f4e487b7100000000000000000000000000000000000000000000000000000000600052603260045260246000fd5b60200101907effffffffffffffffffffffffffffffffffffffffffffffffffffffffffffff1916908160001a90535080806109289061470a565b91505061085e565b5080925050509392505050565b600060606000808590506000610951613bf3565b61095a876122de565b8096508192505050600080826020015190506000610976613c14565b5b865185600001511015611b1f576000878660000151815181106109c3577f4e487b7100000000000000000000000000000000000000000000000000000000600052603260045260246000fd5b602001015160f81c60f81b9050607b60f81b817effffffffffffffffffffffffffffffffffffffffffffffffffffffffffffff19161480610a295750605b60f81b817effffffffffffffffffffffffffffffffffffffffffffffffffffffffffffff1916145b15610be8578380610a399061470a565b945050610a46868b6123b4565b809350819850505086610a6b5760038a60009a509a509a505050505050505050611b35565b7fffffffffffffffffffffffffffffffffffffffffffffffffffffffffffffffff866040015114610af75789866040015181518110610ad3577f4e487b7100000000000000000000000000000000000000000000000000000000600052603260045260246000fd5b602002602001015160a0018051809190610aec90614753565b60ff1660ff16815250505b607b60f81b817effffffffffffffffffffffffffffffffffffffffffffffffffffffffffffff191614610b2b576002610b2e565b60015b82600001906004811115610b6b577f4e487b7100000000000000000000000000000000000000000000000000000000600052602160045260246000fd5b90816004811115610ba5577f4e487b7100000000000000000000000000000000000000000000000000000000600052602160045260246000fd5b815250508560000151826020018181525050600182604001901515908115158152505060018660200151610bd99190614617565b86604001818152505050611b04565b607d60f81b817effffffffffffffffffffffffffffffffffffffffffffffffffffffffffffff19161480610c415750605d60f81b817effffffffffffffffffffffffffffffffffffffffffffffffffffffffffffff1916145b15610f9e576000607d60f81b827effffffffffffffffffffffffffffffffffffffffffffffffffffffffffffff191614610c7c576002610c7f565b60015b9050600060018860200151610c949190614617565b94505b60008510610e80578b8581518110610cd8577f4e487b7100000000000000000000000000000000000000000000000000000000600052603260045260246000fd5b6020026020010151935083604001518015610cf557508360800151155b15610e6d57816004811115610d33577f4e487b7100000000000000000000000000000000000000000000000000000000600052602160045260246000fd5b84600001516004811115610d70577f4e487b7100000000000000000000000000000000000000000000000000000000600052602160045260246000fd5b14610d8f5760018c60009c509c509c5050505050505050505050611b35565b7fffffffffffffffffffffffffffffffffffffffffffffffffffffffffffffffff88604001818152505060018860000151610dca9190614536565b8c8681518110610e03577f4e487b7100000000000000000000000000000000000000000000000000000000600052603260045260246000fd5b6020026020010151606001818152505060018c8681518110610e4e577f4e487b7100000000000000000000000000000000000000000000000000000000600052603260045260246000fd5b6020026020010151608001901515908115158152505060019050610e80565b8480610e78906146e0565b955050610c97565b80610e9f5760018c60009c509c509c5050505050505050505050611b35565b5b6000851115610f26578b8581518110610ee2577f4e487b7100000000000000000000000000000000000000000000000000000000600052603260045260246000fd5b6020026020010151935083604001518015610eff57508360800151155b15610f135784886040018181525050610f26565b8480610f1e906146e0565b955050610ea0565b6000851415610f96578b8581518110610f68577f4e487b7100000000000000000000000000000000000000000000000000000000600052603260045260246000fd5b6020026020010151935083604001518015610f8557508360800151155b15610f9557848860400181815250505b5b505050611b04565b7f2200000000000000000000000000000000000000000000000000000000000000817effffffffffffffffffffffffffffffffffffffffffffffffffffffffffffff191614156110b457610ff3868b8a612508565b94506000851461101457848a60009a509a509a505050505050505050611b35565b838061101f9061470a565b9450507fffffffffffffffffffffffffffffffffffffffffffffffffffffffffffffffff8660400151146110ae578986604001518151811061108a577f4e487b7100000000000000000000000000000000000000000000000000000000600052603260045260246000fd5b602002602001015160a00180518091906110a390614753565b60ff1660ff16815250505b50611b04565b7f2000000000000000000000000000000000000000000000000000000000000000817effffffffffffffffffffffffffffffffffffffffffffffffffffffffffffff191614806111295750601160f81b817effffffffffffffffffffffffffffffffffffffffffffffffffffffffffffff1916145b806111595750601260f81b817effffffffffffffffffffffffffffffffffffffffffffffffffffffffffffff1916145b806111895750601460f81b817effffffffffffffffffffffffffffffffffffffffffffffffffffffffffffff1916145b156111945750611b04565b7f3a00000000000000000000000000000000000000000000000000000000000000817effffffffffffffffffffffffffffffffffffffffffffffffffffffffffffff191614156111fe57600186602001516111ef9190614617565b86604001818152505050611b04565b7f2c00000000000000000000000000000000000000000000000000000000000000817effffffffffffffffffffffffffffffffffffffffffffffffffffffffffffff19161415611659577fffffffffffffffffffffffffffffffffffffffffffffffffffffffffffffffff8660400151141580156113355750600260048111156112b1577f4e487b7100000000000000000000000000000000000000000000000000000000600052602160045260246000fd5b8a8760400151815181106112ee577f4e487b7100000000000000000000000000000000000000000000000000000000600052603260045260246000fd5b6020026020010151600001516004811115611332577f4e487b7100000000000000000000000000000000000000000000000000000000600052602160045260246000fd5b14155b80156113fa575060016004811115611376577f4e487b7100000000000000000000000000000000000000000000000000000000600052602160045260246000fd5b8a8760400151815181106113b3577f4e487b7100000000000000000000000000000000000000000000000000000000600052603260045260246000fd5b60200260200101516000015160048111156113f7577f4e487b7100000000000000000000000000000000000000000000000000000000600052602160045260246000fd5b14155b1561165357600186602001516114109190614617565b92505b600083106116525760026004811115611455577f4e487b7100000000000000000000000000000000000000000000000000000000600052602160045260246000fd5b8a848151811061148e577f4e487b7100000000000000000000000000000000000000000000000000000000600052603260045260246000fd5b60200260200101516000015160048111156114d2577f4e487b7100000000000000000000000000000000000000000000000000000000600052602160045260246000fd5b1480611592575060016004811115611513577f4e487b7100000000000000000000000000000000000000000000000000000000600052602160045260246000fd5b8a848151811061154c577f4e487b7100000000000000000000000000000000000000000000000000000000600052603260045260246000fd5b6020026020010151600001516004811115611590577f4e487b7100000000000000000000000000000000000000000000000000000000600052602160045260246000fd5b145b1561163f578983815181106115d0577f4e487b7100000000000000000000000000000000000000000000000000000000600052603260045260246000fd5b602002602001015160400151801561162a575089838151811061161c577f4e487b7100000000000000000000000000000000000000000000000000000000600052603260045260246000fd5b602002602001015160800151155b1561163e5782866040018181525050611652565b5b828061164a906146e0565b935050611413565b5b50611b04565b7f3000000000000000000000000000000000000000000000000000000000000000817effffffffffffffffffffffffffffffffffffffffffffffffffffffffffffff1916101580156116ed57507f3900000000000000000000000000000000000000000000000000000000000000817effffffffffffffffffffffffffffffffffffffffffffffffffffffffffffff191611155b8061173957507f2d00000000000000000000000000000000000000000000000000000000000000817effffffffffffffffffffffffffffffffffffffffffffffffffffffffffffff1916145b8061178557507f6600000000000000000000000000000000000000000000000000000000000000817effffffffffffffffffffffffffffffffffffffffffffffffffffffffffffff1916145b806117d157507f7400000000000000000000000000000000000000000000000000000000000000817effffffffffffffffffffffffffffffffffffffffffffffffffffffffffffff1916145b8061181d57507f6e00000000000000000000000000000000000000000000000000000000000000817effffffffffffffffffffffffffffffffffffffffffffffffffffffffffffff1916145b15611a89577fffffffffffffffffffffffffffffffffffffffffffffffffffffffffffffffff8660400151146119bd578986604001518151811061188a577f4e487b7100000000000000000000000000000000000000000000000000000000600052603260045260246000fd5b60200260200101519150600160048111156118ce577f4e487b7100000000000000000000000000000000000000000000000000000000600052602160045260246000fd5b8260000151600481111561190b577f4e487b7100000000000000000000000000000000000000000000000000000000600052602160045260246000fd5b148061199f57506003600481111561194c577f4e487b7100000000000000000000000000000000000000000000000000000000600052602160045260246000fd5b82600001516004811115611989577f4e487b7100000000000000000000000000000000000000000000000000000000600052602160045260246000fd5b14801561199e575060008260a0015160ff1614155b5b156119bc5760018a60009a509a509a505050505050505050611b35565b5b6119c8868b8a612b58565b9450600085146119e957848a60009a509a509a505050505050505050611b35565b83806119f49061470a565b9450507fffffffffffffffffffffffffffffffffffffffffffffffffffffffffffffffff866040015114611a835789866040015181518110611a5f577f4e487b7100000000000000000000000000000000000000000000000000000000600052603260045260246000fd5b602002602001015160a0018051809190611a7890614753565b60ff1660ff16815250505b50611b04565b602060f81b817effffffffffffffffffffffffffffffffffffffffffffffffffffffffffffff191610158015611ae55750607e60f81b817effffffffffffffffffffffffffffffffffffffffffffffffffffffffffffff191611155b15611b025760018a60009a509a509a505050505050505050611b35565b505b846000018051809190611b169061470a565b81525050610977565b6000898660200151995099509950505050505050505b9250925092565b6000611b488251612e85565b82604051602001611b5a9291906142dd565b604051602081830303815290604052805190602001209050919050565b6000806000611b868585613032565b91509150611b93816130b5565b819250505092915050565b60606080821015611bb957611bb282613406565b9050611bf9565b611bf6611bdc60808085611bcd919061477d565b611bd79190614536565b613406565b611bf1608085611bec919061458c565b613406565b611d4f565b90505b919050565b60606000602067ffffffffffffffff811115611c43577f4e487b7100000000000000000000000000000000000000000000000000000000600052604160045260246000fd5b6040519080825280601f01601f191660200182016040528015611c755781602001600182028036833780820191505090505b50905060005b60208160ff161015611d4557838160ff1660208110611cc3577f4e487b7100000000000000000000000000000000000000000000000000000000600052603260045260246000fd5b1a60f81b828260ff1681518110611d03577f4e487b7100000000000000000000000000000000000000000000000000000000600052603260045260246000fd5b60200101907effffffffffffffffffffffffffffffffffffffffffffffffffffffffffffff1916908160001a9053508080611d3d90614753565b915050611c7b565b5080915050919050565b6060600082518451611d619190614536565b67ffffffffffffffff811115611da0577f4e487b7100000000000000000000000000000000000000000000000000000000600052604160045260246000fd5b6040519080825280601f01601f191660200182016040528015611dd25781602001600182028036833780820191505090505b50905060005b8451811015611ea057848181518110611e1a577f4e487b7100000000000000000000000000000000000000000000000000000000600052603260045260246000fd5b602001015160f81c60f81b828281518110611e5e577f4e487b7100000000000000000000000000000000000000000000000000000000600052603260045260246000fd5b60200101907effffffffffffffffffffffffffffffffffffffffffffffffffffffffffffff1916908160001a9053508080611e989061470a565b915050611dd8565b5b83518551611eaf9190614536565b811015611f815783855182611ec49190614617565b81518110611efb577f4e487b7100000000000000000000000000000000000000000000000000000000600052603260045260246000fd5b602001015160f81c60f81b828281518110611f3f577f4e487b7100000000000000000000000000000000000000000000000000000000600052603260045260246000fd5b60200101907effffffffffffffffffffffffffffffffffffffffffffffffffffffffffffff1916908160001a9053508080611f799061470a565b915050611ea1565b819250505092915050565b606060008251141561201357600067ffffffffffffffff811115611fd9577f4e487b7100000000000000000000000000000000000000000000000000000000600052604160045260246000fd5b6040519080825280601f01601f19166020018201604052801561200b5781602001600182028036833780820191505090505b5090506122d9565b6000604067ffffffffffffffff811115612056577f4e487b7100000000000000000000000000000000000000000000000000000000600052604160045260246000fd5b6040519080825280602002602001820160405280156120845781602001602082028036833780820191505090505b5090506000816000815181106120c3577f4e487b7100000000000000000000000000000000000000000000000000000000600052603260045260246000fd5b602002602001019060ff16908160ff168152505060006001905060005b84518110156122b9576000858281518110612124577f4e487b7100000000000000000000000000000000000000000000000000000000600052603260045260246000fd5b602001015160f81c60f81b60f81c60ff16905060005b8360ff1681101561221d57610100858281518110612181577f4e487b7100000000000000000000000000000000000000000000000000000000600052603260045260246000fd5b602002602001015160ff1661219691906145bd565b826121a19190614536565b9150603a826121b0919061477d565b8582815181106121e9577f4e487b7100000000000000000000000000000000000000000000000000000000600052603260045260246000fd5b602002602001019060ff16908160ff1681525050603a8261220a919061458c565b9150806122169061470a565b905061213a565b505b60008111156122a757603a81612235919061477d565b848460ff1681518110612271577f4e487b7100000000000000000000000000000000000000000000000000000000600052603260045260246000fd5b602002602001019060ff16908160ff1681525050828061229090614753565b935050603a816122a0919061458c565b905061221f565b50806122b29061470a565b90506120e0565b506122d46122cf6122ca84846135ac565b6136de565b613823565b925050505b919050565b6122e6613bf3565b60606000604051806060016040528060008152602001600081526020017fffffffffffffffffffffffffffffffffffffffffffffffffffffffffffffffff815250905060008467ffffffffffffffff81111561236b577f4e487b7100000000000000000000000000000000000000000000000000000000600052604160045260246000fd5b6040519080825280602002602001820160405280156123a457816020015b612391613c14565b8152602001906001900390816123895790505b5090508181935093505050915091565b60006123be613c14565b825184602001511061242357600083600185516123db9190614617565b81518110612412577f4e487b7100000000000000000000000000000000000000000000000000000000600052603260045260246000fd5b602002602001015191509150612501565b60006040518060c001604052806000600481111561246a577f4e487b7100000000000000000000000000000000000000000000000000000000600052602160045260246000fd5b81526020016000815260200160001515815260200160008152602001600015158152602001600060ff16815250905080848660200151815181106124d7577f4e487b7100000000000000000000000000000000000000000000000000000000600052603260045260246000fd5b60200260200101819052508460200180518091906124f49061470a565b8152505060018192509250505b9250929050565b60008084600001519050600061251c613c14565b86600001805180919061252e9061470a565b815250505b845187600001511015612b3f5760008588600001518151811061257f577f4e487b7100000000000000000000000000000000000000000000000000000000600052603260045260246000fd5b602001015160f81c60f81b90507f2200000000000000000000000000000000000000000000000000000000000000817effffffffffffffffffffffffffffffffffffffffffffffffffffffffffffff1916141561262e576125e088886123b4565b80935081945050508261260457838860000181815250506003945050505050612b51565b6126218260036001876126179190614536565b8b600001516139cd565b6000945050505050612b51565b605c8160f81c60ff1614801561265457508551600189600001516126529190614536565b105b15612b225787600001805180919061266b9061470a565b815250507f2200000000000000000000000000000000000000000000000000000000000000868960000151815181106126cd577f4e487b7100000000000000000000000000000000000000000000000000000000600052603260045260246000fd5b602001015160f81c60f81b7effffffffffffffffffffffffffffffffffffffffffffffffffffffffffffff1916148061278e57507f2f000000000000000000000000000000000000000000000000000000000000008689600001518151811061275f577f4e487b7100000000000000000000000000000000000000000000000000000000600052603260045260246000fd5b602001015160f81c60f81b7effffffffffffffffffffffffffffffffffffffffffffffffffffffffffffff1916145b8061282157507f5c00000000000000000000000000000000000000000000000000000000000000868960000151815181106127f2577f4e487b7100000000000000000000000000000000000000000000000000000000600052603260045260246000fd5b602001015160f81c60f81b7effffffffffffffffffffffffffffffffffffffffffffffffffffffffffffff1916145b806128b457507f660000000000000000000000000000000000000000000000000000000000000086896000015181518110612885577f4e487b7100000000000000000000000000000000000000000000000000000000600052603260045260246000fd5b602001015160f81c60f81b7effffffffffffffffffffffffffffffffffffffffffffffffffffffffffffff1916145b8061294757507f720000000000000000000000000000000000000000000000000000000000000086896000015181518110612918577f4e487b7100000000000000000000000000000000000000000000000000000000600052603260045260246000fd5b602001015160f81c60f81b7effffffffffffffffffffffffffffffffffffffffffffffffffffffffffffff1916145b806129da57507f6e00000000000000000000000000000000000000000000000000000000000000868960000151815181106129ab577f4e487b7100000000000000000000000000000000000000000000000000000000600052603260045260246000fd5b602001015160f81c60f81b7effffffffffffffffffffffffffffffffffffffffffffffffffffffffffffff1916145b80612a6d57507f620000000000000000000000000000000000000000000000000000000000000086896000015181518110612a3e577f4e487b7100000000000000000000000000000000000000000000000000000000600052603260045260246000fd5b602001015160f81c60f81b7effffffffffffffffffffffffffffffffffffffffffffffffffffffffffffff1916145b80612b0057507f740000000000000000000000000000000000000000000000000000000000000086896000015181518110612ad1577f4e487b7100000000000000000000000000000000000000000000000000000000600052603260045260246000fd5b602001015160f81c60f81b7effffffffffffffffffffffffffffffffffffffffffffffffffffffffffffff1916145b15612b0b5750612b24565b838860000181815250506001945050505050612b51565b505b866000018051809190612b369061470a565b81525050612533565b82876000018181525050600293505050505b9392505050565b60008060009050600085600001519050600080612b73613c14565b5b865189600001511015612e015786896000015181518110612bbe577f4e487b7100000000000000000000000000000000000000000000000000000000600052603260045260246000fd5b602001015160f81c60f81b92507f2000000000000000000000000000000000000000000000000000000000000000837effffffffffffffffffffffffffffffffffffffffffffffffffffffffffffff19161480612c5c57507f0900000000000000000000000000000000000000000000000000000000000000837effffffffffffffffffffffffffffffffffffffffffffffffffffffffffffff1916145b80612ca857507f0a00000000000000000000000000000000000000000000000000000000000000837effffffffffffffffffffffffffffffffffffffffffffffffffffffffffffff1916145b80612cf457507f0d00000000000000000000000000000000000000000000000000000000000000837effffffffffffffffffffffffffffffffffffffffffffffffffffffffffffff1916145b80612d4057507f2c00000000000000000000000000000000000000000000000000000000000000837effffffffffffffffffffffffffffffffffffffffffffffffffffffffffffff1916145b80612d705750607d60f81b837effffffffffffffffffffffffffffffffffffffffffffffffffffffffffffff1916145b80612da05750605d60f81b837effffffffffffffffffffffffffffffffffffffffffffffffffffffffffffff1916145b15612dae5760019450612e01565b60208360f81c60ff161080612dc95750607f8360f81c60ff16115b15612de65783896000018181525050600195505050505050612e7e565b886000018051809190612df89061470a565b81525050612b74565b84612e1e5783896000018181525050600295505050505050612e7e565b612e2889896123b4565b809250819350505081612e4d5783896000018181525050600395505050505050612e7e565b612e5e816004868c600001516139cd565b886000018051809190612e70906146e0565b815250506000955050505050505b9392505050565b60606000821415612ecd576040518060400160405280600181526020017f3000000000000000000000000000000000000000000000000000000000000000815250905061302d565b600082905060005b60008214612eff578080612ee89061470a565b915050600a82612ef8919061458c565b9150612ed5565b60008167ffffffffffffffff811115612f41577f4e487b7100000000000000000000000000000000000000000000000000000000600052604160045260246000fd5b6040519080825280601f01601f191660200182016040528015612f735781602001600182028036833780820191505090505b5090505b6000851461302657600182612f8c9190614617565b9150600a85612f9b919061477d565b6030612fa79190614536565b60f81b818381518110612fe3577f4e487b7100000000000000000000000000000000000000000000000000000000600052603260045260246000fd5b60200101907effffffffffffffffffffffffffffffffffffffffffffffffffffffffffffff1916908160001a905350600a8561301f919061458c565b9450612f77565b8093505050505b919050565b6000806041835114156130745760008060006020860151925060408601519150606086015160001a905061306887828585613a98565b945094505050506130ae565b6040835114156130a557600080602085015191506040850151905061309a868383613ba5565b9350935050506130ae565b60006002915091505b9250929050565b600060048111156130ef577f4e487b7100000000000000000000000000000000000000000000000000000000600052602160045260246000fd5b816004811115613128577f4e487b7100000000000000000000000000000000000000000000000000000000600052602160045260246000fd5b141561313357613403565b6001600481111561316d577f4e487b7100000000000000000000000000000000000000000000000000000000600052602160045260246000fd5b8160048111156131a6577f4e487b7100000000000000000000000000000000000000000000000000000000600052602160045260246000fd5b14156131e7576040517f08c379a00000000000000000000000000000000000000000000000000000000081526004016131de90614388565b60405180910390fd5b60026004811115613221577f4e487b7100000000000000000000000000000000000000000000000000000000600052602160045260246000fd5b81600481111561325a577f4e487b7100000000000000000000000000000000000000000000000000000000600052602160045260246000fd5b141561329b576040517f08c379a0000000000000000000000000000000000000000000000000000000008152600401613292906143a8565b60405180910390fd5b600360048111156132d5577f4e487b7100000000000000000000000000000000000000000000000000000000600052602160045260246000fd5b81600481111561330e577f4e487b7100000000000000000000000000000000000000000000000000000000600052602160045260246000fd5b141561334f576040517f08c379a0000000000000000000000000000000000000000000000000000000008152600401613346906143c8565b60405180910390fd5b600480811115613388577f4e487b7100000000000000000000000000000000000000000000000000000000600052602160045260246000fd5b8160048111156133c1577f4e487b7100000000000000000000000000000000000000000000000000000000600052602160045260246000fd5b1415613402576040517f08c379a00000000000000000000000000000000000000000000000000000000081526004016133f9906143e8565b60405180910390fd5b5b50565b6060600082141561348c57600067ffffffffffffffff811115613452577f4e487b7100000000000000000000000000000000000000000000000000000000600052604160045260246000fd5b6040519080825280601f01601f1916602001820160405280156134845781602001600182028036833780820191505090505b5090506135a7565b60006101008361349c919061477d565b60f81b90506000600167ffffffffffffffff8111156134e4577f4e487b7100000000000000000000000000000000000000000000000000000000600052604160045260246000fd5b6040519080825280601f01601f1916602001820160405280156135165781602001600182028036833780820191505090505b5090508181600081518110613554577f4e487b7100000000000000000000000000000000000000000000000000000000600052603260045260246000fd5b60200101907effffffffffffffffffffffffffffffffffffffffffffffffffffffffffffff1916908160001a9053506135a261359c61010086613597919061458c565b613406565b82611d4f565b925050505b919050565b606060008260ff1667ffffffffffffffff8111156135f3577f4e487b7100000000000000000000000000000000000000000000000000000000600052604160045260246000fd5b6040519080825280602002602001820160405280156136215781602001602082028036833780820191505090505b50905060005b8360ff168110156136d35784818151811061366b577f4e487b7100000000000000000000000000000000000000000000000000000000600052603260045260246000fd5b60200260200101518282815181106136ac577f4e487b7100000000000000000000000000000000000000000000000000000000600052603260045260246000fd5b602002602001019060ff16908160ff168152505080806136cb9061470a565b915050613627565b508091505092915050565b60606000825167ffffffffffffffff811115613723577f4e487b7100000000000000000000000000000000000000000000000000000000600052604160045260246000fd5b6040519080825280602002602001820160405280156137515781602001602082028036833780820191505090505b50905060005b8351811015613819578381600186516137709190614617565b61377a9190614617565b815181106137b1577f4e487b7100000000000000000000000000000000000000000000000000000000600052603260045260246000fd5b60200260200101518282815181106137f2577f4e487b7100000000000000000000000000000000000000000000000000000000600052603260045260246000fd5b602002602001019060ff16908160ff168152505080806138119061470a565b915050613757565b5080915050919050565b60606000825167ffffffffffffffff811115613868577f4e487b7100000000000000000000000000000000000000000000000000000000600052604160045260246000fd5b6040519080825280601f01601f19166020018201604052801561389a5781602001600182028036833780820191505090505b50905060005b83518110156139c3576040518060600160405280603a8152602001614892603a91398482815181106138fb577f4e487b7100000000000000000000000000000000000000000000000000000000600052603260045260246000fd5b602002602001015160ff168151811061393d577f4e487b7100000000000000000000000000000000000000000000000000000000600052603260045260246000fd5b602001015160f81c60f81b828281518110613981577f4e487b7100000000000000000000000000000000000000000000000000000000600052603260045260246000fd5b60200101907effffffffffffffffffffffffffffffffffffffffffffffffffffffffffffff1916908160001a90535080806139bb9061470a565b9150506138a0565b5080915050919050565b8284600001906004811115613a0b577f4e487b7100000000000000000000000000000000000000000000000000000000600052602160045260246000fd5b90816004811115613a45577f4e487b7100000000000000000000000000000000000000000000000000000000600052602160045260246000fd5b8152505081846020018181525050600184604001901515908115158152505080846060018181525050600184608001901515908115158152505060008460a0019060ff16908160ff168152505050505050565b6000807f7fffffffffffffffffffffffffffffff5d576e7357a4501ddfe92f46681b20a08360001c1115613ad3576000600391509150613b9c565b601b8560ff1614158015613aeb5750601c8560ff1614155b15613afd576000600491509150613b9c565b600060018787878760405160008152602001604052604051613b22949392919061430c565b6020604051602081039080840390855afa158015613b44573d6000803e3d6000fd5b505050602060405103519050600073ffffffffffffffffffffffffffffffffffffffff168173ffffffffffffffffffffffffffffffffffffffff161415613b9357600060019250925050613b9c565b80600092509250505b94509492505050565b6000806000807f7fffffffffffffffffffffffffffffffffffffffffffffffffffffffffffffff85169150601b8560ff1c019050613be587828885613a98565b935093505050935093915050565b60405180606001604052806000815260200160008152602001600081525090565b6040518060c0016040528060006004811115613c59577f4e487b7100000000000000000000000000000000000000000000000000000000600052602160045260246000fd5b81526020016000815260200160001515815260200160008152602001600015158152602001600060ff1681525090565b6000613c9c613c9784614499565b614468565b905082815260208101848484011115613cb457600080fd5b613cbf84828561469e565b509392505050565b6000613cda613cd5846144c9565b614468565b905082815260208101848484011115613cf257600080fd5b613cfd84828561469e565b509392505050565b600081359050613d148161484c565b92915050565b600081519050613d2981614863565b92915050565b600082601f830112613d4057600080fd5b8135613d50848260208601613c89565b91505092915050565b600082601f830112613d6a57600080fd5b8135613d7a848260208601613cc7565b91505092915050565b600081359050613d928161487a565b92915050565b60008060008060008060c08789031215613db157600080fd5b6000613dbf89828a01613d05565b965050602087013567ffffffffffffffff811115613ddc57600080fd5b613de889828a01613d59565b9550506040613df989828a01613d83565b9450506060613e0a89828a01613d83565b935050608087013567ffffffffffffffff811115613e2757600080fd5b613e3389828a01613d2f565b92505060a0613e4489828a01613d05565b9150509295509295509295565b600060208284031215613e6357600080fd5b6000613e7184828501613d1a565b91505092915050565b613e838161465d565b82525050565b6000613e94826144f9565b613e9e818561450f565b9350613eae8185602086016146ad565b80840191505092915050565b6000613ec582614504565b613ecf818561451a565b9350613edf8185602086016146ad565b613ee88161483b565b840191505092915050565b6000613efe82614504565b613f08818561452b565b9350613f188185602086016146ad565b80840191505092915050565b6000613f3160188361451a565b91507f45434453413a20696e76616c6964207369676e617475726500000000000000006000830152602082019050919050565b6000613f71601f8361451a565b91507f45434453413a20696e76616c6964207369676e6174757265206c656e677468006000830152602082019050919050565b6000613fb160228361451a565b91507f45434453413a20696e76616c6964207369676e6174757265202773272076616c60008301527f75650000000000000000000000000000000000000000000000000000000000006020830152604082019050919050565b600061401760228361451a565b91507f45434453413a20696e76616c6964207369676e6174757265202776272076616c60008301527f75650000000000000000000000000000000000000000000000000000000000006020830152604082019050919050565b600061407d60468361451a565b91507f41646469746976654e46543a207369676e617475726520666f7220616464656460008301527f20636f6e74656e7420646f6573206e6f74206d617463682070726f766964656460208301527f206f776e657200000000000000000000000000000000000000000000000000006040830152606082019050919050565b6000614109601a8361452b565b91507f19457468657265756d205369676e6564204d6573736167653a0a0000000000006000830152601a82019050919050565b600061414960308361451a565b91507f41646469746976654e46543a20616464656420636f6e74656e7420636f6e746160008301527f696e7320696e76616c6964204a534f4e000000000000000000000000000000006020830152604082019050919050565b60006141af604f8361451a565b91507f41646469746976654e46543a2075706461746572206164647265737320696e2060008301527f74686520616464656420636f6e74656e74206d75737420657175616c2074686560208301527f206d6573736167652073656e64657200000000000000000000000000000000006040830152606082019050919050565b61423781614691565b82525050565b60006142498284613e89565b915081905092915050565b6000614260828a613e89565b915061426c8289613e89565b91506142788288613e89565b91506142848287613e89565b91506142908286613e89565b915061429c8285613e89565b91506142a88284613e89565b915081905098975050505050505050565b60006142c58285613ef3565b91506142d18284613ef3565b91508190509392505050565b60006142e8826140fc565b91506142f48285613ef3565b91506143008284613e89565b91508190509392505050565b60006080820190506143216000830187613e7a565b61432e602083018661422e565b61433b6040830185613e7a565b6143486060830184613e7a565b95945050505050565b6000604082019050818103600083015261436b8185613eba565b9050818103602083015261437f8184613eba565b90509392505050565b600060208201905081810360008301526143a181613f24565b9050919050565b600060208201905081810360008301526143c181613f64565b9050919050565b600060208201905081810360008301526143e181613fa4565b9050919050565b600060208201905081810360008301526144018161400a565b9050919050565b6000602082019050818103600083015261442181614070565b9050919050565b600060208201905081810360008301526144418161413c565b9050919050565b60006020820190508181036000830152614461816141a2565b9050919050565b6000604051905081810181811067ffffffffffffffff8211171561448f5761448e61480c565b5b8060405250919050565b600067ffffffffffffffff8211156144b4576144b361480c565b5b601f19601f8301169050602081019050919050565b600067ffffffffffffffff8211156144e4576144e361480c565b5b601f19601f8301169050602081019050919050565b600081519050919050565b600081519050919050565b600081905092915050565b600082825260208201905092915050565b600081905092915050565b600061454182614687565b915061454c83614687565b9250827fffffffffffffffffffffffffffffffffffffffffffffffffffffffffffffffff03821115614581576145806147ae565b5b828201905092915050565b600061459782614687565b91506145a283614687565b9250826145b2576145b16147dd565b5b828204905092915050565b60006145c882614687565b91506145d383614687565b9250817fffffffffffffffffffffffffffffffffffffffffffffffffffffffffffffffff048311821515161561460c5761460b6147ae565b5b828202905092915050565b600061462282614687565b915061462d83614687565b9250828210156146405761463f6147ae565b5b828203905092915050565b600061465682614667565b9050919050565b6000819050919050565b600073ffffffffffffffffffffffffffffffffffffffff82169050919050565b6000819050919050565b600060ff82169050919050565b82818337600083830152505050565b60005b838110156146cb5780820151818401526020810190506146b0565b838111156146da576000848401525b50505050565b60006146eb82614687565b915060008214156146ff576146fe6147ae565b5b600182039050919050565b600061471582614687565b91507fffffffffffffffffffffffffffffffffffffffffffffffffffffffffffffffff821415614748576147476147ae565b5b600182019050919050565b600061475e82614691565b915060ff821415614772576147716147ae565b5b600182019050919050565b600061478882614687565b915061479383614687565b9250826147a3576147a26147dd565b5b828206905092915050565b7f4e487b7100000000000000000000000000000000000000000000000000000000600052601160045260246000fd5b7f4e487b7100000000000000000000000000000000000000000000000000000000600052601260045260246000fd5b7f4e487b7100000000000000000000000000000000000000000000000000000000600052604160045260246000fd5b6000601f19601f8301169050919050565b6148558161464b565b811461486057600080fd5b50565b61486c8161465d565b811461487757600080fd5b50565b61488381614687565b811461488e57600080fd5b5056fe31323334353637383941424344454647484a4b4c4d4e505152535455565758595a6162636465666768696a6b6d6e6f707172737475767778797aa26469706673582212208ae9e949f196fd2acd1204e799fc0dd0250e050ffbd54fffc2de42dfea965b6464736f6c63430008000033",
  "linkReferences": {},
  "deployedLinkReferences": {}
}