{
  "_format": "hh-sol-artifact-1",
  "contractName": "MetaDuelGame",
  "sourceName": "contracts/MetaDuelsGame.sol",
  "abi": [
    {
      "inputs": [],
      "stateMutability": "nonpayable",
      "type": "constructor"
    },
    {
      "inputs": [
        {
          "internalType": "uint256",
          "name": "gameId",
          "type": "uint256"
        },
        {
          "internalType": "enum MetaDuelGame.MoveType",
          "name": "moveType",
          "type": "uint8"
        },
        {
          "internalType": "string",
          "name": "nonce",
          "type": "string"
        },
        {
          "internalType": "bytes",
          "name": "prevSig",
          "type": "bytes"
        }
      ],
      "name": "_createSignatureInputHash",
      "outputs": [
        {
          "internalType": "bytes",
          "name": "",
          "type": "bytes"
        }
      ],
      "stateMutability": "pure",
      "type": "function"
    },
    {
      "inputs": [],
      "name": "_isCritical",
      "outputs": [],
      "stateMutability": "pure",
      "type": "function"
    },
    {
      "inputs": [
        {
          "internalType": "bytes",
          "name": "data",
          "type": "bytes"
        },
        {
          "internalType": "bytes",
          "name": "signature",
          "type": "bytes"
        },
        {
          "internalType": "address",
          "name": "maybeSigner",
          "type": "address"
        }
      ],
      "name": "_validateSignature",
      "outputs": [
        {
          "internalType": "bool",
          "name": "",
          "type": "bool"
        }
      ],
      "stateMutability": "pure",
      "type": "function"
    },
    {
      "inputs": [
        {
          "internalType": "uint256",
          "name": "gameId",
          "type": "uint256"
        },
        {
          "components": [
            {
              "internalType": "enum MetaDuelGame.MoveType",
              "name": "moveType",
              "type": "uint8"
            },
            {
              "internalType": "bytes",
              "name": "signature",
              "type": "bytes"
            },
            {
              "internalType": "string",
              "name": "nonce",
              "type": "string"
            }
          ],
          "internalType": "struct MetaDuelGame.Move[6]",
          "name": "moves",
          "type": "tuple[6]"
        },
        {
          "internalType": "bytes",
          "name": "finalSignature",
          "type": "bytes"
        }
      ],
      "name": "_verifyAndExtractWinner",
      "outputs": [
        {
          "internalType": "address",
          "name": "",
          "type": "address"
        }
      ],
      "stateMutability": "view",
      "type": "function"
    },
    {
      "inputs": [
        {
          "internalType": "uint256",
          "name": "gameId",
          "type": "uint256"
        },
        {
          "components": [
            {
              "internalType": "enum MetaDuelGame.MoveType",
              "name": "moveType",
              "type": "uint8"
            },
            {
              "internalType": "bytes",
              "name": "signature",
              "type": "bytes"
            },
            {
              "internalType": "string",
              "name": "nonce",
              "type": "string"
            }
          ],
          "internalType": "struct MetaDuelGame.Move[6]",
          "name": "moves",
          "type": "tuple[6]"
        },
        {
          "internalType": "bytes",
          "name": "finalSignature",
          "type": "bytes"
        }
      ],
      "name": "endGame",
      "outputs": [],
      "stateMutability": "nonpayable",
      "type": "function"
    },
    {
      "inputs": [
        {
          "internalType": "address",
          "name": "dueler",
          "type": "address"
        },
        {
          "internalType": "address",
          "name": "duelee",
          "type": "address"
        },
        {
          "internalType": "bytes32",
          "name": "other",
          "type": "bytes32"
        }
      ],
      "name": "letItBegin",
      "outputs": [
        {
          "internalType": "uint256",
          "name": "",
          "type": "uint256"
        }
      ],
      "stateMutability": "nonpayable",
      "type": "function"
    }
  ],
  "bytecode": "0x608060405234801561001057600080fd5b50611f77806100206000396000f3fe608060405234801561001057600080fd5b50600436106100625760003560e01c80631759feaa14610067578063255ac8431461009757806329c3cd14146100b35780633245c481146100e35780636e4a600114610113578063f6d2db251461011d575b600080fd5b610081600480360381019061007c91906113d0565b61014d565b60405161008e9190611988565b60405180910390f35b6100b160048036038101906100ac919061144f565b6101a3565b005b6100cd60048036038101906100c8919061144f565b6101b8565b6040516100da919061196d565b60405180910390f35b6100fd60048036038101906100f89190611381565b6105ec565b60405161010a9190611b05565b60405180910390f35b61011b6106a0565b005b610137600480360381019061013291906114ce565b6106a2565b6040516101449190611a03565b60405180910390f35b60008061015985610732565b90506000610167828661076d565b90508073ffffffffffffffffffffffffffffffffffffffff168473ffffffffffffffffffffffffffffffffffffffff1614925050509392505050565b60006101b08484846101b8565b905050505050565b60008060016000868152602001908152602001600020600060028110610207577f4e487b7100000000000000000000000000000000000000000000000000000000600052603260045260246000fd5b0160009054906101000a900473ffffffffffffffffffffffffffffffffffffffff169050600060016000878152602001908152602001600020600160028110610279577f4e487b7100000000000000000000000000000000000000000000000000000000600052603260045260246000fd5b0160009054906101000a900473ffffffffffffffffffffffffffffffffffffffff169050600080600060405180602001604052806000815250905060005b60068110156104ac576000806002836102d09190611e1d565b146102db57856102dd565b865b905060008a836006811061031a577f4e487b7100000000000000000000000000000000000000000000000000000000600052603260045260246000fd5b6020020151905060006103378d83600001518460400151886106a2565b90506103488183602001518561014d565b610387576040517f08c379a000000000000000000000000000000000000000000000000000000000815260040161037e90611ac5565b60405180910390fd5b60016002856103969190611e1d565b14156104525760008061042f8e6001886103b09190611cff565b600681106103e7577f4e487b7100000000000000000000000000000000000000000000000000000000600052603260045260246000fd5b60200201518f8860068110610425577f4e487b7100000000000000000000000000000000000000000000000000000000600052603260045260246000fd5b6020020151610794565b91509150818961043f9190611c78565b9850808861044d9190611c78565b975050505b8b846006811061048b577f4e487b7100000000000000000000000000000000000000000000000000000000600052603260045260246000fd5b602002015160200151945050505080806104a490611dd4565b9150506102b7565b50600061053f8a8a6005600681106104ed577f4e487b7100000000000000000000000000000000000000000000000000000000600052603260045260246000fd5b6020020151600001518b600560068110610530577f4e487b7100000000000000000000000000000000000000000000000000000000600052603260045260246000fd5b602002015160400151856106a2565b905061054c81898861014d565b61058b576040517f08c379a000000000000000000000000000000000000000000000000000000000815260040161058290611aa5565b60405180910390fd5b828414156105ce576040517f08c379a00000000000000000000000000000000000000000000000000000000081526004016105c590611a65565b60405180910390fd5b8284106105db57846105dd565b855b96505050505050509392505050565b60006105f860006109b8565b600061060460006109ce565b905060405180604001604052808673ffffffffffffffffffffffffffffffffffffffff1673ffffffffffffffffffffffffffffffffffffffff1681526020018573ffffffffffffffffffffffffffffffffffffffff1673ffffffffffffffffffffffffffffffffffffffff16815250600160008381526020019081526020016000209060026106949291906110b8565b50809150509392505050565b565b6060848460028111156106de577f4e487b7100000000000000000000000000000000000000000000000000000000600052602160045260246000fd5b84846040516020016106f39493929190611b20565b6040516020818303038152906040528051906020012060405160200161071991906119a3565b6040516020818303038152906040529050949350505050565b600061073e82516109dc565b8260405160200161075092919061193e565b604051602081830303815290604052805190602001209050919050565b600080600061077c8585610b89565b9150915061078981610c0c565b819250505092915050565b600080600060028111156107d1577f4e487b7100000000000000000000000000000000000000000000000000000000600052602160045260246000fd5b8460000151600281111561080e577f4e487b7100000000000000000000000000000000000000000000000000000000600052602160045260246000fd5b14801561088e575060028081111561084f577f4e487b7100000000000000000000000000000000000000000000000000000000600052602160045260246000fd5b8360000151600281111561088c577f4e487b7100000000000000000000000000000000000000000000000000000000600052602160045260246000fd5b145b156108a05760006001915091506109b1565b600060028111156108da577f4e487b7100000000000000000000000000000000000000000000000000000000600052602160045260246000fd5b83600001516002811115610917577f4e487b7100000000000000000000000000000000000000000000000000000000600052602160045260246000fd5b1480156109975750600280811115610958577f4e487b7100000000000000000000000000000000000000000000000000000000600052602160045260246000fd5b84600001516002811115610995577f4e487b7100000000000000000000000000000000000000000000000000000000600052602160045260246000fd5b145b156109a95760016000915091506109b1565b600080915091505b9250929050565b6001816000016000828254019250508190555050565b600081600001549050919050565b60606000821415610a24576040518060400160405280600181526020017f30000000000000000000000000000000000000000000000000000000000000008152509050610b84565b600082905060005b60008214610a56578080610a3f90611dd4565b915050600a82610a4f9190611cce565b9150610a2c565b60008167ffffffffffffffff811115610a98577f4e487b7100000000000000000000000000000000000000000000000000000000600052604160045260246000fd5b6040519080825280601f01601f191660200182016040528015610aca5781602001600182028036833780820191505090505b5090505b60008514610b7d57600182610ae39190611cff565b9150600a85610af29190611e1d565b6030610afe9190611c78565b60f81b818381518110610b3a577f4e487b7100000000000000000000000000000000000000000000000000000000600052603260045260246000fd5b60200101907effffffffffffffffffffffffffffffffffffffffffffffffffffffffffffff1916908160001a905350600a85610b769190611cce565b9450610ace565b8093505050505b919050565b600080604183511415610bcb5760008060006020860151925060408601519150606086015160001a9050610bbf87828585610f5d565b94509450505050610c05565b604083511415610bfc576000806020850151915060408501519050610bf186838361106a565b935093505050610c05565b60006002915091505b9250929050565b60006004811115610c46577f4e487b7100000000000000000000000000000000000000000000000000000000600052602160045260246000fd5b816004811115610c7f577f4e487b7100000000000000000000000000000000000000000000000000000000600052602160045260246000fd5b1415610c8a57610f5a565b60016004811115610cc4577f4e487b7100000000000000000000000000000000000000000000000000000000600052602160045260246000fd5b816004811115610cfd577f4e487b7100000000000000000000000000000000000000000000000000000000600052602160045260246000fd5b1415610d3e576040517f08c379a0000000000000000000000000000000000000000000000000000000008152600401610d3590611a25565b60405180910390fd5b60026004811115610d78577f4e487b7100000000000000000000000000000000000000000000000000000000600052602160045260246000fd5b816004811115610db1577f4e487b7100000000000000000000000000000000000000000000000000000000600052602160045260246000fd5b1415610df2576040517f08c379a0000000000000000000000000000000000000000000000000000000008152600401610de990611a45565b60405180910390fd5b60036004811115610e2c577f4e487b7100000000000000000000000000000000000000000000000000000000600052602160045260246000fd5b816004811115610e65577f4e487b7100000000000000000000000000000000000000000000000000000000600052602160045260246000fd5b1415610ea6576040517f08c379a0000000000000000000000000000000000000000000000000000000008152600401610e9d90611a85565b60405180910390fd5b600480811115610edf577f4e487b7100000000000000000000000000000000000000000000000000000000600052602160045260246000fd5b816004811115610f18577f4e487b7100000000000000000000000000000000000000000000000000000000600052602160045260246000fd5b1415610f59576040517f08c379a0000000000000000000000000000000000000000000000000000000008152600401610f5090611ae5565b60405180910390fd5b5b50565b6000807f7fffffffffffffffffffffffffffffff5d576e7357a4501ddfe92f46681b20a08360001c1115610f98576000600391509150611061565b601b8560ff1614158015610fb05750601c8560ff1614155b15610fc2576000600491509150611061565b600060018787878760405160008152602001604052604051610fe794939291906119be565b6020604051602081039080840390855afa158015611009573d6000803e3d6000fd5b505050602060405103519050600073ffffffffffffffffffffffffffffffffffffffff168173ffffffffffffffffffffffffffffffffffffffff16141561105857600060019250925050611061565b80600092509250505b94509492505050565b6000806000807f7fffffffffffffffffffffffffffffffffffffffffffffffffffffffffffffff85169150601b8560ff1c0190506110aa87828885610f5d565b935093505050935093915050565b8260028101928215611124579160200282015b828111156111235782518260006101000a81548173ffffffffffffffffffffffffffffffffffffffff021916908373ffffffffffffffffffffffffffffffffffffffff160217905550916020019190600101906110cb565b5b5090506111319190611135565b5090565b5b8082111561114e576000816000905550600101611136565b5090565b600061116561116084611ba4565b611b73565b9050808260005b8581101561119c578135850161118288826112dc565b84526020840193506020830192505060018101905061116c565b5050509392505050565b60006111b96111b484611bca565b611b73565b9050828152602081018484840111156111d157600080fd5b6111dc848285611d92565b509392505050565b60006111f76111f284611bfa565b611b73565b90508281526020810184848401111561120f57600080fd5b61121a848285611d92565b509392505050565b60008135905061123181611eec565b92915050565b600082601f83011261124857600080fd5b6006611255848285611152565b91505092915050565b60008135905061126d81611f03565b92915050565b600082601f83011261128457600080fd5b81356112948482602086016111a6565b91505092915050565b6000813590506112ac81611f1a565b92915050565b600082601f8301126112c357600080fd5b81356112d38482602086016111e4565b91505092915050565b6000606082840312156112ee57600080fd5b6112f86060611b73565b905060006113088482850161129d565b600083015250602082013567ffffffffffffffff81111561132857600080fd5b61133484828501611273565b602083015250604082013567ffffffffffffffff81111561135457600080fd5b611360848285016112b2565b60408301525092915050565b60008135905061137b81611f2a565b92915050565b60008060006060848603121561139657600080fd5b60006113a486828701611222565b93505060206113b586828701611222565b92505060406113c68682870161125e565b9150509250925092565b6000806000606084860312156113e557600080fd5b600084013567ffffffffffffffff8111156113ff57600080fd5b61140b86828701611273565b935050602084013567ffffffffffffffff81111561142857600080fd5b61143486828701611273565b925050604061144586828701611222565b9150509250925092565b60008060006060848603121561146457600080fd5b60006114728682870161136c565b935050602084013567ffffffffffffffff81111561148f57600080fd5b61149b86828701611237565b925050604084013567ffffffffffffffff8111156114b857600080fd5b6114c486828701611273565b9150509250925092565b600080600080608085870312156114e457600080fd5b60006114f28782880161136c565b94505060206115038782880161129d565b935050604085013567ffffffffffffffff81111561152057600080fd5b61152c878288016112b2565b925050606085013567ffffffffffffffff81111561154957600080fd5b61155587828801611273565b91505092959194509250565b61156a81611d33565b82525050565b61157981611d45565b82525050565b61158881611d51565b82525050565b600061159982611c2a565b6115a38185611c40565b93506115b3818560208601611da1565b6115bc81611edb565b840191505092915050565b60006115d282611c2a565b6115dc8185611c51565b93506115ec818560208601611da1565b80840191505092915050565b600061160382611c35565b61160d8185611c5c565b935061161d818560208601611da1565b61162681611edb565b840191505092915050565b600061163c82611c35565b6116468185611c6d565b9350611656818560208601611da1565b80840191505092915050565b600061166f601883611c5c565b91507f45434453413a20696e76616c6964207369676e617475726500000000000000006000830152602082019050919050565b60006116af601f83611c5c565b91507f45434453413a20696e76616c6964207369676e6174757265206c656e677468006000830152602082019050919050565b60006116ef603183611c5c565b91507f4d6574616475656c733a206475656c657220616e64206475656c65652068617660008301527f65207468652073616d652064616d6167650000000000000000000000000000006020830152604082019050919050565b6000611755602283611c5c565b91507f45434453413a20696e76616c6964207369676e6174757265202773272076616c60008301527f75650000000000000000000000000000000000000000000000000000000000006020830152604082019050919050565b60006117bb602783611c5c565b91507f4d6574616475656c733a2066696e616c207369676e6174757265206973206e6f60008301527f742076616c6964000000000000000000000000000000000000000000000000006020830152604082019050919050565b6000611821602e83611c5c565b91507f4d6574614475656c733a207369676e617475726520646f6573206e6f74206d6160008301527f74636820666f722061206d6f76650000000000000000000000000000000000006020830152604082019050919050565b6000611887602283611c5c565b91507f45434453413a20696e76616c6964207369676e6174757265202776272076616c60008301527f75650000000000000000000000000000000000000000000000000000000000006020830152604082019050919050565b60006118ed601a83611c6d565b91507f19457468657265756d205369676e6564204d6573736167653a0a0000000000006000830152601a82019050919050565b61192981611d7b565b82525050565b61193881611d85565b82525050565b6000611949826118e0565b91506119558285611631565b915061196182846115c7565b91508190509392505050565b60006020820190506119826000830184611561565b92915050565b600060208201905061199d6000830184611570565b92915050565b60006020820190506119b8600083018461157f565b92915050565b60006080820190506119d3600083018761157f565b6119e0602083018661192f565b6119ed604083018561157f565b6119fa606083018461157f565b95945050505050565b60006020820190508181036000830152611a1d818461158e565b905092915050565b60006020820190508181036000830152611a3e81611662565b9050919050565b60006020820190508181036000830152611a5e816116a2565b9050919050565b60006020820190508181036000830152611a7e816116e2565b9050919050565b60006020820190508181036000830152611a9e81611748565b9050919050565b60006020820190508181036000830152611abe816117ae565b9050919050565b60006020820190508181036000830152611ade81611814565b9050919050565b60006020820190508181036000830152611afe8161187a565b9050919050565b6000602082019050611b1a6000830184611920565b92915050565b6000608082019050611b356000830187611920565b611b42602083018661192f565b8181036040830152611b5481856115f8565b90508181036060830152611b68818461158e565b905095945050505050565b6000604051905081810181811067ffffffffffffffff82111715611b9a57611b99611eac565b5b8060405250919050565b600067ffffffffffffffff821115611bbf57611bbe611eac565b5b602082029050919050565b600067ffffffffffffffff821115611be557611be4611eac565b5b601f19601f8301169050602081019050919050565b600067ffffffffffffffff821115611c1557611c14611eac565b5b601f19601f8301169050602081019050919050565b600081519050919050565b600081519050919050565b600082825260208201905092915050565b600081905092915050565b600082825260208201905092915050565b600081905092915050565b6000611c8382611d7b565b9150611c8e83611d7b565b9250827fffffffffffffffffffffffffffffffffffffffffffffffffffffffffffffffff03821115611cc357611cc2611e4e565b5b828201905092915050565b6000611cd982611d7b565b9150611ce483611d7b565b925082611cf457611cf3611e7d565b5b828204905092915050565b6000611d0a82611d7b565b9150611d1583611d7b565b925082821015611d2857611d27611e4e565b5b828203905092915050565b6000611d3e82611d5b565b9050919050565b60008115159050919050565b6000819050919050565b600073ffffffffffffffffffffffffffffffffffffffff82169050919050565b6000819050919050565b600060ff82169050919050565b82818337600083830152505050565b60005b83811015611dbf578082015181840152602081019050611da4565b83811115611dce576000848401525b50505050565b6000611ddf82611d7b565b91507fffffffffffffffffffffffffffffffffffffffffffffffffffffffffffffffff821415611e1257611e11611e4e565b5b600182019050919050565b6000611e2882611d7b565b9150611e3383611d7b565b925082611e4357611e42611e7d565b5b828206905092915050565b7f4e487b7100000000000000000000000000000000000000000000000000000000600052601160045260246000fd5b7f4e487b7100000000000000000000000000000000000000000000000000000000600052601260045260246000fd5b7f4e487b7100000000000000000000000000000000000000000000000000000000600052604160045260246000fd5b6000601f19601f8301169050919050565b611ef581611d33565b8114611f0057600080fd5b50565b611f0c81611d51565b8114611f1757600080fd5b50565b60038110611f2757600080fd5b50565b611f3381611d7b565b8114611f3e57600080fd5b5056fea26469706673582212207552e628c825b3eb1e77ad1372364255eae4c0f17d76c672db5f5d6385cea71e64736f6c63430008000033",
  "linkReferences": {},
  "deployedLinkReferences": {}
}