{
  "_format": "hh-sol-artifact-1",
  "contractName": "AdditiveNFT",
  "sourceName": "contracts/eth/AdditiveNFT.sol",
  "abi": [
    {
      "inputs": [],
      "stateMutability": "nonpayable",
      "type": "constructor"
    },
    {
      "anonymous": false,
      "inputs": [
        {
          "indexed": true,
          "internalType": "address",
          "name": "owner",
          "type": "address"
        },
        {
          "indexed": true,
          "internalType": "address",
          "name": "approved",
          "type": "address"
        },
        {
          "indexed": true,
          "internalType": "uint256",
          "name": "tokenId",
          "type": "uint256"
        }
      ],
      "name": "Approval",
      "type": "event"
    },
    {
      "anonymous": false,
      "inputs": [
        {
          "indexed": true,
          "internalType": "address",
          "name": "owner",
          "type": "address"
        },
        {
          "indexed": true,
          "internalType": "address",
          "name": "operator",
          "type": "address"
        },
        {
          "indexed": false,
          "internalType": "bool",
          "name": "approved",
          "type": "bool"
        }
      ],
      "name": "ApprovalForAll",
      "type": "event"
    },
    {
      "anonymous": false,
      "inputs": [
        {
          "indexed": true,
          "internalType": "address",
          "name": "previousOwner",
          "type": "address"
        },
        {
          "indexed": true,
          "internalType": "address",
          "name": "newOwner",
          "type": "address"
        }
      ],
      "name": "OwnershipTransferred",
      "type": "event"
    },
    {
      "anonymous": false,
      "inputs": [
        {
          "indexed": true,
          "internalType": "address",
          "name": "from",
          "type": "address"
        },
        {
          "indexed": true,
          "internalType": "address",
          "name": "to",
          "type": "address"
        },
        {
          "indexed": true,
          "internalType": "uint256",
          "name": "tokenId",
          "type": "uint256"
        }
      ],
      "name": "Transfer",
      "type": "event"
    },
    {
      "inputs": [
        {
          "internalType": "address",
          "name": "to",
          "type": "address"
        },
        {
          "internalType": "uint256",
          "name": "tokenId",
          "type": "uint256"
        }
      ],
      "name": "approve",
      "outputs": [],
      "stateMutability": "nonpayable",
      "type": "function"
    },
    {
      "inputs": [
        {
          "internalType": "address",
          "name": "owner",
          "type": "address"
        }
      ],
      "name": "balanceOf",
      "outputs": [
        {
          "internalType": "uint256",
          "name": "",
          "type": "uint256"
        }
      ],
      "stateMutability": "view",
      "type": "function"
    },
    {
      "inputs": [
        {
          "internalType": "uint256",
          "name": "tokenId",
          "type": "uint256"
        }
      ],
      "name": "getApproved",
      "outputs": [
        {
          "internalType": "address",
          "name": "",
          "type": "address"
        }
      ],
      "stateMutability": "view",
      "type": "function"
    },
    {
      "inputs": [
        {
          "internalType": "address",
          "name": "owner",
          "type": "address"
        },
        {
          "internalType": "address",
          "name": "operator",
          "type": "address"
        }
      ],
      "name": "isApprovedForAll",
      "outputs": [
        {
          "internalType": "bool",
          "name": "",
          "type": "bool"
        }
      ],
      "stateMutability": "view",
      "type": "function"
    },
    {
      "inputs": [],
      "name": "lockTokenURIUpdaterForever",
      "outputs": [],
      "stateMutability": "nonpayable",
      "type": "function"
    },
    {
      "inputs": [
        {
          "internalType": "string",
          "name": "ipfsCid",
          "type": "string"
        }
      ],
      "name": "mintNFT",
      "outputs": [
        {
          "internalType": "uint256",
          "name": "",
          "type": "uint256"
        }
      ],
      "stateMutability": "nonpayable",
      "type": "function"
    },
    {
      "inputs": [],
      "name": "name",
      "outputs": [
        {
          "internalType": "string",
          "name": "",
          "type": "string"
        }
      ],
      "stateMutability": "view",
      "type": "function"
    },
    {
      "inputs": [],
      "name": "owner",
      "outputs": [
        {
          "internalType": "address",
          "name": "",
          "type": "address"
        }
      ],
      "stateMutability": "view",
      "type": "function"
    },
    {
      "inputs": [
        {
          "internalType": "uint256",
          "name": "tokenId",
          "type": "uint256"
        }
      ],
      "name": "ownerOf",
      "outputs": [
        {
          "internalType": "address",
          "name": "",
          "type": "address"
        }
      ],
      "stateMutability": "view",
      "type": "function"
    },
    {
      "inputs": [],
      "name": "renounceOwnership",
      "outputs": [],
      "stateMutability": "nonpayable",
      "type": "function"
    },
    {
      "inputs": [
        {
          "internalType": "address",
          "name": "from",
          "type": "address"
        },
        {
          "internalType": "address",
          "name": "to",
          "type": "address"
        },
        {
          "internalType": "uint256",
          "name": "tokenId",
          "type": "uint256"
        }
      ],
      "name": "safeTransferFrom",
      "outputs": [],
      "stateMutability": "nonpayable",
      "type": "function"
    },
    {
      "inputs": [
        {
          "internalType": "address",
          "name": "from",
          "type": "address"
        },
        {
          "internalType": "address",
          "name": "to",
          "type": "address"
        },
        {
          "internalType": "uint256",
          "name": "tokenId",
          "type": "uint256"
        },
        {
          "internalType": "bytes",
          "name": "_data",
          "type": "bytes"
        }
      ],
      "name": "safeTransferFrom",
      "outputs": [],
      "stateMutability": "nonpayable",
      "type": "function"
    },
    {
      "inputs": [
        {
          "internalType": "address",
          "name": "operator",
          "type": "address"
        },
        {
          "internalType": "bool",
          "name": "approved",
          "type": "bool"
        }
      ],
      "name": "setApprovalForAll",
      "outputs": [],
      "stateMutability": "nonpayable",
      "type": "function"
    },
    {
      "inputs": [
        {
          "internalType": "address",
          "name": "newTokenURIUpdaterAddress",
          "type": "address"
        }
      ],
      "name": "setTokenURIUpdaterAddress",
      "outputs": [],
      "stateMutability": "nonpayable",
      "type": "function"
    },
    {
      "inputs": [
        {
          "internalType": "bytes4",
          "name": "interfaceId",
          "type": "bytes4"
        }
      ],
      "name": "supportsInterface",
      "outputs": [
        {
          "internalType": "bool",
          "name": "",
          "type": "bool"
        }
      ],
      "stateMutability": "view",
      "type": "function"
    },
    {
      "inputs": [],
      "name": "symbol",
      "outputs": [
        {
          "internalType": "string",
          "name": "",
          "type": "string"
        }
      ],
      "stateMutability": "view",
      "type": "function"
    },
    {
      "inputs": [
        {
          "internalType": "uint256",
          "name": "tokenId",
          "type": "uint256"
        }
      ],
      "name": "tokenURI",
      "outputs": [
        {
          "internalType": "string",
          "name": "",
          "type": "string"
        }
      ],
      "stateMutability": "view",
      "type": "function"
    },
    {
      "inputs": [],
      "name": "tokenURIUpdaterAddress",
      "outputs": [
        {
          "internalType": "address",
          "name": "",
          "type": "address"
        }
      ],
      "stateMutability": "view",
      "type": "function"
    },
    {
      "inputs": [
        {
          "internalType": "address",
          "name": "from",
          "type": "address"
        },
        {
          "internalType": "address",
          "name": "to",
          "type": "address"
        },
        {
          "internalType": "uint256",
          "name": "tokenId",
          "type": "uint256"
        }
      ],
      "name": "transferFrom",
      "outputs": [],
      "stateMutability": "nonpayable",
      "type": "function"
    },
    {
      "inputs": [
        {
          "internalType": "address",
          "name": "newOwner",
          "type": "address"
        }
      ],
      "name": "transferOwnership",
      "outputs": [],
      "stateMutability": "nonpayable",
      "type": "function"
    },
    {
      "inputs": [
        {
          "internalType": "uint256",
          "name": "tokenId",
          "type": "uint256"
        },
        {
          "internalType": "string",
          "name": "newCID",
          "type": "string"
        },
        {
          "internalType": "string",
          "name": "maybeCurrentCID",
          "type": "string"
        },
        {
          "internalType": "address",
          "name": "maybeTokenOwner",
          "type": "address"
        }
      ],
      "name": "updateTokenURI",
      "outputs": [],
      "stateMutability": "nonpayable",
      "type": "function"
    }
  ],
  "bytecode": "0x60806040523480156200001157600080fd5b506040518060400160405280600b81526020017f41646469746976654e46540000000000000000000000000000000000000000008152506040518060400160405280600681526020017f5a4f444941430000000000000000000000000000000000000000000000000000815250816000908051906020019062000096929190620001a6565b508060019080519060200190620000af929190620001a6565b505050620000d2620000c6620000d860201b60201c565b620000e060201b60201c565b620002bb565b600033905090565b6000600760009054906101000a900473ffffffffffffffffffffffffffffffffffffffff16905081600760006101000a81548173ffffffffffffffffffffffffffffffffffffffff021916908373ffffffffffffffffffffffffffffffffffffffff1602179055508173ffffffffffffffffffffffffffffffffffffffff168173ffffffffffffffffffffffffffffffffffffffff167f8be0079c531659141344cd1fd0a4f28419497f9722a3daafe3b4186f6b6457e060405160405180910390a35050565b828054620001b49062000256565b90600052602060002090601f016020900481019282620001d8576000855562000224565b82601f10620001f357805160ff191683800117855562000224565b8280016001018555821562000224579182015b828111156200022357825182559160200191906001019062000206565b5b50905062000233919062000237565b5090565b5b808211156200025257600081600090555060010162000238565b5090565b600060028204905060018216806200026f57607f821691505b602082108114156200028657620002856200028c565b5b50919050565b7f4e487b7100000000000000000000000000000000000000000000000000000000600052602260045260246000fd5b61352d80620002cb6000396000f3fe608060405234801561001057600080fd5b50600436106101375760003560e01c806375ec90c0116100b8578063c87b56dd1161007c578063c87b56dd14610324578063e27142b914610354578063e985e9c514610372578063edd2414c146103a2578063f2fde38b146103ac578063fb37e883146103c857610137565b806375ec90c0146102945780638da5cb5b146102b057806395d89b41146102ce578063a22cb465146102ec578063b88d4fde1461030857610137565b806342842e0e116100ff57806342842e0e146101f25780635bb9b7ea1461020e5780636352211e1461022a57806370a082311461025a578063715018a61461028a57610137565b806301ffc9a71461013c57806306fdde031461016c578063081812fc1461018a578063095ea7b3146101ba57806323b872dd146101d6575b600080fd5b610156600480360381019061015191906122c9565b6103f8565b6040516101639190612dc5565b60405180910390f35b6101746104da565b6040516101819190612de0565b60405180910390f35b6101a4600480360381019061019f919061235c565b61056c565b6040516101b19190612d5e565b60405180910390f35b6101d460048036038101906101cf919061228d565b6105f1565b005b6101f060048036038101906101eb9190612187565b610709565b005b61020c60048036038101906102079190612187565b610769565b005b61022860048036038101906102239190612122565b610789565b005b610244600480360381019061023f919061235c565b610899565b6040516102519190612d5e565b60405180910390f35b610274600480360381019061026f9190612122565b61094b565b60405161028191906130c2565b60405180910390f35b610292610a03565b005b6102ae60048036038101906102a99190612385565b610a8b565b005b6102b8610c28565b6040516102c59190612d5e565b60405180910390f35b6102d6610c52565b6040516102e39190612de0565b60405180910390f35b61030660048036038101906103019190612251565b610ce4565b005b610322600480360381019061031d91906121d6565b610cfa565b005b61033e6004803603810190610339919061235c565b610d5c565b60405161034b9190612de0565b60405180910390f35b61035c610eae565b6040516103699190612d5e565b60405180910390f35b61038c6004803603810190610387919061214b565b610ed8565b6040516103999190612dc5565b60405180910390f35b6103aa610f6c565b005b6103c660048036038101906103c19190612122565b611005565b005b6103e260048036038101906103dd919061231b565b6110fd565b6040516103ef91906130c2565b60405180910390f35b60007f80ac58cd000000000000000000000000000000000000000000000000000000007bffffffffffffffffffffffffffffffffffffffffffffffffffffffff1916827bffffffffffffffffffffffffffffffffffffffffffffffffffffffff191614806104c357507f5b5e139f000000000000000000000000000000000000000000000000000000007bffffffffffffffffffffffffffffffffffffffffffffffffffffffff1916827bffffffffffffffffffffffffffffffffffffffffffffffffffffffff1916145b806104d357506104d282611140565b5b9050919050565b6060600080546104e990613322565b80601f016020809104026020016040519081016040528092919081815260200182805461051590613322565b80156105625780601f1061053757610100808354040283529160200191610562565b820191906000526020600020905b81548152906001019060200180831161054557829003601f168201915b5050505050905090565b6000610577826111aa565b6105b6576040517f08c379a00000000000000000000000000000000000000000000000000000000081526004016105ad90612fe2565b60405180910390fd5b6004600083815260200190815260200160002060009054906101000a900473ffffffffffffffffffffffffffffffffffffffff169050919050565b60006105fc82610899565b90508073ffffffffffffffffffffffffffffffffffffffff168373ffffffffffffffffffffffffffffffffffffffff16141561066d576040517f08c379a000000000000000000000000000000000000000000000000000000000815260040161066490613062565b60405180910390fd5b8073ffffffffffffffffffffffffffffffffffffffff1661068c611216565b73ffffffffffffffffffffffffffffffffffffffff1614806106bb57506106ba816106b5611216565b610ed8565b5b6106fa576040517f08c379a00000000000000000000000000000000000000000000000000000000081526004016106f190612f22565b60405180910390fd5b610704838361121e565b505050565b61071a610714611216565b826112d7565b610759576040517f08c379a0000000000000000000000000000000000000000000000000000000008152600401610750906130a2565b60405180910390fd5b6107648383836113b5565b505050565b61078483838360405180602001604052806000815250610cfa565b505050565b610791611216565b73ffffffffffffffffffffffffffffffffffffffff166107af610c28565b73ffffffffffffffffffffffffffffffffffffffff1614610805576040517f08c379a00000000000000000000000000000000000000000000000000000000081526004016107fc90613002565b60405180910390fd5b600860149054906101000a900460ff1615610855576040517f08c379a000000000000000000000000000000000000000000000000000000000815260040161084c90612ea2565b60405180910390fd5b80600860006101000a81548173ffffffffffffffffffffffffffffffffffffffff021916908373ffffffffffffffffffffffffffffffffffffffff16021790555050565b6000806002600084815260200190815260200160002060009054906101000a900473ffffffffffffffffffffffffffffffffffffffff169050600073ffffffffffffffffffffffffffffffffffffffff168173ffffffffffffffffffffffffffffffffffffffff161415610942576040517f08c379a000000000000000000000000000000000000000000000000000000000815260040161093990612f62565b60405180910390fd5b80915050919050565b60008073ffffffffffffffffffffffffffffffffffffffff168273ffffffffffffffffffffffffffffffffffffffff1614156109bc576040517f08c379a00000000000000000000000000000000000000000000000000000000081526004016109b390612f42565b60405180910390fd5b600360008373ffffffffffffffffffffffffffffffffffffffff1673ffffffffffffffffffffffffffffffffffffffff168152602001908152602001600020549050919050565b610a0b611216565b73ffffffffffffffffffffffffffffffffffffffff16610a29610c28565b73ffffffffffffffffffffffffffffffffffffffff1614610a7f576040517f08c379a0000000000000000000000000000000000000000000000000000000008152600401610a7690613002565b60405180910390fd5b610a896000611611565b565b610a93611216565b73ffffffffffffffffffffffffffffffffffffffff16600860009054906101000a900473ffffffffffffffffffffffffffffffffffffffff1673ffffffffffffffffffffffffffffffffffffffff1614610b22576040517f08c379a0000000000000000000000000000000000000000000000000000000008152600401610b1990612f02565b60405180910390fd5b610b2b84610899565b73ffffffffffffffffffffffffffffffffffffffff168173ffffffffffffffffffffffffffffffffffffffff1614610b98576040517f08c379a0000000000000000000000000000000000000000000000000000000008152600401610b8f90613082565b60405180910390fd5b610ba184610d5c565b80519060200120610bb06116d7565b83604051602001610bc2929190612d3a565b6040516020818303038152906040528051906020012014610c18576040517f08c379a0000000000000000000000000000000000000000000000000000000008152600401610c0f90612ec2565b60405180910390fd5b610c228484611714565b50505050565b6000600760009054906101000a900473ffffffffffffffffffffffffffffffffffffffff16905090565b606060018054610c6190613322565b80601f0160208091040260200160405190810160405280929190818152602001828054610c8d90613322565b8015610cda5780601f10610caf57610100808354040283529160200191610cda565b820191906000526020600020905b815481529060010190602001808311610cbd57829003601f168201915b5050505050905090565b610cf6610cef611216565b8383611788565b5050565b610d0b610d05611216565b836112d7565b610d4a576040517f08c379a0000000000000000000000000000000000000000000000000000000008152600401610d41906130a2565b60405180910390fd5b610d56848484846118f5565b50505050565b6060610d67826111aa565b610da6576040517f08c379a0000000000000000000000000000000000000000000000000000000008152600401610d9d90612fc2565b60405180910390fd5b6000600660008481526020019081526020016000208054610dc690613322565b80601f0160208091040260200160405190810160405280929190818152602001828054610df290613322565b8015610e3f5780601f10610e1457610100808354040283529160200191610e3f565b820191906000526020600020905b815481529060010190602001808311610e2257829003601f168201915b505050505090506000610e506116d7565b9050600081511415610e66578192505050610ea9565b600082511115610e9b578082604051602001610e83929190612d3a565b60405160208183030381529060405292505050610ea9565b610ea484611951565b925050505b919050565b6000600860009054906101000a900473ffffffffffffffffffffffffffffffffffffffff16905090565b6000600560008473ffffffffffffffffffffffffffffffffffffffff1673ffffffffffffffffffffffffffffffffffffffff16815260200190815260200160002060008373ffffffffffffffffffffffffffffffffffffffff1673ffffffffffffffffffffffffffffffffffffffff16815260200190815260200160002060009054906101000a900460ff16905092915050565b610f74611216565b73ffffffffffffffffffffffffffffffffffffffff16610f92610c28565b73ffffffffffffffffffffffffffffffffffffffff1614610fe8576040517f08c379a0000000000000000000000000000000000000000000000000000000008152600401610fdf90613002565b60405180910390fd5b6001600860146101000a81548160ff021916908315150217905550565b61100d611216565b73ffffffffffffffffffffffffffffffffffffffff1661102b610c28565b73ffffffffffffffffffffffffffffffffffffffff1614611081576040517f08c379a000000000000000000000000000000000000000000000000000000000815260040161107890613002565b60405180910390fd5b600073ffffffffffffffffffffffffffffffffffffffff168173ffffffffffffffffffffffffffffffffffffffff1614156110f1576040517f08c379a00000000000000000000000000000000000000000000000000000000081526004016110e890612e22565b60405180910390fd5b6110fa81611611565b50565b600080611108611216565b905061111460096119f8565b60006111206009611a0e565b905061112c8282611a1c565b6111368185611714565b8092505050919050565b60007f01ffc9a7000000000000000000000000000000000000000000000000000000007bffffffffffffffffffffffffffffffffffffffffffffffffffffffff1916827bffffffffffffffffffffffffffffffffffffffffffffffffffffffff1916149050919050565b60008073ffffffffffffffffffffffffffffffffffffffff166002600084815260200190815260200160002060009054906101000a900473ffffffffffffffffffffffffffffffffffffffff1673ffffffffffffffffffffffffffffffffffffffff1614159050919050565b600033905090565b816004600083815260200190815260200160002060006101000a81548173ffffffffffffffffffffffffffffffffffffffff021916908373ffffffffffffffffffffffffffffffffffffffff160217905550808273ffffffffffffffffffffffffffffffffffffffff1661129183610899565b73ffffffffffffffffffffffffffffffffffffffff167f8c5be1e5ebec7d5bd14f71427d1e84f3dd0314c0f7b2291e5b200ac8c7c3b92560405160405180910390a45050565b60006112e2826111aa565b611321576040517f08c379a000000000000000000000000000000000000000000000000000000000815260040161131890612ee2565b60405180910390fd5b600061132c83610899565b90508073ffffffffffffffffffffffffffffffffffffffff168473ffffffffffffffffffffffffffffffffffffffff16148061139b57508373ffffffffffffffffffffffffffffffffffffffff166113838461056c565b73ffffffffffffffffffffffffffffffffffffffff16145b806113ac57506113ab8185610ed8565b5b91505092915050565b8273ffffffffffffffffffffffffffffffffffffffff166113d582610899565b73ffffffffffffffffffffffffffffffffffffffff161461142b576040517f08c379a000000000000000000000000000000000000000000000000000000000815260040161142290613022565b60405180910390fd5b600073ffffffffffffffffffffffffffffffffffffffff168273ffffffffffffffffffffffffffffffffffffffff16141561149b576040517f08c379a000000000000000000000000000000000000000000000000000000000815260040161149290612e62565b60405180910390fd5b6114a6838383611bea565b6114b160008261121e565b6001600360008573ffffffffffffffffffffffffffffffffffffffff1673ffffffffffffffffffffffffffffffffffffffff16815260200190815260200160002060008282546115019190613238565b925050819055506001600360008473ffffffffffffffffffffffffffffffffffffffff1673ffffffffffffffffffffffffffffffffffffffff168152602001908152602001600020600082825461155891906131b1565b92505081905550816002600083815260200190815260200160002060006101000a81548173ffffffffffffffffffffffffffffffffffffffff021916908373ffffffffffffffffffffffffffffffffffffffff160217905550808273ffffffffffffffffffffffffffffffffffffffff168473ffffffffffffffffffffffffffffffffffffffff167fddf252ad1be2c89b69c2b068fc378daa952ba7f163c4a11628f55a4df523b3ef60405160405180910390a4505050565b6000600760009054906101000a900473ffffffffffffffffffffffffffffffffffffffff16905081600760006101000a81548173ffffffffffffffffffffffffffffffffffffffff021916908373ffffffffffffffffffffffffffffffffffffffff1602179055508173ffffffffffffffffffffffffffffffffffffffff168173ffffffffffffffffffffffffffffffffffffffff167f8be0079c531659141344cd1fd0a4f28419497f9722a3daafe3b4186f6b6457e060405160405180910390a35050565b60606040518060400160405280600781526020017f697066733a2f2f00000000000000000000000000000000000000000000000000815250905090565b61171d826111aa565b61175c576040517f08c379a000000000000000000000000000000000000000000000000000000000815260040161175390612f82565b60405180910390fd5b80600660008481526020019081526020016000209080519060200190611783929190611f46565b505050565b8173ffffffffffffffffffffffffffffffffffffffff168373ffffffffffffffffffffffffffffffffffffffff1614156117f7576040517f08c379a00000000000000000000000000000000000000000000000000000000081526004016117ee90612e82565b60405180910390fd5b80600560008573ffffffffffffffffffffffffffffffffffffffff1673ffffffffffffffffffffffffffffffffffffffff16815260200190815260200160002060008473ffffffffffffffffffffffffffffffffffffffff1673ffffffffffffffffffffffffffffffffffffffff16815260200190815260200160002060006101000a81548160ff0219169083151502179055508173ffffffffffffffffffffffffffffffffffffffff168373ffffffffffffffffffffffffffffffffffffffff167f17307eab39ab6107e8899845ad3d59bd9653f200f220920489ca2b5937696c31836040516118e89190612dc5565b60405180910390a3505050565b6119008484846113b5565b61190c84848484611bef565b61194b576040517f08c379a000000000000000000000000000000000000000000000000000000000815260040161194290612e02565b60405180910390fd5b50505050565b606061195c826111aa565b61199b576040517f08c379a000000000000000000000000000000000000000000000000000000000815260040161199290613042565b60405180910390fd5b60006119a56116d7565b905060008151116119c557604051806020016040528060008152506119f0565b806119cf84611d86565b6040516020016119e0929190612d3a565b6040516020818303038152906040525b915050919050565b6001816000016000828254019250508190555050565b600081600001549050919050565b600073ffffffffffffffffffffffffffffffffffffffff168273ffffffffffffffffffffffffffffffffffffffff161415611a8c576040517f08c379a0000000000000000000000000000000000000000000000000000000008152600401611a8390612fa2565b60405180910390fd5b611a95816111aa565b15611ad5576040517f08c379a0000000000000000000000000000000000000000000000000000000008152600401611acc90612e42565b60405180910390fd5b611ae160008383611bea565b6001600360008473ffffffffffffffffffffffffffffffffffffffff1673ffffffffffffffffffffffffffffffffffffffff1681526020019081526020016000206000828254611b3191906131b1565b92505081905550816002600083815260200190815260200160002060006101000a81548173ffffffffffffffffffffffffffffffffffffffff021916908373ffffffffffffffffffffffffffffffffffffffff160217905550808273ffffffffffffffffffffffffffffffffffffffff16600073ffffffffffffffffffffffffffffffffffffffff167fddf252ad1be2c89b69c2b068fc378daa952ba7f163c4a11628f55a4df523b3ef60405160405180910390a45050565b505050565b6000611c108473ffffffffffffffffffffffffffffffffffffffff16611f33565b15611d79578373ffffffffffffffffffffffffffffffffffffffff1663150b7a02611c39611216565b8786866040518563ffffffff1660e01b8152600401611c5b9493929190612d79565b602060405180830381600087803b158015611c7557600080fd5b505af1925050508015611ca657506040513d601f19601f82011682018060405250810190611ca391906122f2565b60015b611d29573d8060008114611cd6576040519150601f19603f3d011682016040523d82523d6000602084013e611cdb565b606091505b50600081511415611d21576040517f08c379a0000000000000000000000000000000000000000000000000000000008152600401611d1890612e02565b60405180910390fd5b805181602001fd5b63150b7a0260e01b7bffffffffffffffffffffffffffffffffffffffffffffffffffffffff1916817bffffffffffffffffffffffffffffffffffffffffffffffffffffffff191614915050611d7e565b600190505b949350505050565b60606000821415611dce576040518060400160405280600181526020017f30000000000000000000000000000000000000000000000000000000000000008152509050611f2e565b600082905060005b60008214611e00578080611de990613354565b915050600a82611df99190613207565b9150611dd6565b60008167ffffffffffffffff811115611e42577f4e487b7100000000000000000000000000000000000000000000000000000000600052604160045260246000fd5b6040519080825280601f01601f191660200182016040528015611e745781602001600182028036833780820191505090505b5090505b60008514611f2757600182611e8d9190613238565b9150600a85611e9c919061339d565b6030611ea891906131b1565b60f81b818381518110611ee4577f4e487b7100000000000000000000000000000000000000000000000000000000600052603260045260246000fd5b60200101907effffffffffffffffffffffffffffffffffffffffffffffffffffffffffffff1916908160001a905350600a85611f209190613207565b9450611e78565b8093505050505b919050565b600080823b905060008111915050919050565b828054611f5290613322565b90600052602060002090601f016020900481019282611f745760008555611fbb565b82601f10611f8d57805160ff1916838001178555611fbb565b82800160010185558215611fbb579182015b82811115611fba578251825591602001919060010190611f9f565b5b509050611fc89190611fcc565b5090565b5b80821115611fe5576000816000905550600101611fcd565b5090565b6000611ffc611ff78461310e565b6130dd565b90508281526020810184848401111561201457600080fd5b61201f8482856132e0565b509392505050565b600061203a6120358461313e565b6130dd565b90508281526020810184848401111561205257600080fd5b61205d8482856132e0565b509392505050565b6000813590506120748161349b565b92915050565b600081359050612089816134b2565b92915050565b60008135905061209e816134c9565b92915050565b6000815190506120b3816134c9565b92915050565b600082601f8301126120ca57600080fd5b81356120da848260208601611fe9565b91505092915050565b600082601f8301126120f457600080fd5b8135612104848260208601612027565b91505092915050565b60008135905061211c816134e0565b92915050565b60006020828403121561213457600080fd5b600061214284828501612065565b91505092915050565b6000806040838503121561215e57600080fd5b600061216c85828601612065565b925050602061217d85828601612065565b9150509250929050565b60008060006060848603121561219c57600080fd5b60006121aa86828701612065565b93505060206121bb86828701612065565b92505060406121cc8682870161210d565b9150509250925092565b600080600080608085870312156121ec57600080fd5b60006121fa87828801612065565b945050602061220b87828801612065565b935050604061221c8782880161210d565b925050606085013567ffffffffffffffff81111561223957600080fd5b612245878288016120b9565b91505092959194509250565b6000806040838503121561226457600080fd5b600061227285828601612065565b92505060206122838582860161207a565b9150509250929050565b600080604083850312156122a057600080fd5b60006122ae85828601612065565b92505060206122bf8582860161210d565b9150509250929050565b6000602082840312156122db57600080fd5b60006122e98482850161208f565b91505092915050565b60006020828403121561230457600080fd5b6000612312848285016120a4565b91505092915050565b60006020828403121561232d57600080fd5b600082013567ffffffffffffffff81111561234757600080fd5b612353848285016120e3565b91505092915050565b60006020828403121561236e57600080fd5b600061237c8482850161210d565b91505092915050565b6000806000806080858703121561239b57600080fd5b60006123a98782880161210d565b945050602085013567ffffffffffffffff8111156123c657600080fd5b6123d2878288016120e3565b935050604085013567ffffffffffffffff8111156123ef57600080fd5b6123fb878288016120e3565b925050606061240c87828801612065565b91505092959194509250565b6124218161326c565b82525050565b6124308161327e565b82525050565b60006124418261316e565b61244b8185613184565b935061245b8185602086016132ef565b6124648161348a565b840191505092915050565b600061247a82613179565b6124848185613195565b93506124948185602086016132ef565b61249d8161348a565b840191505092915050565b60006124b382613179565b6124bd81856131a6565b93506124cd8185602086016132ef565b80840191505092915050565b60006124e6603283613195565b91507f4552433732313a207472616e7366657220746f206e6f6e20455243373231526560008301527f63656976657220696d706c656d656e74657200000000000000000000000000006020830152604082019050919050565b600061254c602683613195565b91507f4f776e61626c653a206e6577206f776e657220697320746865207a65726f206160008301527f64647265737300000000000000000000000000000000000000000000000000006020830152604082019050919050565b60006125b2601c83613195565b91507f4552433732313a20746f6b656e20616c7265616479206d696e746564000000006000830152602082019050919050565b60006125f2602483613195565b91507f4552433732313a207472616e7366657220746f20746865207a65726f2061646460008301527f72657373000000000000000000000000000000000000000000000000000000006020830152604082019050919050565b6000612658601983613195565b91507f4552433732313a20617070726f766520746f2063616c6c6572000000000000006000830152602082019050919050565b6000612698603883613195565b91507f41646469746976654e46543a20546f6b656e205552492055706461746572204160008301527f646472657373206973204c6f636b656420466f726576657200000000000000006020830152604082019050919050565b60006126fe602f83613195565b91507f41646469746976654e46543a20546f6b656e5552492043494420496e7465677260008301527f697479206973206e6f74206b65707400000000000000000000000000000000006020830152604082019050919050565b6000612764602c83613195565b91507f4552433732313a206f70657261746f7220717565727920666f72206e6f6e657860008301527f697374656e7420746f6b656e00000000000000000000000000000000000000006020830152604082019050919050565b60006127ca604383613195565b91507f41646469746976654e46543a204f6e6c792074686520746f6b656e555249557060008301527f646174657220636f6e74726163742063616e2075706461746520746f6b656e5560208301527f52497300000000000000000000000000000000000000000000000000000000006040830152606082019050919050565b6000612856603883613195565b91507f4552433732313a20617070726f76652063616c6c6572206973206e6f74206f7760008301527f6e6572206e6f7220617070726f76656420666f7220616c6c00000000000000006020830152604082019050919050565b60006128bc602a83613195565b91507f4552433732313a2062616c616e636520717565727920666f7220746865207a6560008301527f726f2061646472657373000000000000000000000000000000000000000000006020830152604082019050919050565b6000612922602983613195565b91507f4552433732313a206f776e657220717565727920666f72206e6f6e657869737460008301527f656e7420746f6b656e00000000000000000000000000000000000000000000006020830152604082019050919050565b6000612988602e83613195565b91507f45524337323155524953746f726167653a2055524920736574206f66206e6f6e60008301527f6578697374656e7420746f6b656e0000000000000000000000000000000000006020830152604082019050919050565b60006129ee602083613195565b91507f4552433732313a206d696e7420746f20746865207a65726f20616464726573736000830152602082019050919050565b6000612a2e603183613195565b91507f45524337323155524953746f726167653a2055524920717565727920666f722060008301527f6e6f6e6578697374656e7420746f6b656e0000000000000000000000000000006020830152604082019050919050565b6000612a94602c83613195565b91507f4552433732313a20617070726f76656420717565727920666f72206e6f6e657860008301527f697374656e7420746f6b656e00000000000000000000000000000000000000006020830152604082019050919050565b6000612afa602083613195565b91507f4f776e61626c653a2063616c6c6572206973206e6f7420746865206f776e65726000830152602082019050919050565b6000612b3a602983613195565b91507f4552433732313a207472616e73666572206f6620746f6b656e2074686174206960008301527f73206e6f74206f776e00000000000000000000000000000000000000000000006020830152604082019050919050565b6000612ba0602f83613195565b91507f4552433732314d657461646174613a2055524920717565727920666f72206e6f60008301527f6e6578697374656e7420746f6b656e00000000000000000000000000000000006020830152604082019050919050565b6000612c06602183613195565b91507f4552433732313a20617070726f76616c20746f2063757272656e74206f776e6560008301527f72000000000000000000000000000000000000000000000000000000000000006020830152604082019050919050565b6000612c6c603e83613195565b91507f41646469746976654e46543a20417474656d7074696e6720746f20757064617460008301527f65206120746f6b656e55524920776974686f7574206f776e696e6720697400006020830152604082019050919050565b6000612cd2603183613195565b91507f4552433732313a207472616e736665722063616c6c6572206973206e6f74206f60008301527f776e6572206e6f7220617070726f7665640000000000000000000000000000006020830152604082019050919050565b612d34816132d6565b82525050565b6000612d4682856124a8565b9150612d5282846124a8565b91508190509392505050565b6000602082019050612d736000830184612418565b92915050565b6000608082019050612d8e6000830187612418565b612d9b6020830186612418565b612da86040830185612d2b565b8181036060830152612dba8184612436565b905095945050505050565b6000602082019050612dda6000830184612427565b92915050565b60006020820190508181036000830152612dfa818461246f565b905092915050565b60006020820190508181036000830152612e1b816124d9565b9050919050565b60006020820190508181036000830152612e3b8161253f565b9050919050565b60006020820190508181036000830152612e5b816125a5565b9050919050565b60006020820190508181036000830152612e7b816125e5565b9050919050565b60006020820190508181036000830152612e9b8161264b565b9050919050565b60006020820190508181036000830152612ebb8161268b565b9050919050565b60006020820190508181036000830152612edb816126f1565b9050919050565b60006020820190508181036000830152612efb81612757565b9050919050565b60006020820190508181036000830152612f1b816127bd565b9050919050565b60006020820190508181036000830152612f3b81612849565b9050919050565b60006020820190508181036000830152612f5b816128af565b9050919050565b60006020820190508181036000830152612f7b81612915565b9050919050565b60006020820190508181036000830152612f9b8161297b565b9050919050565b60006020820190508181036000830152612fbb816129e1565b9050919050565b60006020820190508181036000830152612fdb81612a21565b9050919050565b60006020820190508181036000830152612ffb81612a87565b9050919050565b6000602082019050818103600083015261301b81612aed565b9050919050565b6000602082019050818103600083015261303b81612b2d565b9050919050565b6000602082019050818103600083015261305b81612b93565b9050919050565b6000602082019050818103600083015261307b81612bf9565b9050919050565b6000602082019050818103600083015261309b81612c5f565b9050919050565b600060208201905081810360008301526130bb81612cc5565b9050919050565b60006020820190506130d76000830184612d2b565b92915050565b6000604051905081810181811067ffffffffffffffff821117156131045761310361345b565b5b8060405250919050565b600067ffffffffffffffff8211156131295761312861345b565b5b601f19601f8301169050602081019050919050565b600067ffffffffffffffff8211156131595761315861345b565b5b601f19601f8301169050602081019050919050565b600081519050919050565b600081519050919050565b600082825260208201905092915050565b600082825260208201905092915050565b600081905092915050565b60006131bc826132d6565b91506131c7836132d6565b9250827fffffffffffffffffffffffffffffffffffffffffffffffffffffffffffffffff038211156131fc576131fb6133ce565b5b828201905092915050565b6000613212826132d6565b915061321d836132d6565b92508261322d5761322c6133fd565b5b828204905092915050565b6000613243826132d6565b915061324e836132d6565b925082821015613261576132606133ce565b5b828203905092915050565b6000613277826132b6565b9050919050565b60008115159050919050565b60007fffffffff0000000000000000000000000000000000000000000000000000000082169050919050565b600073ffffffffffffffffffffffffffffffffffffffff82169050919050565b6000819050919050565b82818337600083830152505050565b60005b8381101561330d5780820151818401526020810190506132f2565b8381111561331c576000848401525b50505050565b6000600282049050600182168061333a57607f821691505b6020821081141561334e5761334d61342c565b5b50919050565b600061335f826132d6565b91507fffffffffffffffffffffffffffffffffffffffffffffffffffffffffffffffff821415613392576133916133ce565b5b600182019050919050565b60006133a8826132d6565b91506133b3836132d6565b9250826133c3576133c26133fd565b5b828206905092915050565b7f4e487b7100000000000000000000000000000000000000000000000000000000600052601160045260246000fd5b7f4e487b7100000000000000000000000000000000000000000000000000000000600052601260045260246000fd5b7f4e487b7100000000000000000000000000000000000000000000000000000000600052602260045260246000fd5b7f4e487b7100000000000000000000000000000000000000000000000000000000600052604160045260246000fd5b6000601f19601f8301169050919050565b6134a48161326c565b81146134af57600080fd5b50565b6134bb8161327e565b81146134c657600080fd5b50565b6134d28161328a565b81146134dd57600080fd5b50565b6134e9816132d6565b81146134f457600080fd5b5056fea26469706673582212200ac188c4b1746e554b07b45a7669221a4b028f4f699f2bba228e3c7099cc57ad64736f6c63430008000033",
  "linkReferences": {},
  "deployedLinkReferences": {}
}