{
  "contracts/eth/RootTunnel.sol": {
    "RootTunnel": {
      "abi": [
        {
          "inputs": [
            {
              "internalType": "address",
              "name": "_checkpointManager",
              "type": "address"
            }
          ],
          "stateMutability": "nonpayable",
          "type": "constructor"
        },
        {
          "inputs": [],
          "name": "SEND_MESSAGE_EVENT_SIG",
          "outputs": [
            {
              "internalType": "bytes32",
              "name": "",
              "type": "bytes32"
            }
          ],
          "stateMutability": "view",
          "type": "function"
        },
        {
          "inputs": [],
          "name": "checkpointManager",
          "outputs": [
            {
              "internalType": "contract ICheckpointManager",
              "name": "",
              "type": "address"
            }
          ],
          "stateMutability": "view",
          "type": "function"
        },
        {
          "inputs": [],
          "name": "fxChildTunnel",
          "outputs": [
            {
              "internalType": "address",
              "name": "",
              "type": "address"
            }
          ],
          "stateMutability": "view",
          "type": "function"
        },
        {
          "inputs": [],
          "name": "latestData",
          "outputs": [
            {
              "internalType": "bytes",
              "name": "",
              "type": "bytes"
            }
          ],
          "stateMutability": "view",
          "type": "function"
        },
        {
          "inputs": [
            {
              "internalType": "bytes32",
              "name": "",
              "type": "bytes32"
            }
          ],
          "name": "processedExits",
          "outputs": [
            {
              "internalType": "bool",
              "name": "",
              "type": "bool"
            }
          ],
          "stateMutability": "view",
          "type": "function"
        },
        {
          "inputs": [
            {
              "internalType": "bytes",
              "name": "inputData",
              "type": "bytes"
            }
          ],
          "name": "receiveMessage",
          "outputs": [],
          "stateMutability": "nonpayable",
          "type": "function"
        },
        {
          "inputs": [
            {
              "internalType": "address",
              "name": "_fxChildTunnel",
              "type": "address"
            }
          ],
          "name": "setFxChildTunnel",
          "outputs": [],
          "stateMutability": "nonpayable",
          "type": "function"
        },
        {
          "inputs": [
            {
              "internalType": "bytes",
              "name": "data",
              "type": "bytes"
            }
          ],
          "name": "setLatestData",
          "outputs": [],
          "stateMutability": "nonpayable",
          "type": "function"
        }
      ],
      "evm": {
        "bytecode": {
          "linkReferences": {},
          "object": "60806040523480156200001157600080fd5b50604051620032eb380380620032eb833981810160405281019062000037919062000097565b80806000806101000a81548173ffffffffffffffffffffffffffffffffffffffff021916908373ffffffffffffffffffffffffffffffffffffffff160217905550505062000111565b6000815190506200009181620000f7565b92915050565b600060208284031215620000aa57600080fd5b6000620000ba8482850162000080565b91505092915050565b6000620000d082620000d7565b9050919050565b600073ffffffffffffffffffffffffffffffffffffffff82169050919050565b6200010281620000c3565b81146200010e57600080fd5b50565b6131ca80620001216000396000f3fe608060405234801561001057600080fd5b50600436106100885760003560e01c8063972c49281161005b578063972c492814610115578063aea4e49e14610133578063c0857ba01461014f578063f953cec71461016d57610088565b80630e387de61461008d578063142bc2ae146100ab578063607f2d42146100c95780638a7115af146100f9575b600080fd5b610095610189565b6040516100a291906129c8565b60405180910390f35b6100b36101b0565b6040516100c091906129e3565b60405180910390f35b6100e360048036038101906100de9190612442565b61023e565b6040516100f091906129ad565b60405180910390f35b610113600480360381019061010e91906124e2565b61025e565b005b61011d610278565b60405161012a9190612992565b60405180910390f35b61014d60048036038101906101489190612419565b61029e565b005b610157610373565b6040516101649190612a05565b60405180910390f35b610187600480360381019061018291906124e2565b610397565b005b7f8c5261668696ce22758910d05bab8f186d6eb247ceac2af2e82c7dc17669b03660001b81565b600380546101bd90612f84565b80601f01602080910402602001604051908101604052809291908181526020018280546101e990612f84565b80156102365780601f1061020b57610100808354040283529160200191610236565b820191906000526020600020905b81548152906001019060200180831161021957829003601f168201915b505050505081565b60026020528060005260406000206000915054906101000a900460ff1681565b80600390805190602001906102749291906121bc565b5050565b600160009054906101000a900473ffffffffffffffffffffffffffffffffffffffff1681565b600073ffffffffffffffffffffffffffffffffffffffff16600160009054906101000a900473ffffffffffffffffffffffffffffffffffffffff1673ffffffffffffffffffffffffffffffffffffffff161461032f576040517f08c379a000000000000000000000000000000000000000000000000000000000815260040161032690612a20565b60405180910390fd5b80600160006101000a81548173ffffffffffffffffffffffffffffffffffffffff021916908373ffffffffffffffffffffffffffffffffffffffff16021790555050565b60008054906101000a900473ffffffffffffffffffffffffffffffffffffffff1681565b60006103a2826103b1565b90506103ad816106b6565b5050565b606060006103be836106d0565b905060006103cb82610704565b905060006103d88361075b565b90506000816103e6846107b2565b6103ef86610a60565b6040516020016104019392919061290b565b604051602081830303815290604052805190602001209050600015156002600083815260200190815260200160002060009054906101000a900460ff16151514610480576040517f08c379a000000000000000000000000000000000000000000000000000000000815260040161047790612a60565b60405180910390fd5b60016002600083815260200190815260200160002060006101000a81548160ff02191690831515021790555060006104b785610ab7565b905060006104c482610c28565b90506104cf81610ceb565b73ffffffffffffffffffffffffffffffffffffffff16600160009054906101000a900473ffffffffffffffffffffffffffffffffffffffff1673ffffffffffffffffffffffffffffffffffffffff161461055e576040517f08c379a000000000000000000000000000000000000000000000000000000000815260040161055590612b00565b60405180910390fd5b600061056987610d42565b905061058761057784610d9c565b876105818a610daa565b84610e01565b6105c6576040517f08c379a00000000000000000000000000000000000000000000000000000000081526004016105bd90612a40565b60405180910390fd5b6105f4856105d389611237565b6105dc8a61128e565b846105e68c6112e8565b6105ef8d61133f565b611396565b506000610600836114ea565b90507f8c5261668696ce22758910d05bab8f186d6eb247ceac2af2e82c7dc17669b03660001b61064261063d60008461155590919063ffffffff16565b6115aa565b60001b14610685576040517f08c379a000000000000000000000000000000000000000000000000000000000815260040161067c90612ae0565b60405180910390fd5b60006106908461162d565b8060200190518101906106a39190612523565b9050809950505050505050505050919050565b80600390805190602001906106cc9291906121bc565b5050565b6106d8612242565b60006106eb6106e684611684565b6116b2565b9050604051806020016040528082815250915050919050565b60606107548260000151600881518110610747577f4e487b7100000000000000000000000000000000000000000000000000000000600052603260045260246000fd5b6020026020010151611813565b9050919050565b60006107ab826000015160028151811061079e577f4e487b7100000000000000000000000000000000000000000000000000000000600052603260045260246000fd5b60200260200101516115aa565b9050919050565b60606000604051806020016040528060008152509050600083511115610a57576000806107e06000866118f0565b60f81c905060018160ff1614806107fa575060038160ff16145b156109105760016002865161080f9190612dfd565b6108199190612e57565b67ffffffffffffffff811115610858577f4e487b7100000000000000000000000000000000000000000000000000000000600052604160045260246000fd5b6040519080825280601f01601f19166020018201604052801561088a5781602001600182028036833780820191505090505b509250600061089a6001876118f0565b905080846000815181106108d7577f4e487b7100000000000000000000000000000000000000000000000000000000600052603260045260246000fd5b60200101907effffffffffffffffffffffffffffffffffffffffffffffffffffffffffffff1916908160001a90535060019250506109a2565b600280865161091f9190612dfd565b6109299190612e57565b67ffffffffffffffff811115610968577f4e487b7100000000000000000000000000000000000000000000000000000000600052604160045260246000fd5b6040519080825280601f01601f19166020018201604052801561099a5781602001600182028036833780820191505090505b509250600091505b60008260ff1690505b8351811015610a53576109d860028460ff16836109c89190612e57565b6109d29190612bd4565b876118f0565b848281518110610a11577f4e487b7100000000000000000000000000000000000000000000000000000000600052603260045260246000fd5b60200101907effffffffffffffffffffffffffffffffffffffffffffffffffffffffffffff1916908160001a9053508080610a4b90612fb6565b9150506109ab565b5050505b80915050919050565b6000610ab08260000151600981518110610aa3577f4e487b7100000000000000000000000000000000000000000000000000000000600052603260045260246000fd5b60200260200101516115aa565b9050919050565b610abf612255565b610b0d8260000151600681518110610b00577f4e487b7100000000000000000000000000000000000000000000000000000000600052603260045260246000fd5b6020026020010151611813565b81602001819052506000610b248260200151611684565b9050610b2f816119d4565b15610b4a57610b3d816116b2565b8260000181905250610c10565b600082602001519050600060018251610b639190612e57565b67ffffffffffffffff811115610ba2577f4e487b7100000000000000000000000000000000000000000000000000000000600052604160045260246000fd5b6040519080825280601f01601f191660200182016040528015610bd45781602001600182028036833780820191505090505b509050600080836021019150826020019050610bf282828551611a22565b610c03610bfe84611684565b6116b2565b8660000181905250505050505b610c1983610a60565b82604001818152505050919050565b610c30612276565b6000610c808360000151600381518110610c73577f4e487b7100000000000000000000000000000000000000000000000000000000600052603260045260246000fd5b60200260200101516116b2565b836040015181518110610cbc577f4e487b7100000000000000000000000000000000000000000000000000000000600052603260045260246000fd5b602002602001015190506040518060400160405280828152602001610ce0836116b2565b815250915050919050565b6000610d3b8260200151600081518110610d2e577f4e487b7100000000000000000000000000000000000000000000000000000000600052603260045260246000fd5b6020026020010151611abf565b9050919050565b6000610d928260000151600581518110610d85577f4e487b7100000000000000000000000000000000000000000000000000000000600052603260045260246000fd5b60200260200101516115aa565b60001b9050919050565b606081602001519050919050565b6060610dfa8260000151600781518110610ded577f4e487b7100000000000000000000000000000000000000000000000000000000600052603260045260246000fd5b6020026020010151611813565b9050919050565b600080610e0d84611684565b90506000610e1a826116b2565b90506060806000869050600080610e308b6107b2565b9050600081511415610e4c57600097505050505050505061122f565b60005b8651811015611226578151831115610e725760009850505050505050505061122f565b610ebb878281518110610eae577f4e487b7100000000000000000000000000000000000000000000000000000000600052603260045260246000fd5b6020026020010151611ae2565b955085805190602001208414610edc5760009850505050505050505061122f565b610f25878281518110610f18577f4e487b7100000000000000000000000000000000000000000000000000000000600052603260045260246000fd5b60200260200101516116b2565b945060118551141561108a578151831415610fbb578c80519060200120610f8c86601081518110610f7f577f4e487b7100000000000000000000000000000000000000000000000000000000600052603260045260246000fd5b6020026020010151611813565b805190602001201415610faa5760019850505050505050505061122f565b60009850505050505050505061122f565b6000828481518110610ff6577f4e487b7100000000000000000000000000000000000000000000000000000000600052603260045260246000fd5b602001015160f81c60f81b60f81c905060108160ff161115611024576000995050505050505050505061122f565b611070868260ff1681518110611063577f4e487b7100000000000000000000000000000000000000000000000000000000600052603260045260246000fd5b6020026020010151611b98565b60001b94506001846110829190612bd4565b935050611213565b6002855114156112015760006110ea6110e3876000815181106110d6577f4e487b7100000000000000000000000000000000000000000000000000000000600052603260045260246000fd5b6020026020010151611813565b8486611bcf565b9050825181856110fa9190612bd4565b1415611183578d8051906020012061115287600181518110611145577f4e487b7100000000000000000000000000000000000000000000000000000000600052603260045260246000fd5b6020026020010151611813565b805190602001201415611171576001995050505050505050505061122f565b6000995050505050505050505061122f565b600081141561119e576000995050505050505050505061122f565b80846111aa9190612bd4565b93506111f6866001815181106111e9577f4e487b7100000000000000000000000000000000000000000000000000000000600052603260045260246000fd5b6020026020010151611b98565b60001b945050611212565b60009850505050505050505061122f565b5b808061121e90612fb6565b915050610e4f565b50505050505050505b949350505050565b6000611287826000015160038151811061127a577f4e487b7100000000000000000000000000000000000000000000000000000000600052603260045260246000fd5b60200260200101516115aa565b9050919050565b60006112de82600001516004815181106112d1577f4e487b7100000000000000000000000000000000000000000000000000000000600052603260045260246000fd5b60200260200101516115aa565b60001b9050919050565b6000611338826000015160008151811061132b577f4e487b7100000000000000000000000000000000000000000000000000000000600052603260045260246000fd5b60200260200101516115aa565b9050919050565b606061138f8260000151600181518110611382577f4e487b7100000000000000000000000000000000000000000000000000000000600052603260045260246000fd5b6020026020010151611813565b9050919050565b60008060008060008054906101000a900473ffffffffffffffffffffffffffffffffffffffff1673ffffffffffffffffffffffffffffffffffffffff166341539d4a876040518263ffffffff1660e01b81526004016113f59190612b20565b60a06040518083038186803b15801561140d57600080fd5b505afa158015611421573d6000803e3d6000fd5b505050506040513d601f19601f82011682018060405250810190611445919061246b565b509350509250925061149b828b61145c9190612e57565b84878d8d8d8d6040516020016114759493929190612944565b60405160208183030381529060405280519060200120611d77909392919063ffffffff16565b6114da576040517f08c379a00000000000000000000000000000000000000000000000000000000081526004016114d190612ac0565b60405180910390fd5b8093505050509695505050505050565b6114f2612296565b604051806020016040528061154b846020015160018151811061153e577f4e487b7100000000000000000000000000000000000000000000000000000000600052603260045260246000fd5b60200260200101516116b2565b8152509050919050565b61155d6122a9565b8260000151828151811061159a577f4e487b7100000000000000000000000000000000000000000000000000000000600052603260045260246000fd5b6020026020010151905092915050565b60008082600001511180156115c457506021826000015111155b6115cd57600080fd5b60006115dc8360200151611ee8565b905060008184600001516115f09190612e57565b90506000808386602001516116059190612bd4565b905080519150602083101561162157826020036101000a820491505b81945050505050919050565b606061167d8260200151600281518110611670577f4e487b7100000000000000000000000000000000000000000000000000000000600052603260045260246000fd5b6020026020010151611813565b9050919050565b61168c6122a9565b600060208301905060405180604001604052808451815260200182815250915050919050565b60606116bd826119d4565b6116c657600080fd5b60006116d183611fa7565b905060008167ffffffffffffffff811115611715577f4e487b7100000000000000000000000000000000000000000000000000000000600052604160045260246000fd5b60405190808252806020026020018201604052801561174e57816020015b61173b6122a9565b8152602001906001900390816117335790505b50905060006117608560200151611ee8565b856020015161176f9190612bd4565b9050600080600090505b848110156118065761178a83612035565b91506040518060400160405280838152602001848152508482815181106117da577f4e487b7100000000000000000000000000000000000000000000000000000000600052603260045260246000fd5b602002602001018190525081836117f19190612bd4565b925080806117fe90612fb6565b915050611779565b5082945050505050919050565b6060600082600001511161182657600080fd5b60006118358360200151611ee8565b905060008184600001516118499190612e57565b905060008167ffffffffffffffff81111561188d577f4e487b7100000000000000000000000000000000000000000000000000000000600052604160045260246000fd5b6040519080825280601f01601f1916602001820160405280156118bf5781602001600182028036833780820191505090505b50905060008160200190506118e48487602001516118dd9190612bd4565b8285612111565b81945050505050919050565b6000806002846119009190613013565b14611969576010826002856119159190612c2a565b8151811061194c577f4e487b7100000000000000000000000000000000000000000000000000000000600052603260045260246000fd5b602001015160f81c60f81b60f81c6119649190613044565b6119c9565b6010826002856119799190612c2a565b815181106119b0577f4e487b7100000000000000000000000000000000000000000000000000000000600052603260045260246000fd5b602001015160f81c60f81b60f81c6119c89190612c5b565b5b60f81b905092915050565b600080826000015114156119eb5760009050611a1d565b60008083602001519050805160001a915060c060ff168260ff161015611a1657600092505050611a1d565b6001925050505b919050565b6000811415611a3057611aba565b5b602060ff168110611a7b5782518252602060ff1683611a509190612bd4565b9250602060ff1682611a629190612bd4565b9150602060ff1681611a749190612e57565b9050611a31565b6000600182602060ff16611a8f9190612e57565b610100611a9c9190612cdf565b611aa69190612e57565b905080198451168184511681811785525050505b505050565b60006015826000015114611ad257600080fd5b611adb826115aa565b9050919050565b60606000826000015167ffffffffffffffff811115611b2a577f4e487b7100000000000000000000000000000000000000000000000000000000600052604160045260246000fd5b6040519080825280601f01601f191660200182016040528015611b5c5781602001600182028036833780820191505090505b509050600081511415611b725780915050611b93565b6000816020019050611b8d8460200151828660000151612111565b81925050505b919050565b60006021826000015114611bab57600080fd5b60008060018460200151611bbf9190612bd4565b9050805191508192505050919050565b600080600090506000611be1866107b2565b90506000815167ffffffffffffffff811115611c26577f4e487b7100000000000000000000000000000000000000000000000000000000600052604160045260246000fd5b6040519080825280601f01601f191660200182016040528015611c585781602001600182028036833780820191505090505b50905060008590505b825186611c6e9190612bd4565b811015611d45576000878281518110611cb0577f4e487b7100000000000000000000000000000000000000000000000000000000600052603260045260246000fd5b602001015160f81c60f81b905080838884611ccb9190612e57565b81518110611d02577f4e487b7100000000000000000000000000000000000000000000000000000000600052603260045260246000fd5b60200101907effffffffffffffffffffffffffffffffffffffffffffffffffffffffffffff1916908160001a905350508080611d3d90612fb6565b915050611c61565b50808051906020012082805190602001201415611d655781519250611d6a565b600092505b8293505050509392505050565b60008060208351611d889190613013565b14611dc8576040517f08c379a0000000000000000000000000000000000000000000000000000000008152600401611dbf90612a80565b60405180910390fd5b600060208351611dd89190612c2a565b9050806002611de79190612cdf565b8510611e28576040517f08c379a0000000000000000000000000000000000000000000000000000000008152600401611e1f90612aa0565b60405180910390fd5b6000808790506000602090505b85518111611ed7578086015192506000600289611e529190613013565b1415611e88578183604051602001611e6b9291906128df565b604051602081830303815290604052805190602001209150611eb4565b8282604051602001611e9b9291906128df565b6040516020818303038152906040528051906020012091505b600288611ec19190612c2a565b9750602081611ed09190612bd4565b9050611e35565b508581149350505050949350505050565b600080825160001a9050608060ff16811015611f08576000915050611fa2565b60b860ff16811080611f2d575060c060ff168110158015611f2c575060f860ff1681105b5b15611f3c576001915050611fa2565b60c060ff16811015611f775760018060b8611f579190612e8b565b60ff1682611f659190612e57565b611f6f9190612bd4565b915050611fa2565b60018060f8611f869190612e8b565b60ff1682611f949190612e57565b611f9e9190612bd4565b9150505b919050565b60008082600001511415611fbe5760009050612030565b600080611fce8460200151611ee8565b8460200151611fdd9190612bd4565b9050600084600001518560200151611ff59190612bd4565b90505b808210156120295761200982612035565b826120149190612bd4565b9150828061202190612fb6565b935050611ff8565b8293505050505b919050565b6000806000835160001a9050608060ff168110156120565760019150612107565b60b860ff16811015612085576001608060ff16826120749190612e57565b61207e9190612bd4565b9150612106565b60c060ff168110156120b55760b78103600185019450806020036101000a85510460018201810193505050612105565b60f860ff168110156120e457600160c060ff16826120d39190612e57565b6120dd9190612bd4565b9150612104565b60f78103600185019450806020036101000a855104600182018101935050505b5b5b5b8192505050919050565b600081141561211f576121b7565b5b602060ff16811061216a5782518252602060ff168361213f9190612bd4565b9250602060ff16826121519190612bd4565b9150602060ff16816121639190612e57565b9050612120565b6000811415612178576121b7565b6000600182602060ff1661218c9190612e57565b6101006121999190612cdf565b6121a39190612e57565b905080198451168184511681811785525050505b505050565b8280546121c890612f84565b90600052602060002090601f0160209004810192826121ea5760008555612231565b82601f1061220357805160ff1916838001178555612231565b82800160010185558215612231579182015b82811115612230578251825591602001919060010190612215565b5b50905061223e91906122c3565b5090565b6040518060200160405280606081525090565b60405180606001604052806060815260200160608152602001600081525090565b60405180604001604052806122896122a9565b8152602001606081525090565b6040518060200160405280606081525090565b604051806040016040528060008152602001600081525090565b5b808211156122dc5760008160009055506001016122c4565b5090565b60006122f36122ee84612b6c565b612b3b565b90508281526020810184848401111561230b57600080fd5b612316848285612f42565b509392505050565b600061233161232c84612b6c565b612b3b565b90508281526020810184848401111561234957600080fd5b612354848285612f51565b509392505050565b60008135905061236b8161314f565b92915050565b6000815190506123808161314f565b92915050565b60008135905061239581613166565b92915050565b6000815190506123aa81613166565b92915050565b600082601f8301126123c157600080fd5b81356123d18482602086016122e0565b91505092915050565b600082601f8301126123eb57600080fd5b81516123fb84826020860161231e565b91505092915050565b6000815190506124138161317d565b92915050565b60006020828403121561242b57600080fd5b60006124398482850161235c565b91505092915050565b60006020828403121561245457600080fd5b600061246284828501612386565b91505092915050565b600080600080600060a0868803121561248357600080fd5b60006124918882890161239b565b95505060206124a288828901612404565b94505060406124b388828901612404565b93505060606124c488828901612404565b92505060806124d588828901612371565b9150509295509295909350565b6000602082840312156124f457600080fd5b600082013567ffffffffffffffff81111561250e57600080fd5b61251a848285016123b0565b91505092915050565b60006020828403121561253557600080fd5b600082015167ffffffffffffffff81111561254f57600080fd5b61255b848285016123da565b91505092915050565b61256d81612ebf565b82525050565b61257c81612ed1565b82525050565b61258b81612edd565b82525050565b6125a261259d82612edd565b612fff565b82525050565b60006125b382612b9c565b6125bd8185612ba7565b93506125cd818560208601612f51565b6125d681613131565b840191505092915050565b60006125ec82612b9c565b6125f68185612bb8565b9350612606818560208601612f51565b80840191505092915050565b61261b81612f1e565b82525050565b600061262e602a83612bc3565b91507f467842617365526f6f7454756e6e656c3a204348494c445f54554e4e454c5f4160008301527f4c52454144595f534554000000000000000000000000000000000000000000006020830152604082019050919050565b6000612694602383612bc3565b91507f4678526f6f7454756e6e656c3a20494e56414c49445f524543454950545f505260008301527f4f4f4600000000000000000000000000000000000000000000000000000000006020830152604082019050919050565b60006126fa602483612bc3565b91507f4678526f6f7454756e6e656c3a20455849545f414c52454144595f50524f434560008301527f53534544000000000000000000000000000000000000000000000000000000006020830152604082019050919050565b6000612760601483612bc3565b91507f496e76616c69642070726f6f66206c656e6774680000000000000000000000006000830152602082019050919050565b60006127a0601583612bc3565b91507f4c65616620696e64657820697320746f6f2062696700000000000000000000006000830152602082019050919050565b60006127e0601c83612bc3565b91507f4678526f6f7454756e6e656c3a20494e56414c49445f484541444552000000006000830152602082019050919050565b6000612820601f83612bc3565b91507f4678526f6f7454756e6e656c3a20494e56414c49445f5349474e4154555245006000830152602082019050919050565b6000612860602583612bc3565b91507f4678526f6f7454756e6e656c3a20494e56414c49445f46585f4348494c445f5460008301527f554e4e454c0000000000000000000000000000000000000000000000000000006020830152604082019050919050565b6128c281612f07565b82525050565b6128d96128d482612f07565b613009565b82525050565b60006128eb8285612591565b6020820191506128fb8284612591565b6020820191508190509392505050565b600061291782866128c8565b60208201915061292782856125e1565b915061293382846128c8565b602082019150819050949350505050565b600061295082876128c8565b60208201915061296082866128c8565b6020820191506129708285612591565b6020820191506129808284612591565b60208201915081905095945050505050565b60006020820190506129a76000830184612564565b92915050565b60006020820190506129c26000830184612573565b92915050565b60006020820190506129dd6000830184612582565b92915050565b600060208201905081810360008301526129fd81846125a8565b905092915050565b6000602082019050612a1a6000830184612612565b92915050565b60006020820190508181036000830152612a3981612621565b9050919050565b60006020820190508181036000830152612a5981612687565b9050919050565b60006020820190508181036000830152612a79816126ed565b9050919050565b60006020820190508181036000830152612a9981612753565b9050919050565b60006020820190508181036000830152612ab981612793565b9050919050565b60006020820190508181036000830152612ad9816127d3565b9050919050565b60006020820190508181036000830152612af981612813565b9050919050565b60006020820190508181036000830152612b1981612853565b9050919050565b6000602082019050612b3560008301846128b9565b92915050565b6000604051905081810181811067ffffffffffffffff82111715612b6257612b61613102565b5b8060405250919050565b600067ffffffffffffffff821115612b8757612b86613102565b5b601f19601f8301169050602081019050919050565b600081519050919050565b600082825260208201905092915050565b600081905092915050565b600082825260208201905092915050565b6000612bdf82612f07565b9150612bea83612f07565b9250827fffffffffffffffffffffffffffffffffffffffffffffffffffffffffffffffff03821115612c1f57612c1e613075565b5b828201905092915050565b6000612c3582612f07565b9150612c4083612f07565b925082612c5057612c4f6130a4565b5b828204905092915050565b6000612c6682612f11565b9150612c7183612f11565b925082612c8157612c806130a4565b5b828204905092915050565b6000808291508390505b6001851115612cd657808604811115612cb257612cb1613075565b5b6001851615612cc15780820291505b8081029050612ccf85613142565b9450612c96565b94509492505050565b6000612cea82612f07565b9150612cf583612f07565b9250612d227fffffffffffffffffffffffffffffffffffffffffffffffffffffffffffffffff8484612d2a565b905092915050565b600082612d3a5760019050612df6565b81612d485760009050612df6565b8160018114612d5e5760028114612d6857612d97565b6001915050612df6565b60ff841115612d7a57612d79613075565b5b8360020a915084821115612d9157612d90613075565b5b50612df6565b5060208310610133831016604e8410600b8410161715612dcc5782820a905083811115612dc757612dc6613075565b5b612df6565b612dd98484846001612c8c565b92509050818404811115612df057612def613075565b5b81810290505b9392505050565b6000612e0882612f07565b9150612e1383612f07565b9250817fffffffffffffffffffffffffffffffffffffffffffffffffffffffffffffffff0483118215151615612e4c57612e4b613075565b5b828202905092915050565b6000612e6282612f07565b9150612e6d83612f07565b925082821015612e8057612e7f613075565b5b828203905092915050565b6000612e9682612f11565b9150612ea183612f11565b925082821015612eb457612eb3613075565b5b828203905092915050565b6000612eca82612ee7565b9050919050565b60008115159050919050565b6000819050919050565b600073ffffffffffffffffffffffffffffffffffffffff82169050919050565b6000819050919050565b600060ff82169050919050565b6000612f2982612f30565b9050919050565b6000612f3b82612ee7565b9050919050565b82818337600083830152505050565b60005b83811015612f6f578082015181840152602081019050612f54565b83811115612f7e576000848401525b50505050565b60006002820490506001821680612f9c57607f821691505b60208210811415612fb057612faf6130d3565b5b50919050565b6000612fc182612f07565b91507fffffffffffffffffffffffffffffffffffffffffffffffffffffffffffffffff821415612ff457612ff3613075565b5b600182019050919050565b6000819050919050565b6000819050919050565b600061301e82612f07565b915061302983612f07565b925082613039576130386130a4565b5b828206905092915050565b600061304f82612f11565b915061305a83612f11565b92508261306a576130696130a4565b5b828206905092915050565b7f4e487b7100000000000000000000000000000000000000000000000000000000600052601160045260246000fd5b7f4e487b7100000000000000000000000000000000000000000000000000000000600052601260045260246000fd5b7f4e487b7100000000000000000000000000000000000000000000000000000000600052602260045260246000fd5b7f4e487b7100000000000000000000000000000000000000000000000000000000600052604160045260246000fd5b6000601f19601f8301169050919050565b60008160011c9050919050565b61315881612ebf565b811461316357600080fd5b50565b61316f81612edd565b811461317a57600080fd5b50565b61318681612f07565b811461319157600080fd5b5056fea2646970667358221220531c40f92bf5563908a7e1beca88ba5849d091dad4e8261eac0dbc4a1b3cbbdd64736f6c63430008000033",
          "opcodes": "PUSH1 0x80 PUSH1 0x40 MSTORE CALLVALUE DUP1 ISZERO PUSH3 0x11 JUMPI PUSH1 0x0 DUP1 REVERT JUMPDEST POP PUSH1 0x40 MLOAD PUSH3 0x32EB CODESIZE SUB DUP1 PUSH3 0x32EB DUP4 CODECOPY DUP2 DUP2 ADD PUSH1 0x40 MSTORE DUP2 ADD SWAP1 PUSH3 0x37 SWAP2 SWAP1 PUSH3 0x97 JUMP JUMPDEST DUP1 DUP1 PUSH1 0x0 DUP1 PUSH2 0x100 EXP DUP2 SLOAD DUP2 PUSH20 0xFFFFFFFFFFFFFFFFFFFFFFFFFFFFFFFFFFFFFFFF MUL NOT AND SWAP1 DUP4 PUSH20 0xFFFFFFFFFFFFFFFFFFFFFFFFFFFFFFFFFFFFFFFF AND MUL OR SWAP1 SSTORE POP POP POP PUSH3 0x111 JUMP JUMPDEST PUSH1 0x0 DUP2 MLOAD SWAP1 POP PUSH3 0x91 DUP2 PUSH3 0xF7 JUMP JUMPDEST SWAP3 SWAP2 POP POP JUMP JUMPDEST PUSH1 0x0 PUSH1 0x20 DUP3 DUP5 SUB SLT ISZERO PUSH3 0xAA JUMPI PUSH1 0x0 DUP1 REVERT JUMPDEST PUSH1 0x0 PUSH3 0xBA DUP5 DUP3 DUP6 ADD PUSH3 0x80 JUMP JUMPDEST SWAP2 POP POP SWAP3 SWAP2 POP POP JUMP JUMPDEST PUSH1 0x0 PUSH3 0xD0 DUP3 PUSH3 0xD7 JUMP JUMPDEST SWAP1 POP SWAP2 SWAP1 POP JUMP JUMPDEST PUSH1 0x0 PUSH20 0xFFFFFFFFFFFFFFFFFFFFFFFFFFFFFFFFFFFFFFFF DUP3 AND SWAP1 POP SWAP2 SWAP1 POP JUMP JUMPDEST PUSH3 0x102 DUP2 PUSH3 0xC3 JUMP JUMPDEST DUP2 EQ PUSH3 0x10E JUMPI PUSH1 0x0 DUP1 REVERT JUMPDEST POP JUMP JUMPDEST PUSH2 0x31CA DUP1 PUSH3 0x121 PUSH1 0x0 CODECOPY PUSH1 0x0 RETURN INVALID PUSH1 0x80 PUSH1 0x40 MSTORE CALLVALUE DUP1 ISZERO PUSH2 0x10 JUMPI PUSH1 0x0 DUP1 REVERT JUMPDEST POP PUSH1 0x4 CALLDATASIZE LT PUSH2 0x88 JUMPI PUSH1 0x0 CALLDATALOAD PUSH1 0xE0 SHR DUP1 PUSH4 0x972C4928 GT PUSH2 0x5B JUMPI DUP1 PUSH4 0x972C4928 EQ PUSH2 0x115 JUMPI DUP1 PUSH4 0xAEA4E49E EQ PUSH2 0x133 JUMPI DUP1 PUSH4 0xC0857BA0 EQ PUSH2 0x14F JUMPI DUP1 PUSH4 0xF953CEC7 EQ PUSH2 0x16D JUMPI PUSH2 0x88 JUMP JUMPDEST DUP1 PUSH4 0xE387DE6 EQ PUSH2 0x8D JUMPI DUP1 PUSH4 0x142BC2AE EQ PUSH2 0xAB JUMPI DUP1 PUSH4 0x607F2D42 EQ PUSH2 0xC9 JUMPI DUP1 PUSH4 0x8A7115AF EQ PUSH2 0xF9 JUMPI JUMPDEST PUSH1 0x0 DUP1 REVERT JUMPDEST PUSH2 0x95 PUSH2 0x189 JUMP JUMPDEST PUSH1 0x40 MLOAD PUSH2 0xA2 SWAP2 SWAP1 PUSH2 0x29C8 JUMP JUMPDEST PUSH1 0x40 MLOAD DUP1 SWAP2 SUB SWAP1 RETURN JUMPDEST PUSH2 0xB3 PUSH2 0x1B0 JUMP JUMPDEST PUSH1 0x40 MLOAD PUSH2 0xC0 SWAP2 SWAP1 PUSH2 0x29E3 JUMP JUMPDEST PUSH1 0x40 MLOAD DUP1 SWAP2 SUB SWAP1 RETURN JUMPDEST PUSH2 0xE3 PUSH1 0x4 DUP1 CALLDATASIZE SUB DUP2 ADD SWAP1 PUSH2 0xDE SWAP2 SWAP1 PUSH2 0x2442 JUMP JUMPDEST PUSH2 0x23E JUMP JUMPDEST PUSH1 0x40 MLOAD PUSH2 0xF0 SWAP2 SWAP1 PUSH2 0x29AD JUMP JUMPDEST PUSH1 0x40 MLOAD DUP1 SWAP2 SUB SWAP1 RETURN JUMPDEST PUSH2 0x113 PUSH1 0x4 DUP1 CALLDATASIZE SUB DUP2 ADD SWAP1 PUSH2 0x10E SWAP2 SWAP1 PUSH2 0x24E2 JUMP JUMPDEST PUSH2 0x25E JUMP JUMPDEST STOP JUMPDEST PUSH2 0x11D PUSH2 0x278 JUMP JUMPDEST PUSH1 0x40 MLOAD PUSH2 0x12A SWAP2 SWAP1 PUSH2 0x2992 JUMP JUMPDEST PUSH1 0x40 MLOAD DUP1 SWAP2 SUB SWAP1 RETURN JUMPDEST PUSH2 0x14D PUSH1 0x4 DUP1 CALLDATASIZE SUB DUP2 ADD SWAP1 PUSH2 0x148 SWAP2 SWAP1 PUSH2 0x2419 JUMP JUMPDEST PUSH2 0x29E JUMP JUMPDEST STOP JUMPDEST PUSH2 0x157 PUSH2 0x373 JUMP JUMPDEST PUSH1 0x40 MLOAD PUSH2 0x164 SWAP2 SWAP1 PUSH2 0x2A05 JUMP JUMPDEST PUSH1 0x40 MLOAD DUP1 SWAP2 SUB SWAP1 RETURN JUMPDEST PUSH2 0x187 PUSH1 0x4 DUP1 CALLDATASIZE SUB DUP2 ADD SWAP1 PUSH2 0x182 SWAP2 SWAP1 PUSH2 0x24E2 JUMP JUMPDEST PUSH2 0x397 JUMP JUMPDEST STOP JUMPDEST PUSH32 0x8C5261668696CE22758910D05BAB8F186D6EB247CEAC2AF2E82C7DC17669B036 PUSH1 0x0 SHL DUP2 JUMP JUMPDEST PUSH1 0x3 DUP1 SLOAD PUSH2 0x1BD SWAP1 PUSH2 0x2F84 JUMP JUMPDEST DUP1 PUSH1 0x1F ADD PUSH1 0x20 DUP1 SWAP2 DIV MUL PUSH1 0x20 ADD PUSH1 0x40 MLOAD SWAP1 DUP2 ADD PUSH1 0x40 MSTORE DUP1 SWAP3 SWAP2 SWAP1 DUP2 DUP2 MSTORE PUSH1 0x20 ADD DUP3 DUP1 SLOAD PUSH2 0x1E9 SWAP1 PUSH2 0x2F84 JUMP JUMPDEST DUP1 ISZERO PUSH2 0x236 JUMPI DUP1 PUSH1 0x1F LT PUSH2 0x20B JUMPI PUSH2 0x100 DUP1 DUP4 SLOAD DIV MUL DUP4 MSTORE SWAP2 PUSH1 0x20 ADD SWAP2 PUSH2 0x236 JUMP JUMPDEST DUP3 ADD SWAP2 SWAP1 PUSH1 0x0 MSTORE PUSH1 0x20 PUSH1 0x0 KECCAK256 SWAP1 JUMPDEST DUP2 SLOAD DUP2 MSTORE SWAP1 PUSH1 0x1 ADD SWAP1 PUSH1 0x20 ADD DUP1 DUP4 GT PUSH2 0x219 JUMPI DUP3 SWAP1 SUB PUSH1 0x1F AND DUP3 ADD SWAP2 JUMPDEST POP POP POP POP POP DUP2 JUMP JUMPDEST PUSH1 0x2 PUSH1 0x20 MSTORE DUP1 PUSH1 0x0 MSTORE PUSH1 0x40 PUSH1 0x0 KECCAK256 PUSH1 0x0 SWAP2 POP SLOAD SWAP1 PUSH2 0x100 EXP SWAP1 DIV PUSH1 0xFF AND DUP2 JUMP JUMPDEST DUP1 PUSH1 0x3 SWAP1 DUP1 MLOAD SWAP1 PUSH1 0x20 ADD SWAP1 PUSH2 0x274 SWAP3 SWAP2 SWAP1 PUSH2 0x21BC JUMP JUMPDEST POP POP JUMP JUMPDEST PUSH1 0x1 PUSH1 0x0 SWAP1 SLOAD SWAP1 PUSH2 0x100 EXP SWAP1 DIV PUSH20 0xFFFFFFFFFFFFFFFFFFFFFFFFFFFFFFFFFFFFFFFF AND DUP2 JUMP JUMPDEST PUSH1 0x0 PUSH20 0xFFFFFFFFFFFFFFFFFFFFFFFFFFFFFFFFFFFFFFFF AND PUSH1 0x1 PUSH1 0x0 SWAP1 SLOAD SWAP1 PUSH2 0x100 EXP SWAP1 DIV PUSH20 0xFFFFFFFFFFFFFFFFFFFFFFFFFFFFFFFFFFFFFFFF AND PUSH20 0xFFFFFFFFFFFFFFFFFFFFFFFFFFFFFFFFFFFFFFFF AND EQ PUSH2 0x32F JUMPI PUSH1 0x40 MLOAD PUSH32 0x8C379A000000000000000000000000000000000000000000000000000000000 DUP2 MSTORE PUSH1 0x4 ADD PUSH2 0x326 SWAP1 PUSH2 0x2A20 JUMP JUMPDEST PUSH1 0x40 MLOAD DUP1 SWAP2 SUB SWAP1 REVERT JUMPDEST DUP1 PUSH1 0x1 PUSH1 0x0 PUSH2 0x100 EXP DUP2 SLOAD DUP2 PUSH20 0xFFFFFFFFFFFFFFFFFFFFFFFFFFFFFFFFFFFFFFFF MUL NOT AND SWAP1 DUP4 PUSH20 0xFFFFFFFFFFFFFFFFFFFFFFFFFFFFFFFFFFFFFFFF AND MUL OR SWAP1 SSTORE POP POP JUMP JUMPDEST PUSH1 0x0 DUP1 SLOAD SWAP1 PUSH2 0x100 EXP SWAP1 DIV PUSH20 0xFFFFFFFFFFFFFFFFFFFFFFFFFFFFFFFFFFFFFFFF AND DUP2 JUMP JUMPDEST PUSH1 0x0 PUSH2 0x3A2 DUP3 PUSH2 0x3B1 JUMP JUMPDEST SWAP1 POP PUSH2 0x3AD DUP2 PUSH2 0x6B6 JUMP JUMPDEST POP POP JUMP JUMPDEST PUSH1 0x60 PUSH1 0x0 PUSH2 0x3BE DUP4 PUSH2 0x6D0 JUMP JUMPDEST SWAP1 POP PUSH1 0x0 PUSH2 0x3CB DUP3 PUSH2 0x704 JUMP JUMPDEST SWAP1 POP PUSH1 0x0 PUSH2 0x3D8 DUP4 PUSH2 0x75B JUMP JUMPDEST SWAP1 POP PUSH1 0x0 DUP2 PUSH2 0x3E6 DUP5 PUSH2 0x7B2 JUMP JUMPDEST PUSH2 0x3EF DUP7 PUSH2 0xA60 JUMP JUMPDEST PUSH1 0x40 MLOAD PUSH1 0x20 ADD PUSH2 0x401 SWAP4 SWAP3 SWAP2 SWAP1 PUSH2 0x290B JUMP JUMPDEST PUSH1 0x40 MLOAD PUSH1 0x20 DUP2 DUP4 SUB SUB DUP2 MSTORE SWAP1 PUSH1 0x40 MSTORE DUP1 MLOAD SWAP1 PUSH1 0x20 ADD KECCAK256 SWAP1 POP PUSH1 0x0 ISZERO ISZERO PUSH1 0x2 PUSH1 0x0 DUP4 DUP2 MSTORE PUSH1 0x20 ADD SWAP1 DUP2 MSTORE PUSH1 0x20 ADD PUSH1 0x0 KECCAK256 PUSH1 0x0 SWAP1 SLOAD SWAP1 PUSH2 0x100 EXP SWAP1 DIV PUSH1 0xFF AND ISZERO ISZERO EQ PUSH2 0x480 JUMPI PUSH1 0x40 MLOAD PUSH32 0x8C379A000000000000000000000000000000000000000000000000000000000 DUP2 MSTORE PUSH1 0x4 ADD PUSH2 0x477 SWAP1 PUSH2 0x2A60 JUMP JUMPDEST PUSH1 0x40 MLOAD DUP1 SWAP2 SUB SWAP1 REVERT JUMPDEST PUSH1 0x1 PUSH1 0x2 PUSH1 0x0 DUP4 DUP2 MSTORE PUSH1 0x20 ADD SWAP1 DUP2 MSTORE PUSH1 0x20 ADD PUSH1 0x0 KECCAK256 PUSH1 0x0 PUSH2 0x100 EXP DUP2 SLOAD DUP2 PUSH1 0xFF MUL NOT AND SWAP1 DUP4 ISZERO ISZERO MUL OR SWAP1 SSTORE POP PUSH1 0x0 PUSH2 0x4B7 DUP6 PUSH2 0xAB7 JUMP JUMPDEST SWAP1 POP PUSH1 0x0 PUSH2 0x4C4 DUP3 PUSH2 0xC28 JUMP JUMPDEST SWAP1 POP PUSH2 0x4CF DUP2 PUSH2 0xCEB JUMP JUMPDEST PUSH20 0xFFFFFFFFFFFFFFFFFFFFFFFFFFFFFFFFFFFFFFFF AND PUSH1 0x1 PUSH1 0x0 SWAP1 SLOAD SWAP1 PUSH2 0x100 EXP SWAP1 DIV PUSH20 0xFFFFFFFFFFFFFFFFFFFFFFFFFFFFFFFFFFFFFFFF AND PUSH20 0xFFFFFFFFFFFFFFFFFFFFFFFFFFFFFFFFFFFFFFFF AND EQ PUSH2 0x55E JUMPI PUSH1 0x40 MLOAD PUSH32 0x8C379A000000000000000000000000000000000000000000000000000000000 DUP2 MSTORE PUSH1 0x4 ADD PUSH2 0x555 SWAP1 PUSH2 0x2B00 JUMP JUMPDEST PUSH1 0x40 MLOAD DUP1 SWAP2 SUB SWAP1 REVERT JUMPDEST PUSH1 0x0 PUSH2 0x569 DUP8 PUSH2 0xD42 JUMP JUMPDEST SWAP1 POP PUSH2 0x587 PUSH2 0x577 DUP5 PUSH2 0xD9C JUMP JUMPDEST DUP8 PUSH2 0x581 DUP11 PUSH2 0xDAA JUMP JUMPDEST DUP5 PUSH2 0xE01 JUMP JUMPDEST PUSH2 0x5C6 JUMPI PUSH1 0x40 MLOAD PUSH32 0x8C379A000000000000000000000000000000000000000000000000000000000 DUP2 MSTORE PUSH1 0x4 ADD PUSH2 0x5BD SWAP1 PUSH2 0x2A40 JUMP JUMPDEST PUSH1 0x40 MLOAD DUP1 SWAP2 SUB SWAP1 REVERT JUMPDEST PUSH2 0x5F4 DUP6 PUSH2 0x5D3 DUP10 PUSH2 0x1237 JUMP JUMPDEST PUSH2 0x5DC DUP11 PUSH2 0x128E JUMP JUMPDEST DUP5 PUSH2 0x5E6 DUP13 PUSH2 0x12E8 JUMP JUMPDEST PUSH2 0x5EF DUP14 PUSH2 0x133F JUMP JUMPDEST PUSH2 0x1396 JUMP JUMPDEST POP PUSH1 0x0 PUSH2 0x600 DUP4 PUSH2 0x14EA JUMP JUMPDEST SWAP1 POP PUSH32 0x8C5261668696CE22758910D05BAB8F186D6EB247CEAC2AF2E82C7DC17669B036 PUSH1 0x0 SHL PUSH2 0x642 PUSH2 0x63D PUSH1 0x0 DUP5 PUSH2 0x1555 SWAP1 SWAP2 SWAP1 PUSH4 0xFFFFFFFF AND JUMP JUMPDEST PUSH2 0x15AA JUMP JUMPDEST PUSH1 0x0 SHL EQ PUSH2 0x685 JUMPI PUSH1 0x40 MLOAD PUSH32 0x8C379A000000000000000000000000000000000000000000000000000000000 DUP2 MSTORE PUSH1 0x4 ADD PUSH2 0x67C SWAP1 PUSH2 0x2AE0 JUMP JUMPDEST PUSH1 0x40 MLOAD DUP1 SWAP2 SUB SWAP1 REVERT JUMPDEST PUSH1 0x0 PUSH2 0x690 DUP5 PUSH2 0x162D JUMP JUMPDEST DUP1 PUSH1 0x20 ADD SWAP1 MLOAD DUP2 ADD SWAP1 PUSH2 0x6A3 SWAP2 SWAP1 PUSH2 0x2523 JUMP JUMPDEST SWAP1 POP DUP1 SWAP10 POP POP POP POP POP POP POP POP POP POP SWAP2 SWAP1 POP JUMP JUMPDEST DUP1 PUSH1 0x3 SWAP1 DUP1 MLOAD SWAP1 PUSH1 0x20 ADD SWAP1 PUSH2 0x6CC SWAP3 SWAP2 SWAP1 PUSH2 0x21BC JUMP JUMPDEST POP POP JUMP JUMPDEST PUSH2 0x6D8 PUSH2 0x2242 JUMP JUMPDEST PUSH1 0x0 PUSH2 0x6EB PUSH2 0x6E6 DUP5 PUSH2 0x1684 JUMP JUMPDEST PUSH2 0x16B2 JUMP JUMPDEST SWAP1 POP PUSH1 0x40 MLOAD DUP1 PUSH1 0x20 ADD PUSH1 0x40 MSTORE DUP1 DUP3 DUP2 MSTORE POP SWAP2 POP POP SWAP2 SWAP1 POP JUMP JUMPDEST PUSH1 0x60 PUSH2 0x754 DUP3 PUSH1 0x0 ADD MLOAD PUSH1 0x8 DUP2 MLOAD DUP2 LT PUSH2 0x747 JUMPI PUSH32 0x4E487B7100000000000000000000000000000000000000000000000000000000 PUSH1 0x0 MSTORE PUSH1 0x32 PUSH1 0x4 MSTORE PUSH1 0x24 PUSH1 0x0 REVERT JUMPDEST PUSH1 0x20 MUL PUSH1 0x20 ADD ADD MLOAD PUSH2 0x1813 JUMP JUMPDEST SWAP1 POP SWAP2 SWAP1 POP JUMP JUMPDEST PUSH1 0x0 PUSH2 0x7AB DUP3 PUSH1 0x0 ADD MLOAD PUSH1 0x2 DUP2 MLOAD DUP2 LT PUSH2 0x79E JUMPI PUSH32 0x4E487B7100000000000000000000000000000000000000000000000000000000 PUSH1 0x0 MSTORE PUSH1 0x32 PUSH1 0x4 MSTORE PUSH1 0x24 PUSH1 0x0 REVERT JUMPDEST PUSH1 0x20 MUL PUSH1 0x20 ADD ADD MLOAD PUSH2 0x15AA JUMP JUMPDEST SWAP1 POP SWAP2 SWAP1 POP JUMP JUMPDEST PUSH1 0x60 PUSH1 0x0 PUSH1 0x40 MLOAD DUP1 PUSH1 0x20 ADD PUSH1 0x40 MSTORE DUP1 PUSH1 0x0 DUP2 MSTORE POP SWAP1 POP PUSH1 0x0 DUP4 MLOAD GT ISZERO PUSH2 0xA57 JUMPI PUSH1 0x0 DUP1 PUSH2 0x7E0 PUSH1 0x0 DUP7 PUSH2 0x18F0 JUMP JUMPDEST PUSH1 0xF8 SHR SWAP1 POP PUSH1 0x1 DUP2 PUSH1 0xFF AND EQ DUP1 PUSH2 0x7FA JUMPI POP PUSH1 0x3 DUP2 PUSH1 0xFF AND EQ JUMPDEST ISZERO PUSH2 0x910 JUMPI PUSH1 0x1 PUSH1 0x2 DUP7 MLOAD PUSH2 0x80F SWAP2 SWAP1 PUSH2 0x2DFD JUMP JUMPDEST PUSH2 0x819 SWAP2 SWAP1 PUSH2 0x2E57 JUMP JUMPDEST PUSH8 0xFFFFFFFFFFFFFFFF DUP2 GT ISZERO PUSH2 0x858 JUMPI PUSH32 0x4E487B7100000000000000000000000000000000000000000000000000000000 PUSH1 0x0 MSTORE PUSH1 0x41 PUSH1 0x4 MSTORE PUSH1 0x24 PUSH1 0x0 REVERT JUMPDEST PUSH1 0x40 MLOAD SWAP1 DUP1 DUP3 MSTORE DUP1 PUSH1 0x1F ADD PUSH1 0x1F NOT AND PUSH1 0x20 ADD DUP3 ADD PUSH1 0x40 MSTORE DUP1 ISZERO PUSH2 0x88A JUMPI DUP2 PUSH1 0x20 ADD PUSH1 0x1 DUP3 MUL DUP1 CALLDATASIZE DUP4 CALLDATACOPY DUP1 DUP3 ADD SWAP2 POP POP SWAP1 POP JUMPDEST POP SWAP3 POP PUSH1 0x0 PUSH2 0x89A PUSH1 0x1 DUP8 PUSH2 0x18F0 JUMP JUMPDEST SWAP1 POP DUP1 DUP5 PUSH1 0x0 DUP2 MLOAD DUP2 LT PUSH2 0x8D7 JUMPI PUSH32 0x4E487B7100000000000000000000000000000000000000000000000000000000 PUSH1 0x0 MSTORE PUSH1 0x32 PUSH1 0x4 MSTORE PUSH1 0x24 PUSH1 0x0 REVERT JUMPDEST PUSH1 0x20 ADD ADD SWAP1 PUSH31 0xFFFFFFFFFFFFFFFFFFFFFFFFFFFFFFFFFFFFFFFFFFFFFFFFFFFFFFFFFFFFFF NOT AND SWAP1 DUP2 PUSH1 0x0 BYTE SWAP1 MSTORE8 POP PUSH1 0x1 SWAP3 POP POP PUSH2 0x9A2 JUMP JUMPDEST PUSH1 0x2 DUP1 DUP7 MLOAD PUSH2 0x91F SWAP2 SWAP1 PUSH2 0x2DFD JUMP JUMPDEST PUSH2 0x929 SWAP2 SWAP1 PUSH2 0x2E57 JUMP JUMPDEST PUSH8 0xFFFFFFFFFFFFFFFF DUP2 GT ISZERO PUSH2 0x968 JUMPI PUSH32 0x4E487B7100000000000000000000000000000000000000000000000000000000 PUSH1 0x0 MSTORE PUSH1 0x41 PUSH1 0x4 MSTORE PUSH1 0x24 PUSH1 0x0 REVERT JUMPDEST PUSH1 0x40 MLOAD SWAP1 DUP1 DUP3 MSTORE DUP1 PUSH1 0x1F ADD PUSH1 0x1F NOT AND PUSH1 0x20 ADD DUP3 ADD PUSH1 0x40 MSTORE DUP1 ISZERO PUSH2 0x99A JUMPI DUP2 PUSH1 0x20 ADD PUSH1 0x1 DUP3 MUL DUP1 CALLDATASIZE DUP4 CALLDATACOPY DUP1 DUP3 ADD SWAP2 POP POP SWAP1 POP JUMPDEST POP SWAP3 POP PUSH1 0x0 SWAP2 POP JUMPDEST PUSH1 0x0 DUP3 PUSH1 0xFF AND SWAP1 POP JUMPDEST DUP4 MLOAD DUP2 LT ISZERO PUSH2 0xA53 JUMPI PUSH2 0x9D8 PUSH1 0x2 DUP5 PUSH1 0xFF AND DUP4 PUSH2 0x9C8 SWAP2 SWAP1 PUSH2 0x2E57 JUMP JUMPDEST PUSH2 0x9D2 SWAP2 SWAP1 PUSH2 0x2BD4 JUMP JUMPDEST DUP8 PUSH2 0x18F0 JUMP JUMPDEST DUP5 DUP3 DUP2 MLOAD DUP2 LT PUSH2 0xA11 JUMPI PUSH32 0x4E487B7100000000000000000000000000000000000000000000000000000000 PUSH1 0x0 MSTORE PUSH1 0x32 PUSH1 0x4 MSTORE PUSH1 0x24 PUSH1 0x0 REVERT JUMPDEST PUSH1 0x20 ADD ADD SWAP1 PUSH31 0xFFFFFFFFFFFFFFFFFFFFFFFFFFFFFFFFFFFFFFFFFFFFFFFFFFFFFFFFFFFFFF NOT AND SWAP1 DUP2 PUSH1 0x0 BYTE SWAP1 MSTORE8 POP DUP1 DUP1 PUSH2 0xA4B SWAP1 PUSH2 0x2FB6 JUMP JUMPDEST SWAP2 POP POP PUSH2 0x9AB JUMP JUMPDEST POP POP POP JUMPDEST DUP1 SWAP2 POP POP SWAP2 SWAP1 POP JUMP JUMPDEST PUSH1 0x0 PUSH2 0xAB0 DUP3 PUSH1 0x0 ADD MLOAD PUSH1 0x9 DUP2 MLOAD DUP2 LT PUSH2 0xAA3 JUMPI PUSH32 0x4E487B7100000000000000000000000000000000000000000000000000000000 PUSH1 0x0 MSTORE PUSH1 0x32 PUSH1 0x4 MSTORE PUSH1 0x24 PUSH1 0x0 REVERT JUMPDEST PUSH1 0x20 MUL PUSH1 0x20 ADD ADD MLOAD PUSH2 0x15AA JUMP JUMPDEST SWAP1 POP SWAP2 SWAP1 POP JUMP JUMPDEST PUSH2 0xABF PUSH2 0x2255 JUMP JUMPDEST PUSH2 0xB0D DUP3 PUSH1 0x0 ADD MLOAD PUSH1 0x6 DUP2 MLOAD DUP2 LT PUSH2 0xB00 JUMPI PUSH32 0x4E487B7100000000000000000000000000000000000000000000000000000000 PUSH1 0x0 MSTORE PUSH1 0x32 PUSH1 0x4 MSTORE PUSH1 0x24 PUSH1 0x0 REVERT JUMPDEST PUSH1 0x20 MUL PUSH1 0x20 ADD ADD MLOAD PUSH2 0x1813 JUMP JUMPDEST DUP2 PUSH1 0x20 ADD DUP2 SWAP1 MSTORE POP PUSH1 0x0 PUSH2 0xB24 DUP3 PUSH1 0x20 ADD MLOAD PUSH2 0x1684 JUMP JUMPDEST SWAP1 POP PUSH2 0xB2F DUP2 PUSH2 0x19D4 JUMP JUMPDEST ISZERO PUSH2 0xB4A JUMPI PUSH2 0xB3D DUP2 PUSH2 0x16B2 JUMP JUMPDEST DUP3 PUSH1 0x0 ADD DUP2 SWAP1 MSTORE POP PUSH2 0xC10 JUMP JUMPDEST PUSH1 0x0 DUP3 PUSH1 0x20 ADD MLOAD SWAP1 POP PUSH1 0x0 PUSH1 0x1 DUP3 MLOAD PUSH2 0xB63 SWAP2 SWAP1 PUSH2 0x2E57 JUMP JUMPDEST PUSH8 0xFFFFFFFFFFFFFFFF DUP2 GT ISZERO PUSH2 0xBA2 JUMPI PUSH32 0x4E487B7100000000000000000000000000000000000000000000000000000000 PUSH1 0x0 MSTORE PUSH1 0x41 PUSH1 0x4 MSTORE PUSH1 0x24 PUSH1 0x0 REVERT JUMPDEST PUSH1 0x40 MLOAD SWAP1 DUP1 DUP3 MSTORE DUP1 PUSH1 0x1F ADD PUSH1 0x1F NOT AND PUSH1 0x20 ADD DUP3 ADD PUSH1 0x40 MSTORE DUP1 ISZERO PUSH2 0xBD4 JUMPI DUP2 PUSH1 0x20 ADD PUSH1 0x1 DUP3 MUL DUP1 CALLDATASIZE DUP4 CALLDATACOPY DUP1 DUP3 ADD SWAP2 POP POP SWAP1 POP JUMPDEST POP SWAP1 POP PUSH1 0x0 DUP1 DUP4 PUSH1 0x21 ADD SWAP2 POP DUP3 PUSH1 0x20 ADD SWAP1 POP PUSH2 0xBF2 DUP3 DUP3 DUP6 MLOAD PUSH2 0x1A22 JUMP JUMPDEST PUSH2 0xC03 PUSH2 0xBFE DUP5 PUSH2 0x1684 JUMP JUMPDEST PUSH2 0x16B2 JUMP JUMPDEST DUP7 PUSH1 0x0 ADD DUP2 SWAP1 MSTORE POP POP POP POP POP JUMPDEST PUSH2 0xC19 DUP4 PUSH2 0xA60 JUMP JUMPDEST DUP3 PUSH1 0x40 ADD DUP2 DUP2 MSTORE POP POP POP SWAP2 SWAP1 POP JUMP JUMPDEST PUSH2 0xC30 PUSH2 0x2276 JUMP JUMPDEST PUSH1 0x0 PUSH2 0xC80 DUP4 PUSH1 0x0 ADD MLOAD PUSH1 0x3 DUP2 MLOAD DUP2 LT PUSH2 0xC73 JUMPI PUSH32 0x4E487B7100000000000000000000000000000000000000000000000000000000 PUSH1 0x0 MSTORE PUSH1 0x32 PUSH1 0x4 MSTORE PUSH1 0x24 PUSH1 0x0 REVERT JUMPDEST PUSH1 0x20 MUL PUSH1 0x20 ADD ADD MLOAD PUSH2 0x16B2 JUMP JUMPDEST DUP4 PUSH1 0x40 ADD MLOAD DUP2 MLOAD DUP2 LT PUSH2 0xCBC JUMPI PUSH32 0x4E487B7100000000000000000000000000000000000000000000000000000000 PUSH1 0x0 MSTORE PUSH1 0x32 PUSH1 0x4 MSTORE PUSH1 0x24 PUSH1 0x0 REVERT JUMPDEST PUSH1 0x20 MUL PUSH1 0x20 ADD ADD MLOAD SWAP1 POP PUSH1 0x40 MLOAD DUP1 PUSH1 0x40 ADD PUSH1 0x40 MSTORE DUP1 DUP3 DUP2 MSTORE PUSH1 0x20 ADD PUSH2 0xCE0 DUP4 PUSH2 0x16B2 JUMP JUMPDEST DUP2 MSTORE POP SWAP2 POP POP SWAP2 SWAP1 POP JUMP JUMPDEST PUSH1 0x0 PUSH2 0xD3B DUP3 PUSH1 0x20 ADD MLOAD PUSH1 0x0 DUP2 MLOAD DUP2 LT PUSH2 0xD2E JUMPI PUSH32 0x4E487B7100000000000000000000000000000000000000000000000000000000 PUSH1 0x0 MSTORE PUSH1 0x32 PUSH1 0x4 MSTORE PUSH1 0x24 PUSH1 0x0 REVERT JUMPDEST PUSH1 0x20 MUL PUSH1 0x20 ADD ADD MLOAD PUSH2 0x1ABF JUMP JUMPDEST SWAP1 POP SWAP2 SWAP1 POP JUMP JUMPDEST PUSH1 0x0 PUSH2 0xD92 DUP3 PUSH1 0x0 ADD MLOAD PUSH1 0x5 DUP2 MLOAD DUP2 LT PUSH2 0xD85 JUMPI PUSH32 0x4E487B7100000000000000000000000000000000000000000000000000000000 PUSH1 0x0 MSTORE PUSH1 0x32 PUSH1 0x4 MSTORE PUSH1 0x24 PUSH1 0x0 REVERT JUMPDEST PUSH1 0x20 MUL PUSH1 0x20 ADD ADD MLOAD PUSH2 0x15AA JUMP JUMPDEST PUSH1 0x0 SHL SWAP1 POP SWAP2 SWAP1 POP JUMP JUMPDEST PUSH1 0x60 DUP2 PUSH1 0x20 ADD MLOAD SWAP1 POP SWAP2 SWAP1 POP JUMP JUMPDEST PUSH1 0x60 PUSH2 0xDFA DUP3 PUSH1 0x0 ADD MLOAD PUSH1 0x7 DUP2 MLOAD DUP2 LT PUSH2 0xDED JUMPI PUSH32 0x4E487B7100000000000000000000000000000000000000000000000000000000 PUSH1 0x0 MSTORE PUSH1 0x32 PUSH1 0x4 MSTORE PUSH1 0x24 PUSH1 0x0 REVERT JUMPDEST PUSH1 0x20 MUL PUSH1 0x20 ADD ADD MLOAD PUSH2 0x1813 JUMP JUMPDEST SWAP1 POP SWAP2 SWAP1 POP JUMP JUMPDEST PUSH1 0x0 DUP1 PUSH2 0xE0D DUP5 PUSH2 0x1684 JUMP JUMPDEST SWAP1 POP PUSH1 0x0 PUSH2 0xE1A DUP3 PUSH2 0x16B2 JUMP JUMPDEST SWAP1 POP PUSH1 0x60 DUP1 PUSH1 0x0 DUP7 SWAP1 POP PUSH1 0x0 DUP1 PUSH2 0xE30 DUP12 PUSH2 0x7B2 JUMP JUMPDEST SWAP1 POP PUSH1 0x0 DUP2 MLOAD EQ ISZERO PUSH2 0xE4C JUMPI PUSH1 0x0 SWAP8 POP POP POP POP POP POP POP POP PUSH2 0x122F JUMP JUMPDEST PUSH1 0x0 JUMPDEST DUP7 MLOAD DUP2 LT ISZERO PUSH2 0x1226 JUMPI DUP2 MLOAD DUP4 GT ISZERO PUSH2 0xE72 JUMPI PUSH1 0x0 SWAP9 POP POP POP POP POP POP POP POP POP PUSH2 0x122F JUMP JUMPDEST PUSH2 0xEBB DUP8 DUP3 DUP2 MLOAD DUP2 LT PUSH2 0xEAE JUMPI PUSH32 0x4E487B7100000000000000000000000000000000000000000000000000000000 PUSH1 0x0 MSTORE PUSH1 0x32 PUSH1 0x4 MSTORE PUSH1 0x24 PUSH1 0x0 REVERT JUMPDEST PUSH1 0x20 MUL PUSH1 0x20 ADD ADD MLOAD PUSH2 0x1AE2 JUMP JUMPDEST SWAP6 POP DUP6 DUP1 MLOAD SWAP1 PUSH1 0x20 ADD KECCAK256 DUP5 EQ PUSH2 0xEDC JUMPI PUSH1 0x0 SWAP9 POP POP POP POP POP POP POP POP POP PUSH2 0x122F JUMP JUMPDEST PUSH2 0xF25 DUP8 DUP3 DUP2 MLOAD DUP2 LT PUSH2 0xF18 JUMPI PUSH32 0x4E487B7100000000000000000000000000000000000000000000000000000000 PUSH1 0x0 MSTORE PUSH1 0x32 PUSH1 0x4 MSTORE PUSH1 0x24 PUSH1 0x0 REVERT JUMPDEST PUSH1 0x20 MUL PUSH1 0x20 ADD ADD MLOAD PUSH2 0x16B2 JUMP JUMPDEST SWAP5 POP PUSH1 0x11 DUP6 MLOAD EQ ISZERO PUSH2 0x108A JUMPI DUP2 MLOAD DUP4 EQ ISZERO PUSH2 0xFBB JUMPI DUP13 DUP1 MLOAD SWAP1 PUSH1 0x20 ADD KECCAK256 PUSH2 0xF8C DUP7 PUSH1 0x10 DUP2 MLOAD DUP2 LT PUSH2 0xF7F JUMPI PUSH32 0x4E487B7100000000000000000000000000000000000000000000000000000000 PUSH1 0x0 MSTORE PUSH1 0x32 PUSH1 0x4 MSTORE PUSH1 0x24 PUSH1 0x0 REVERT JUMPDEST PUSH1 0x20 MUL PUSH1 0x20 ADD ADD MLOAD PUSH2 0x1813 JUMP JUMPDEST DUP1 MLOAD SWAP1 PUSH1 0x20 ADD KECCAK256 EQ ISZERO PUSH2 0xFAA JUMPI PUSH1 0x1 SWAP9 POP POP POP POP POP POP POP POP POP PUSH2 0x122F JUMP JUMPDEST PUSH1 0x0 SWAP9 POP POP POP POP POP POP POP POP POP PUSH2 0x122F JUMP JUMPDEST PUSH1 0x0 DUP3 DUP5 DUP2 MLOAD DUP2 LT PUSH2 0xFF6 JUMPI PUSH32 0x4E487B7100000000000000000000000000000000000000000000000000000000 PUSH1 0x0 MSTORE PUSH1 0x32 PUSH1 0x4 MSTORE PUSH1 0x24 PUSH1 0x0 REVERT JUMPDEST PUSH1 0x20 ADD ADD MLOAD PUSH1 0xF8 SHR PUSH1 0xF8 SHL PUSH1 0xF8 SHR SWAP1 POP PUSH1 0x10 DUP2 PUSH1 0xFF AND GT ISZERO PUSH2 0x1024 JUMPI PUSH1 0x0 SWAP10 POP POP POP POP POP POP POP POP POP POP PUSH2 0x122F JUMP JUMPDEST PUSH2 0x1070 DUP7 DUP3 PUSH1 0xFF AND DUP2 MLOAD DUP2 LT PUSH2 0x1063 JUMPI PUSH32 0x4E487B7100000000000000000000000000000000000000000000000000000000 PUSH1 0x0 MSTORE PUSH1 0x32 PUSH1 0x4 MSTORE PUSH1 0x24 PUSH1 0x0 REVERT JUMPDEST PUSH1 0x20 MUL PUSH1 0x20 ADD ADD MLOAD PUSH2 0x1B98 JUMP JUMPDEST PUSH1 0x0 SHL SWAP5 POP PUSH1 0x1 DUP5 PUSH2 0x1082 SWAP2 SWAP1 PUSH2 0x2BD4 JUMP JUMPDEST SWAP4 POP POP PUSH2 0x1213 JUMP JUMPDEST PUSH1 0x2 DUP6 MLOAD EQ ISZERO PUSH2 0x1201 JUMPI PUSH1 0x0 PUSH2 0x10EA PUSH2 0x10E3 DUP8 PUSH1 0x0 DUP2 MLOAD DUP2 LT PUSH2 0x10D6 JUMPI PUSH32 0x4E487B7100000000000000000000000000000000000000000000000000000000 PUSH1 0x0 MSTORE PUSH1 0x32 PUSH1 0x4 MSTORE PUSH1 0x24 PUSH1 0x0 REVERT JUMPDEST PUSH1 0x20 MUL PUSH1 0x20 ADD ADD MLOAD PUSH2 0x1813 JUMP JUMPDEST DUP5 DUP7 PUSH2 0x1BCF JUMP JUMPDEST SWAP1 POP DUP3 MLOAD DUP2 DUP6 PUSH2 0x10FA SWAP2 SWAP1 PUSH2 0x2BD4 JUMP JUMPDEST EQ ISZERO PUSH2 0x1183 JUMPI DUP14 DUP1 MLOAD SWAP1 PUSH1 0x20 ADD KECCAK256 PUSH2 0x1152 DUP8 PUSH1 0x1 DUP2 MLOAD DUP2 LT PUSH2 0x1145 JUMPI PUSH32 0x4E487B7100000000000000000000000000000000000000000000000000000000 PUSH1 0x0 MSTORE PUSH1 0x32 PUSH1 0x4 MSTORE PUSH1 0x24 PUSH1 0x0 REVERT JUMPDEST PUSH1 0x20 MUL PUSH1 0x20 ADD ADD MLOAD PUSH2 0x1813 JUMP JUMPDEST DUP1 MLOAD SWAP1 PUSH1 0x20 ADD KECCAK256 EQ ISZERO PUSH2 0x1171 JUMPI PUSH1 0x1 SWAP10 POP POP POP POP POP POP POP POP POP POP PUSH2 0x122F JUMP JUMPDEST PUSH1 0x0 SWAP10 POP POP POP POP POP POP POP POP POP POP PUSH2 0x122F JUMP JUMPDEST PUSH1 0x0 DUP2 EQ ISZERO PUSH2 0x119E JUMPI PUSH1 0x0 SWAP10 POP POP POP POP POP POP POP POP POP POP PUSH2 0x122F JUMP JUMPDEST DUP1 DUP5 PUSH2 0x11AA SWAP2 SWAP1 PUSH2 0x2BD4 JUMP JUMPDEST SWAP4 POP PUSH2 0x11F6 DUP7 PUSH1 0x1 DUP2 MLOAD DUP2 LT PUSH2 0x11E9 JUMPI PUSH32 0x4E487B7100000000000000000000000000000000000000000000000000000000 PUSH1 0x0 MSTORE PUSH1 0x32 PUSH1 0x4 MSTORE PUSH1 0x24 PUSH1 0x0 REVERT JUMPDEST PUSH1 0x20 MUL PUSH1 0x20 ADD ADD MLOAD PUSH2 0x1B98 JUMP JUMPDEST PUSH1 0x0 SHL SWAP5 POP POP PUSH2 0x1212 JUMP JUMPDEST PUSH1 0x0 SWAP9 POP POP POP POP POP POP POP POP POP PUSH2 0x122F JUMP JUMPDEST JUMPDEST DUP1 DUP1 PUSH2 0x121E SWAP1 PUSH2 0x2FB6 JUMP JUMPDEST SWAP2 POP POP PUSH2 0xE4F JUMP JUMPDEST POP POP POP POP POP POP POP POP JUMPDEST SWAP5 SWAP4 POP POP POP POP JUMP JUMPDEST PUSH1 0x0 PUSH2 0x1287 DUP3 PUSH1 0x0 ADD MLOAD PUSH1 0x3 DUP2 MLOAD DUP2 LT PUSH2 0x127A JUMPI PUSH32 0x4E487B7100000000000000000000000000000000000000000000000000000000 PUSH1 0x0 MSTORE PUSH1 0x32 PUSH1 0x4 MSTORE PUSH1 0x24 PUSH1 0x0 REVERT JUMPDEST PUSH1 0x20 MUL PUSH1 0x20 ADD ADD MLOAD PUSH2 0x15AA JUMP JUMPDEST SWAP1 POP SWAP2 SWAP1 POP JUMP JUMPDEST PUSH1 0x0 PUSH2 0x12DE DUP3 PUSH1 0x0 ADD MLOAD PUSH1 0x4 DUP2 MLOAD DUP2 LT PUSH2 0x12D1 JUMPI PUSH32 0x4E487B7100000000000000000000000000000000000000000000000000000000 PUSH1 0x0 MSTORE PUSH1 0x32 PUSH1 0x4 MSTORE PUSH1 0x24 PUSH1 0x0 REVERT JUMPDEST PUSH1 0x20 MUL PUSH1 0x20 ADD ADD MLOAD PUSH2 0x15AA JUMP JUMPDEST PUSH1 0x0 SHL SWAP1 POP SWAP2 SWAP1 POP JUMP JUMPDEST PUSH1 0x0 PUSH2 0x1338 DUP3 PUSH1 0x0 ADD MLOAD PUSH1 0x0 DUP2 MLOAD DUP2 LT PUSH2 0x132B JUMPI PUSH32 0x4E487B7100000000000000000000000000000000000000000000000000000000 PUSH1 0x0 MSTORE PUSH1 0x32 PUSH1 0x4 MSTORE PUSH1 0x24 PUSH1 0x0 REVERT JUMPDEST PUSH1 0x20 MUL PUSH1 0x20 ADD ADD MLOAD PUSH2 0x15AA JUMP JUMPDEST SWAP1 POP SWAP2 SWAP1 POP JUMP JUMPDEST PUSH1 0x60 PUSH2 0x138F DUP3 PUSH1 0x0 ADD MLOAD PUSH1 0x1 DUP2 MLOAD DUP2 LT PUSH2 0x1382 JUMPI PUSH32 0x4E487B7100000000000000000000000000000000000000000000000000000000 PUSH1 0x0 MSTORE PUSH1 0x32 PUSH1 0x4 MSTORE PUSH1 0x24 PUSH1 0x0 REVERT JUMPDEST PUSH1 0x20 MUL PUSH1 0x20 ADD ADD MLOAD PUSH2 0x1813 JUMP JUMPDEST SWAP1 POP SWAP2 SWAP1 POP JUMP JUMPDEST PUSH1 0x0 DUP1 PUSH1 0x0 DUP1 PUSH1 0x0 DUP1 SLOAD SWAP1 PUSH2 0x100 EXP SWAP1 DIV PUSH20 0xFFFFFFFFFFFFFFFFFFFFFFFFFFFFFFFFFFFFFFFF AND PUSH20 0xFFFFFFFFFFFFFFFFFFFFFFFFFFFFFFFFFFFFFFFF AND PUSH4 0x41539D4A DUP8 PUSH1 0x40 MLOAD DUP3 PUSH4 0xFFFFFFFF AND PUSH1 0xE0 SHL DUP2 MSTORE PUSH1 0x4 ADD PUSH2 0x13F5 SWAP2 SWAP1 PUSH2 0x2B20 JUMP JUMPDEST PUSH1 0xA0 PUSH1 0x40 MLOAD DUP1 DUP4 SUB DUP2 DUP7 DUP1 EXTCODESIZE ISZERO DUP1 ISZERO PUSH2 0x140D JUMPI PUSH1 0x0 DUP1 REVERT JUMPDEST POP GAS STATICCALL ISZERO DUP1 ISZERO PUSH2 0x1421 JUMPI RETURNDATASIZE PUSH1 0x0 DUP1 RETURNDATACOPY RETURNDATASIZE PUSH1 0x0 REVERT JUMPDEST POP POP POP POP PUSH1 0x40 MLOAD RETURNDATASIZE PUSH1 0x1F NOT PUSH1 0x1F DUP3 ADD AND DUP3 ADD DUP1 PUSH1 0x40 MSTORE POP DUP2 ADD SWAP1 PUSH2 0x1445 SWAP2 SWAP1 PUSH2 0x246B JUMP JUMPDEST POP SWAP4 POP POP SWAP3 POP SWAP3 POP PUSH2 0x149B DUP3 DUP12 PUSH2 0x145C SWAP2 SWAP1 PUSH2 0x2E57 JUMP JUMPDEST DUP5 DUP8 DUP14 DUP14 DUP14 DUP14 PUSH1 0x40 MLOAD PUSH1 0x20 ADD PUSH2 0x1475 SWAP5 SWAP4 SWAP3 SWAP2 SWAP1 PUSH2 0x2944 JUMP JUMPDEST PUSH1 0x40 MLOAD PUSH1 0x20 DUP2 DUP4 SUB SUB DUP2 MSTORE SWAP1 PUSH1 0x40 MSTORE DUP1 MLOAD SWAP1 PUSH1 0x20 ADD KECCAK256 PUSH2 0x1D77 SWAP1 SWAP4 SWAP3 SWAP2 SWAP1 PUSH4 0xFFFFFFFF AND JUMP JUMPDEST PUSH2 0x14DA JUMPI PUSH1 0x40 MLOAD PUSH32 0x8C379A000000000000000000000000000000000000000000000000000000000 DUP2 MSTORE PUSH1 0x4 ADD PUSH2 0x14D1 SWAP1 PUSH2 0x2AC0 JUMP JUMPDEST PUSH1 0x40 MLOAD DUP1 SWAP2 SUB SWAP1 REVERT JUMPDEST DUP1 SWAP4 POP POP POP POP SWAP7 SWAP6 POP POP POP POP POP POP JUMP JUMPDEST PUSH2 0x14F2 PUSH2 0x2296 JUMP JUMPDEST PUSH1 0x40 MLOAD DUP1 PUSH1 0x20 ADD PUSH1 0x40 MSTORE DUP1 PUSH2 0x154B DUP5 PUSH1 0x20 ADD MLOAD PUSH1 0x1 DUP2 MLOAD DUP2 LT PUSH2 0x153E JUMPI PUSH32 0x4E487B7100000000000000000000000000000000000000000000000000000000 PUSH1 0x0 MSTORE PUSH1 0x32 PUSH1 0x4 MSTORE PUSH1 0x24 PUSH1 0x0 REVERT JUMPDEST PUSH1 0x20 MUL PUSH1 0x20 ADD ADD MLOAD PUSH2 0x16B2 JUMP JUMPDEST DUP2 MSTORE POP SWAP1 POP SWAP2 SWAP1 POP JUMP JUMPDEST PUSH2 0x155D PUSH2 0x22A9 JUMP JUMPDEST DUP3 PUSH1 0x0 ADD MLOAD DUP3 DUP2 MLOAD DUP2 LT PUSH2 0x159A JUMPI PUSH32 0x4E487B7100000000000000000000000000000000000000000000000000000000 PUSH1 0x0 MSTORE PUSH1 0x32 PUSH1 0x4 MSTORE PUSH1 0x24 PUSH1 0x0 REVERT JUMPDEST PUSH1 0x20 MUL PUSH1 0x20 ADD ADD MLOAD SWAP1 POP SWAP3 SWAP2 POP POP JUMP JUMPDEST PUSH1 0x0 DUP1 DUP3 PUSH1 0x0 ADD MLOAD GT DUP1 ISZERO PUSH2 0x15C4 JUMPI POP PUSH1 0x21 DUP3 PUSH1 0x0 ADD MLOAD GT ISZERO JUMPDEST PUSH2 0x15CD JUMPI PUSH1 0x0 DUP1 REVERT JUMPDEST PUSH1 0x0 PUSH2 0x15DC DUP4 PUSH1 0x20 ADD MLOAD PUSH2 0x1EE8 JUMP JUMPDEST SWAP1 POP PUSH1 0x0 DUP2 DUP5 PUSH1 0x0 ADD MLOAD PUSH2 0x15F0 SWAP2 SWAP1 PUSH2 0x2E57 JUMP JUMPDEST SWAP1 POP PUSH1 0x0 DUP1 DUP4 DUP7 PUSH1 0x20 ADD MLOAD PUSH2 0x1605 SWAP2 SWAP1 PUSH2 0x2BD4 JUMP JUMPDEST SWAP1 POP DUP1 MLOAD SWAP2 POP PUSH1 0x20 DUP4 LT ISZERO PUSH2 0x1621 JUMPI DUP3 PUSH1 0x20 SUB PUSH2 0x100 EXP DUP3 DIV SWAP2 POP JUMPDEST DUP2 SWAP5 POP POP POP POP POP SWAP2 SWAP1 POP JUMP JUMPDEST PUSH1 0x60 PUSH2 0x167D DUP3 PUSH1 0x20 ADD MLOAD PUSH1 0x2 DUP2 MLOAD DUP2 LT PUSH2 0x1670 JUMPI PUSH32 0x4E487B7100000000000000000000000000000000000000000000000000000000 PUSH1 0x0 MSTORE PUSH1 0x32 PUSH1 0x4 MSTORE PUSH1 0x24 PUSH1 0x0 REVERT JUMPDEST PUSH1 0x20 MUL PUSH1 0x20 ADD ADD MLOAD PUSH2 0x1813 JUMP JUMPDEST SWAP1 POP SWAP2 SWAP1 POP JUMP JUMPDEST PUSH2 0x168C PUSH2 0x22A9 JUMP JUMPDEST PUSH1 0x0 PUSH1 0x20 DUP4 ADD SWAP1 POP PUSH1 0x40 MLOAD DUP1 PUSH1 0x40 ADD PUSH1 0x40 MSTORE DUP1 DUP5 MLOAD DUP2 MSTORE PUSH1 0x20 ADD DUP3 DUP2 MSTORE POP SWAP2 POP POP SWAP2 SWAP1 POP JUMP JUMPDEST PUSH1 0x60 PUSH2 0x16BD DUP3 PUSH2 0x19D4 JUMP JUMPDEST PUSH2 0x16C6 JUMPI PUSH1 0x0 DUP1 REVERT JUMPDEST PUSH1 0x0 PUSH2 0x16D1 DUP4 PUSH2 0x1FA7 JUMP JUMPDEST SWAP1 POP PUSH1 0x0 DUP2 PUSH8 0xFFFFFFFFFFFFFFFF DUP2 GT ISZERO PUSH2 0x1715 JUMPI PUSH32 0x4E487B7100000000000000000000000000000000000000000000000000000000 PUSH1 0x0 MSTORE PUSH1 0x41 PUSH1 0x4 MSTORE PUSH1 0x24 PUSH1 0x0 REVERT JUMPDEST PUSH1 0x40 MLOAD SWAP1 DUP1 DUP3 MSTORE DUP1 PUSH1 0x20 MUL PUSH1 0x20 ADD DUP3 ADD PUSH1 0x40 MSTORE DUP1 ISZERO PUSH2 0x174E JUMPI DUP2 PUSH1 0x20 ADD JUMPDEST PUSH2 0x173B PUSH2 0x22A9 JUMP JUMPDEST DUP2 MSTORE PUSH1 0x20 ADD SWAP1 PUSH1 0x1 SWAP1 SUB SWAP1 DUP2 PUSH2 0x1733 JUMPI SWAP1 POP JUMPDEST POP SWAP1 POP PUSH1 0x0 PUSH2 0x1760 DUP6 PUSH1 0x20 ADD MLOAD PUSH2 0x1EE8 JUMP JUMPDEST DUP6 PUSH1 0x20 ADD MLOAD PUSH2 0x176F SWAP2 SWAP1 PUSH2 0x2BD4 JUMP JUMPDEST SWAP1 POP PUSH1 0x0 DUP1 PUSH1 0x0 SWAP1 POP JUMPDEST DUP5 DUP2 LT ISZERO PUSH2 0x1806 JUMPI PUSH2 0x178A DUP4 PUSH2 0x2035 JUMP JUMPDEST SWAP2 POP PUSH1 0x40 MLOAD DUP1 PUSH1 0x40 ADD PUSH1 0x40 MSTORE DUP1 DUP4 DUP2 MSTORE PUSH1 0x20 ADD DUP5 DUP2 MSTORE POP DUP5 DUP3 DUP2 MLOAD DUP2 LT PUSH2 0x17DA JUMPI PUSH32 0x4E487B7100000000000000000000000000000000000000000000000000000000 PUSH1 0x0 MSTORE PUSH1 0x32 PUSH1 0x4 MSTORE PUSH1 0x24 PUSH1 0x0 REVERT JUMPDEST PUSH1 0x20 MUL PUSH1 0x20 ADD ADD DUP2 SWAP1 MSTORE POP DUP2 DUP4 PUSH2 0x17F1 SWAP2 SWAP1 PUSH2 0x2BD4 JUMP JUMPDEST SWAP3 POP DUP1 DUP1 PUSH2 0x17FE SWAP1 PUSH2 0x2FB6 JUMP JUMPDEST SWAP2 POP POP PUSH2 0x1779 JUMP JUMPDEST POP DUP3 SWAP5 POP POP POP POP POP SWAP2 SWAP1 POP JUMP JUMPDEST PUSH1 0x60 PUSH1 0x0 DUP3 PUSH1 0x0 ADD MLOAD GT PUSH2 0x1826 JUMPI PUSH1 0x0 DUP1 REVERT JUMPDEST PUSH1 0x0 PUSH2 0x1835 DUP4 PUSH1 0x20 ADD MLOAD PUSH2 0x1EE8 JUMP JUMPDEST SWAP1 POP PUSH1 0x0 DUP2 DUP5 PUSH1 0x0 ADD MLOAD PUSH2 0x1849 SWAP2 SWAP1 PUSH2 0x2E57 JUMP JUMPDEST SWAP1 POP PUSH1 0x0 DUP2 PUSH8 0xFFFFFFFFFFFFFFFF DUP2 GT ISZERO PUSH2 0x188D JUMPI PUSH32 0x4E487B7100000000000000000000000000000000000000000000000000000000 PUSH1 0x0 MSTORE PUSH1 0x41 PUSH1 0x4 MSTORE PUSH1 0x24 PUSH1 0x0 REVERT JUMPDEST PUSH1 0x40 MLOAD SWAP1 DUP1 DUP3 MSTORE DUP1 PUSH1 0x1F ADD PUSH1 0x1F NOT AND PUSH1 0x20 ADD DUP3 ADD PUSH1 0x40 MSTORE DUP1 ISZERO PUSH2 0x18BF JUMPI DUP2 PUSH1 0x20 ADD PUSH1 0x1 DUP3 MUL DUP1 CALLDATASIZE DUP4 CALLDATACOPY DUP1 DUP3 ADD SWAP2 POP POP SWAP1 POP JUMPDEST POP SWAP1 POP PUSH1 0x0 DUP2 PUSH1 0x20 ADD SWAP1 POP PUSH2 0x18E4 DUP5 DUP8 PUSH1 0x20 ADD MLOAD PUSH2 0x18DD SWAP2 SWAP1 PUSH2 0x2BD4 JUMP JUMPDEST DUP3 DUP6 PUSH2 0x2111 JUMP JUMPDEST DUP2 SWAP5 POP POP POP POP POP SWAP2 SWAP1 POP JUMP JUMPDEST PUSH1 0x0 DUP1 PUSH1 0x2 DUP5 PUSH2 0x1900 SWAP2 SWAP1 PUSH2 0x3013 JUMP JUMPDEST EQ PUSH2 0x1969 JUMPI PUSH1 0x10 DUP3 PUSH1 0x2 DUP6 PUSH2 0x1915 SWAP2 SWAP1 PUSH2 0x2C2A JUMP JUMPDEST DUP2 MLOAD DUP2 LT PUSH2 0x194C JUMPI PUSH32 0x4E487B7100000000000000000000000000000000000000000000000000000000 PUSH1 0x0 MSTORE PUSH1 0x32 PUSH1 0x4 MSTORE PUSH1 0x24 PUSH1 0x0 REVERT JUMPDEST PUSH1 0x20 ADD ADD MLOAD PUSH1 0xF8 SHR PUSH1 0xF8 SHL PUSH1 0xF8 SHR PUSH2 0x1964 SWAP2 SWAP1 PUSH2 0x3044 JUMP JUMPDEST PUSH2 0x19C9 JUMP JUMPDEST PUSH1 0x10 DUP3 PUSH1 0x2 DUP6 PUSH2 0x1979 SWAP2 SWAP1 PUSH2 0x2C2A JUMP JUMPDEST DUP2 MLOAD DUP2 LT PUSH2 0x19B0 JUMPI PUSH32 0x4E487B7100000000000000000000000000000000000000000000000000000000 PUSH1 0x0 MSTORE PUSH1 0x32 PUSH1 0x4 MSTORE PUSH1 0x24 PUSH1 0x0 REVERT JUMPDEST PUSH1 0x20 ADD ADD MLOAD PUSH1 0xF8 SHR PUSH1 0xF8 SHL PUSH1 0xF8 SHR PUSH2 0x19C8 SWAP2 SWAP1 PUSH2 0x2C5B JUMP JUMPDEST JUMPDEST PUSH1 0xF8 SHL SWAP1 POP SWAP3 SWAP2 POP POP JUMP JUMPDEST PUSH1 0x0 DUP1 DUP3 PUSH1 0x0 ADD MLOAD EQ ISZERO PUSH2 0x19EB JUMPI PUSH1 0x0 SWAP1 POP PUSH2 0x1A1D JUMP JUMPDEST PUSH1 0x0 DUP1 DUP4 PUSH1 0x20 ADD MLOAD SWAP1 POP DUP1 MLOAD PUSH1 0x0 BYTE SWAP2 POP PUSH1 0xC0 PUSH1 0xFF AND DUP3 PUSH1 0xFF AND LT ISZERO PUSH2 0x1A16 JUMPI PUSH1 0x0 SWAP3 POP POP POP PUSH2 0x1A1D JUMP JUMPDEST PUSH1 0x1 SWAP3 POP POP POP JUMPDEST SWAP2 SWAP1 POP JUMP JUMPDEST PUSH1 0x0 DUP2 EQ ISZERO PUSH2 0x1A30 JUMPI PUSH2 0x1ABA JUMP JUMPDEST JUMPDEST PUSH1 0x20 PUSH1 0xFF AND DUP2 LT PUSH2 0x1A7B JUMPI DUP3 MLOAD DUP3 MSTORE PUSH1 0x20 PUSH1 0xFF AND DUP4 PUSH2 0x1A50 SWAP2 SWAP1 PUSH2 0x2BD4 JUMP JUMPDEST SWAP3 POP PUSH1 0x20 PUSH1 0xFF AND DUP3 PUSH2 0x1A62 SWAP2 SWAP1 PUSH2 0x2BD4 JUMP JUMPDEST SWAP2 POP PUSH1 0x20 PUSH1 0xFF AND DUP2 PUSH2 0x1A74 SWAP2 SWAP1 PUSH2 0x2E57 JUMP JUMPDEST SWAP1 POP PUSH2 0x1A31 JUMP JUMPDEST PUSH1 0x0 PUSH1 0x1 DUP3 PUSH1 0x20 PUSH1 0xFF AND PUSH2 0x1A8F SWAP2 SWAP1 PUSH2 0x2E57 JUMP JUMPDEST PUSH2 0x100 PUSH2 0x1A9C SWAP2 SWAP1 PUSH2 0x2CDF JUMP JUMPDEST PUSH2 0x1AA6 SWAP2 SWAP1 PUSH2 0x2E57 JUMP JUMPDEST SWAP1 POP DUP1 NOT DUP5 MLOAD AND DUP2 DUP5 MLOAD AND DUP2 DUP2 OR DUP6 MSTORE POP POP POP JUMPDEST POP POP POP JUMP JUMPDEST PUSH1 0x0 PUSH1 0x15 DUP3 PUSH1 0x0 ADD MLOAD EQ PUSH2 0x1AD2 JUMPI PUSH1 0x0 DUP1 REVERT JUMPDEST PUSH2 0x1ADB DUP3 PUSH2 0x15AA JUMP JUMPDEST SWAP1 POP SWAP2 SWAP1 POP JUMP JUMPDEST PUSH1 0x60 PUSH1 0x0 DUP3 PUSH1 0x0 ADD MLOAD PUSH8 0xFFFFFFFFFFFFFFFF DUP2 GT ISZERO PUSH2 0x1B2A JUMPI PUSH32 0x4E487B7100000000000000000000000000000000000000000000000000000000 PUSH1 0x0 MSTORE PUSH1 0x41 PUSH1 0x4 MSTORE PUSH1 0x24 PUSH1 0x0 REVERT JUMPDEST PUSH1 0x40 MLOAD SWAP1 DUP1 DUP3 MSTORE DUP1 PUSH1 0x1F ADD PUSH1 0x1F NOT AND PUSH1 0x20 ADD DUP3 ADD PUSH1 0x40 MSTORE DUP1 ISZERO PUSH2 0x1B5C JUMPI DUP2 PUSH1 0x20 ADD PUSH1 0x1 DUP3 MUL DUP1 CALLDATASIZE DUP4 CALLDATACOPY DUP1 DUP3 ADD SWAP2 POP POP SWAP1 POP JUMPDEST POP SWAP1 POP PUSH1 0x0 DUP2 MLOAD EQ ISZERO PUSH2 0x1B72 JUMPI DUP1 SWAP2 POP POP PUSH2 0x1B93 JUMP JUMPDEST PUSH1 0x0 DUP2 PUSH1 0x20 ADD SWAP1 POP PUSH2 0x1B8D DUP5 PUSH1 0x20 ADD MLOAD DUP3 DUP7 PUSH1 0x0 ADD MLOAD PUSH2 0x2111 JUMP JUMPDEST DUP2 SWAP3 POP POP POP JUMPDEST SWAP2 SWAP1 POP JUMP JUMPDEST PUSH1 0x0 PUSH1 0x21 DUP3 PUSH1 0x0 ADD MLOAD EQ PUSH2 0x1BAB JUMPI PUSH1 0x0 DUP1 REVERT JUMPDEST PUSH1 0x0 DUP1 PUSH1 0x1 DUP5 PUSH1 0x20 ADD MLOAD PUSH2 0x1BBF SWAP2 SWAP1 PUSH2 0x2BD4 JUMP JUMPDEST SWAP1 POP DUP1 MLOAD SWAP2 POP DUP2 SWAP3 POP POP POP SWAP2 SWAP1 POP JUMP JUMPDEST PUSH1 0x0 DUP1 PUSH1 0x0 SWAP1 POP PUSH1 0x0 PUSH2 0x1BE1 DUP7 PUSH2 0x7B2 JUMP JUMPDEST SWAP1 POP PUSH1 0x0 DUP2 MLOAD PUSH8 0xFFFFFFFFFFFFFFFF DUP2 GT ISZERO PUSH2 0x1C26 JUMPI PUSH32 0x4E487B7100000000000000000000000000000000000000000000000000000000 PUSH1 0x0 MSTORE PUSH1 0x41 PUSH1 0x4 MSTORE PUSH1 0x24 PUSH1 0x0 REVERT JUMPDEST PUSH1 0x40 MLOAD SWAP1 DUP1 DUP3 MSTORE DUP1 PUSH1 0x1F ADD PUSH1 0x1F NOT AND PUSH1 0x20 ADD DUP3 ADD PUSH1 0x40 MSTORE DUP1 ISZERO PUSH2 0x1C58 JUMPI DUP2 PUSH1 0x20 ADD PUSH1 0x1 DUP3 MUL DUP1 CALLDATASIZE DUP4 CALLDATACOPY DUP1 DUP3 ADD SWAP2 POP POP SWAP1 POP JUMPDEST POP SWAP1 POP PUSH1 0x0 DUP6 SWAP1 POP JUMPDEST DUP3 MLOAD DUP7 PUSH2 0x1C6E SWAP2 SWAP1 PUSH2 0x2BD4 JUMP JUMPDEST DUP2 LT ISZERO PUSH2 0x1D45 JUMPI PUSH1 0x0 DUP8 DUP3 DUP2 MLOAD DUP2 LT PUSH2 0x1CB0 JUMPI PUSH32 0x4E487B7100000000000000000000000000000000000000000000000000000000 PUSH1 0x0 MSTORE PUSH1 0x32 PUSH1 0x4 MSTORE PUSH1 0x24 PUSH1 0x0 REVERT JUMPDEST PUSH1 0x20 ADD ADD MLOAD PUSH1 0xF8 SHR PUSH1 0xF8 SHL SWAP1 POP DUP1 DUP4 DUP9 DUP5 PUSH2 0x1CCB SWAP2 SWAP1 PUSH2 0x2E57 JUMP JUMPDEST DUP2 MLOAD DUP2 LT PUSH2 0x1D02 JUMPI PUSH32 0x4E487B7100000000000000000000000000000000000000000000000000000000 PUSH1 0x0 MSTORE PUSH1 0x32 PUSH1 0x4 MSTORE PUSH1 0x24 PUSH1 0x0 REVERT JUMPDEST PUSH1 0x20 ADD ADD SWAP1 PUSH31 0xFFFFFFFFFFFFFFFFFFFFFFFFFFFFFFFFFFFFFFFFFFFFFFFFFFFFFFFFFFFFFF NOT AND SWAP1 DUP2 PUSH1 0x0 BYTE SWAP1 MSTORE8 POP POP DUP1 DUP1 PUSH2 0x1D3D SWAP1 PUSH2 0x2FB6 JUMP JUMPDEST SWAP2 POP POP PUSH2 0x1C61 JUMP JUMPDEST POP DUP1 DUP1 MLOAD SWAP1 PUSH1 0x20 ADD KECCAK256 DUP3 DUP1 MLOAD SWAP1 PUSH1 0x20 ADD KECCAK256 EQ ISZERO PUSH2 0x1D65 JUMPI DUP2 MLOAD SWAP3 POP PUSH2 0x1D6A JUMP JUMPDEST PUSH1 0x0 SWAP3 POP JUMPDEST DUP3 SWAP4 POP POP POP POP SWAP4 SWAP3 POP POP POP JUMP JUMPDEST PUSH1 0x0 DUP1 PUSH1 0x20 DUP4 MLOAD PUSH2 0x1D88 SWAP2 SWAP1 PUSH2 0x3013 JUMP JUMPDEST EQ PUSH2 0x1DC8 JUMPI PUSH1 0x40 MLOAD PUSH32 0x8C379A000000000000000000000000000000000000000000000000000000000 DUP2 MSTORE PUSH1 0x4 ADD PUSH2 0x1DBF SWAP1 PUSH2 0x2A80 JUMP JUMPDEST PUSH1 0x40 MLOAD DUP1 SWAP2 SUB SWAP1 REVERT JUMPDEST PUSH1 0x0 PUSH1 0x20 DUP4 MLOAD PUSH2 0x1DD8 SWAP2 SWAP1 PUSH2 0x2C2A JUMP JUMPDEST SWAP1 POP DUP1 PUSH1 0x2 PUSH2 0x1DE7 SWAP2 SWAP1 PUSH2 0x2CDF JUMP JUMPDEST DUP6 LT PUSH2 0x1E28 JUMPI PUSH1 0x40 MLOAD PUSH32 0x8C379A000000000000000000000000000000000000000000000000000000000 DUP2 MSTORE PUSH1 0x4 ADD PUSH2 0x1E1F SWAP1 PUSH2 0x2AA0 JUMP JUMPDEST PUSH1 0x40 MLOAD DUP1 SWAP2 SUB SWAP1 REVERT JUMPDEST PUSH1 0x0 DUP1 DUP8 SWAP1 POP PUSH1 0x0 PUSH1 0x20 SWAP1 POP JUMPDEST DUP6 MLOAD DUP2 GT PUSH2 0x1ED7 JUMPI DUP1 DUP7 ADD MLOAD SWAP3 POP PUSH1 0x0 PUSH1 0x2 DUP10 PUSH2 0x1E52 SWAP2 SWAP1 PUSH2 0x3013 JUMP JUMPDEST EQ ISZERO PUSH2 0x1E88 JUMPI DUP2 DUP4 PUSH1 0x40 MLOAD PUSH1 0x20 ADD PUSH2 0x1E6B SWAP3 SWAP2 SWAP1 PUSH2 0x28DF JUMP JUMPDEST PUSH1 0x40 MLOAD PUSH1 0x20 DUP2 DUP4 SUB SUB DUP2 MSTORE SWAP1 PUSH1 0x40 MSTORE DUP1 MLOAD SWAP1 PUSH1 0x20 ADD KECCAK256 SWAP2 POP PUSH2 0x1EB4 JUMP JUMPDEST DUP3 DUP3 PUSH1 0x40 MLOAD PUSH1 0x20 ADD PUSH2 0x1E9B SWAP3 SWAP2 SWAP1 PUSH2 0x28DF JUMP JUMPDEST PUSH1 0x40 MLOAD PUSH1 0x20 DUP2 DUP4 SUB SUB DUP2 MSTORE SWAP1 PUSH1 0x40 MSTORE DUP1 MLOAD SWAP1 PUSH1 0x20 ADD KECCAK256 SWAP2 POP JUMPDEST PUSH1 0x2 DUP9 PUSH2 0x1EC1 SWAP2 SWAP1 PUSH2 0x2C2A JUMP JUMPDEST SWAP8 POP PUSH1 0x20 DUP2 PUSH2 0x1ED0 SWAP2 SWAP1 PUSH2 0x2BD4 JUMP JUMPDEST SWAP1 POP PUSH2 0x1E35 JUMP JUMPDEST POP DUP6 DUP2 EQ SWAP4 POP POP POP POP SWAP5 SWAP4 POP POP POP POP JUMP JUMPDEST PUSH1 0x0 DUP1 DUP3 MLOAD PUSH1 0x0 BYTE SWAP1 POP PUSH1 0x80 PUSH1 0xFF AND DUP2 LT ISZERO PUSH2 0x1F08 JUMPI PUSH1 0x0 SWAP2 POP POP PUSH2 0x1FA2 JUMP JUMPDEST PUSH1 0xB8 PUSH1 0xFF AND DUP2 LT DUP1 PUSH2 0x1F2D JUMPI POP PUSH1 0xC0 PUSH1 0xFF AND DUP2 LT ISZERO DUP1 ISZERO PUSH2 0x1F2C JUMPI POP PUSH1 0xF8 PUSH1 0xFF AND DUP2 LT JUMPDEST JUMPDEST ISZERO PUSH2 0x1F3C JUMPI PUSH1 0x1 SWAP2 POP POP PUSH2 0x1FA2 JUMP JUMPDEST PUSH1 0xC0 PUSH1 0xFF AND DUP2 LT ISZERO PUSH2 0x1F77 JUMPI PUSH1 0x1 DUP1 PUSH1 0xB8 PUSH2 0x1F57 SWAP2 SWAP1 PUSH2 0x2E8B JUMP JUMPDEST PUSH1 0xFF AND DUP3 PUSH2 0x1F65 SWAP2 SWAP1 PUSH2 0x2E57 JUMP JUMPDEST PUSH2 0x1F6F SWAP2 SWAP1 PUSH2 0x2BD4 JUMP JUMPDEST SWAP2 POP POP PUSH2 0x1FA2 JUMP JUMPDEST PUSH1 0x1 DUP1 PUSH1 0xF8 PUSH2 0x1F86 SWAP2 SWAP1 PUSH2 0x2E8B JUMP JUMPDEST PUSH1 0xFF AND DUP3 PUSH2 0x1F94 SWAP2 SWAP1 PUSH2 0x2E57 JUMP JUMPDEST PUSH2 0x1F9E SWAP2 SWAP1 PUSH2 0x2BD4 JUMP JUMPDEST SWAP2 POP POP JUMPDEST SWAP2 SWAP1 POP JUMP JUMPDEST PUSH1 0x0 DUP1 DUP3 PUSH1 0x0 ADD MLOAD EQ ISZERO PUSH2 0x1FBE JUMPI PUSH1 0x0 SWAP1 POP PUSH2 0x2030 JUMP JUMPDEST PUSH1 0x0 DUP1 PUSH2 0x1FCE DUP5 PUSH1 0x20 ADD MLOAD PUSH2 0x1EE8 JUMP JUMPDEST DUP5 PUSH1 0x20 ADD MLOAD PUSH2 0x1FDD SWAP2 SWAP1 PUSH2 0x2BD4 JUMP JUMPDEST SWAP1 POP PUSH1 0x0 DUP5 PUSH1 0x0 ADD MLOAD DUP6 PUSH1 0x20 ADD MLOAD PUSH2 0x1FF5 SWAP2 SWAP1 PUSH2 0x2BD4 JUMP JUMPDEST SWAP1 POP JUMPDEST DUP1 DUP3 LT ISZERO PUSH2 0x2029 JUMPI PUSH2 0x2009 DUP3 PUSH2 0x2035 JUMP JUMPDEST DUP3 PUSH2 0x2014 SWAP2 SWAP1 PUSH2 0x2BD4 JUMP JUMPDEST SWAP2 POP DUP3 DUP1 PUSH2 0x2021 SWAP1 PUSH2 0x2FB6 JUMP JUMPDEST SWAP4 POP POP PUSH2 0x1FF8 JUMP JUMPDEST DUP3 SWAP4 POP POP POP POP JUMPDEST SWAP2 SWAP1 POP JUMP JUMPDEST PUSH1 0x0 DUP1 PUSH1 0x0 DUP4 MLOAD PUSH1 0x0 BYTE SWAP1 POP PUSH1 0x80 PUSH1 0xFF AND DUP2 LT ISZERO PUSH2 0x2056 JUMPI PUSH1 0x1 SWAP2 POP PUSH2 0x2107 JUMP JUMPDEST PUSH1 0xB8 PUSH1 0xFF AND DUP2 LT ISZERO PUSH2 0x2085 JUMPI PUSH1 0x1 PUSH1 0x80 PUSH1 0xFF AND DUP3 PUSH2 0x2074 SWAP2 SWAP1 PUSH2 0x2E57 JUMP JUMPDEST PUSH2 0x207E SWAP2 SWAP1 PUSH2 0x2BD4 JUMP JUMPDEST SWAP2 POP PUSH2 0x2106 JUMP JUMPDEST PUSH1 0xC0 PUSH1 0xFF AND DUP2 LT ISZERO PUSH2 0x20B5 JUMPI PUSH1 0xB7 DUP2 SUB PUSH1 0x1 DUP6 ADD SWAP5 POP DUP1 PUSH1 0x20 SUB PUSH2 0x100 EXP DUP6 MLOAD DIV PUSH1 0x1 DUP3 ADD DUP2 ADD SWAP4 POP POP POP PUSH2 0x2105 JUMP JUMPDEST PUSH1 0xF8 PUSH1 0xFF AND DUP2 LT ISZERO PUSH2 0x20E4 JUMPI PUSH1 0x1 PUSH1 0xC0 PUSH1 0xFF AND DUP3 PUSH2 0x20D3 SWAP2 SWAP1 PUSH2 0x2E57 JUMP JUMPDEST PUSH2 0x20DD SWAP2 SWAP1 PUSH2 0x2BD4 JUMP JUMPDEST SWAP2 POP PUSH2 0x2104 JUMP JUMPDEST PUSH1 0xF7 DUP2 SUB PUSH1 0x1 DUP6 ADD SWAP5 POP DUP1 PUSH1 0x20 SUB PUSH2 0x100 EXP DUP6 MLOAD DIV PUSH1 0x1 DUP3 ADD DUP2 ADD SWAP4 POP POP POP JUMPDEST JUMPDEST JUMPDEST JUMPDEST DUP2 SWAP3 POP POP POP SWAP2 SWAP1 POP JUMP JUMPDEST PUSH1 0x0 DUP2 EQ ISZERO PUSH2 0x211F JUMPI PUSH2 0x21B7 JUMP JUMPDEST JUMPDEST PUSH1 0x20 PUSH1 0xFF AND DUP2 LT PUSH2 0x216A JUMPI DUP3 MLOAD DUP3 MSTORE PUSH1 0x20 PUSH1 0xFF AND DUP4 PUSH2 0x213F SWAP2 SWAP1 PUSH2 0x2BD4 JUMP JUMPDEST SWAP3 POP PUSH1 0x20 PUSH1 0xFF AND DUP3 PUSH2 0x2151 SWAP2 SWAP1 PUSH2 0x2BD4 JUMP JUMPDEST SWAP2 POP PUSH1 0x20 PUSH1 0xFF AND DUP2 PUSH2 0x2163 SWAP2 SWAP1 PUSH2 0x2E57 JUMP JUMPDEST SWAP1 POP PUSH2 0x2120 JUMP JUMPDEST PUSH1 0x0 DUP2 EQ ISZERO PUSH2 0x2178 JUMPI PUSH2 0x21B7 JUMP JUMPDEST PUSH1 0x0 PUSH1 0x1 DUP3 PUSH1 0x20 PUSH1 0xFF AND PUSH2 0x218C SWAP2 SWAP1 PUSH2 0x2E57 JUMP JUMPDEST PUSH2 0x100 PUSH2 0x2199 SWAP2 SWAP1 PUSH2 0x2CDF JUMP JUMPDEST PUSH2 0x21A3 SWAP2 SWAP1 PUSH2 0x2E57 JUMP JUMPDEST SWAP1 POP DUP1 NOT DUP5 MLOAD AND DUP2 DUP5 MLOAD AND DUP2 DUP2 OR DUP6 MSTORE POP POP POP JUMPDEST POP POP POP JUMP JUMPDEST DUP3 DUP1 SLOAD PUSH2 0x21C8 SWAP1 PUSH2 0x2F84 JUMP JUMPDEST SWAP1 PUSH1 0x0 MSTORE PUSH1 0x20 PUSH1 0x0 KECCAK256 SWAP1 PUSH1 0x1F ADD PUSH1 0x20 SWAP1 DIV DUP2 ADD SWAP3 DUP3 PUSH2 0x21EA JUMPI PUSH1 0x0 DUP6 SSTORE PUSH2 0x2231 JUMP JUMPDEST DUP3 PUSH1 0x1F LT PUSH2 0x2203 JUMPI DUP1 MLOAD PUSH1 0xFF NOT AND DUP4 DUP1 ADD OR DUP6 SSTORE PUSH2 0x2231 JUMP JUMPDEST DUP3 DUP1 ADD PUSH1 0x1 ADD DUP6 SSTORE DUP3 ISZERO PUSH2 0x2231 JUMPI SWAP2 DUP3 ADD JUMPDEST DUP3 DUP2 GT ISZERO PUSH2 0x2230 JUMPI DUP3 MLOAD DUP3 SSTORE SWAP2 PUSH1 0x20 ADD SWAP2 SWAP1 PUSH1 0x1 ADD SWAP1 PUSH2 0x2215 JUMP JUMPDEST JUMPDEST POP SWAP1 POP PUSH2 0x223E SWAP2 SWAP1 PUSH2 0x22C3 JUMP JUMPDEST POP SWAP1 JUMP JUMPDEST PUSH1 0x40 MLOAD DUP1 PUSH1 0x20 ADD PUSH1 0x40 MSTORE DUP1 PUSH1 0x60 DUP2 MSTORE POP SWAP1 JUMP JUMPDEST PUSH1 0x40 MLOAD DUP1 PUSH1 0x60 ADD PUSH1 0x40 MSTORE DUP1 PUSH1 0x60 DUP2 MSTORE PUSH1 0x20 ADD PUSH1 0x60 DUP2 MSTORE PUSH1 0x20 ADD PUSH1 0x0 DUP2 MSTORE POP SWAP1 JUMP JUMPDEST PUSH1 0x40 MLOAD DUP1 PUSH1 0x40 ADD PUSH1 0x40 MSTORE DUP1 PUSH2 0x2289 PUSH2 0x22A9 JUMP JUMPDEST DUP2 MSTORE PUSH1 0x20 ADD PUSH1 0x60 DUP2 MSTORE POP SWAP1 JUMP JUMPDEST PUSH1 0x40 MLOAD DUP1 PUSH1 0x20 ADD PUSH1 0x40 MSTORE DUP1 PUSH1 0x60 DUP2 MSTORE POP SWAP1 JUMP JUMPDEST PUSH1 0x40 MLOAD DUP1 PUSH1 0x40 ADD PUSH1 0x40 MSTORE DUP1 PUSH1 0x0 DUP2 MSTORE PUSH1 0x20 ADD PUSH1 0x0 DUP2 MSTORE POP SWAP1 JUMP JUMPDEST JUMPDEST DUP1 DUP3 GT ISZERO PUSH2 0x22DC JUMPI PUSH1 0x0 DUP2 PUSH1 0x0 SWAP1 SSTORE POP PUSH1 0x1 ADD PUSH2 0x22C4 JUMP JUMPDEST POP SWAP1 JUMP JUMPDEST PUSH1 0x0 PUSH2 0x22F3 PUSH2 0x22EE DUP5 PUSH2 0x2B6C JUMP JUMPDEST PUSH2 0x2B3B JUMP JUMPDEST SWAP1 POP DUP3 DUP2 MSTORE PUSH1 0x20 DUP2 ADD DUP5 DUP5 DUP5 ADD GT ISZERO PUSH2 0x230B JUMPI PUSH1 0x0 DUP1 REVERT JUMPDEST PUSH2 0x2316 DUP5 DUP3 DUP6 PUSH2 0x2F42 JUMP JUMPDEST POP SWAP4 SWAP3 POP POP POP JUMP JUMPDEST PUSH1 0x0 PUSH2 0x2331 PUSH2 0x232C DUP5 PUSH2 0x2B6C JUMP JUMPDEST PUSH2 0x2B3B JUMP JUMPDEST SWAP1 POP DUP3 DUP2 MSTORE PUSH1 0x20 DUP2 ADD DUP5 DUP5 DUP5 ADD GT ISZERO PUSH2 0x2349 JUMPI PUSH1 0x0 DUP1 REVERT JUMPDEST PUSH2 0x2354 DUP5 DUP3 DUP6 PUSH2 0x2F51 JUMP JUMPDEST POP SWAP4 SWAP3 POP POP POP JUMP JUMPDEST PUSH1 0x0 DUP2 CALLDATALOAD SWAP1 POP PUSH2 0x236B DUP2 PUSH2 0x314F JUMP JUMPDEST SWAP3 SWAP2 POP POP JUMP JUMPDEST PUSH1 0x0 DUP2 MLOAD SWAP1 POP PUSH2 0x2380 DUP2 PUSH2 0x314F JUMP JUMPDEST SWAP3 SWAP2 POP POP JUMP JUMPDEST PUSH1 0x0 DUP2 CALLDATALOAD SWAP1 POP PUSH2 0x2395 DUP2 PUSH2 0x3166 JUMP JUMPDEST SWAP3 SWAP2 POP POP JUMP JUMPDEST PUSH1 0x0 DUP2 MLOAD SWAP1 POP PUSH2 0x23AA DUP2 PUSH2 0x3166 JUMP JUMPDEST SWAP3 SWAP2 POP POP JUMP JUMPDEST PUSH1 0x0 DUP3 PUSH1 0x1F DUP4 ADD SLT PUSH2 0x23C1 JUMPI PUSH1 0x0 DUP1 REVERT JUMPDEST DUP2 CALLDATALOAD PUSH2 0x23D1 DUP5 DUP3 PUSH1 0x20 DUP7 ADD PUSH2 0x22E0 JUMP JUMPDEST SWAP2 POP POP SWAP3 SWAP2 POP POP JUMP JUMPDEST PUSH1 0x0 DUP3 PUSH1 0x1F DUP4 ADD SLT PUSH2 0x23EB JUMPI PUSH1 0x0 DUP1 REVERT JUMPDEST DUP2 MLOAD PUSH2 0x23FB DUP5 DUP3 PUSH1 0x20 DUP7 ADD PUSH2 0x231E JUMP JUMPDEST SWAP2 POP POP SWAP3 SWAP2 POP POP JUMP JUMPDEST PUSH1 0x0 DUP2 MLOAD SWAP1 POP PUSH2 0x2413 DUP2 PUSH2 0x317D JUMP JUMPDEST SWAP3 SWAP2 POP POP JUMP JUMPDEST PUSH1 0x0 PUSH1 0x20 DUP3 DUP5 SUB SLT ISZERO PUSH2 0x242B JUMPI PUSH1 0x0 DUP1 REVERT JUMPDEST PUSH1 0x0 PUSH2 0x2439 DUP5 DUP3 DUP6 ADD PUSH2 0x235C JUMP JUMPDEST SWAP2 POP POP SWAP3 SWAP2 POP POP JUMP JUMPDEST PUSH1 0x0 PUSH1 0x20 DUP3 DUP5 SUB SLT ISZERO PUSH2 0x2454 JUMPI PUSH1 0x0 DUP1 REVERT JUMPDEST PUSH1 0x0 PUSH2 0x2462 DUP5 DUP3 DUP6 ADD PUSH2 0x2386 JUMP JUMPDEST SWAP2 POP POP SWAP3 SWAP2 POP POP JUMP JUMPDEST PUSH1 0x0 DUP1 PUSH1 0x0 DUP1 PUSH1 0x0 PUSH1 0xA0 DUP7 DUP9 SUB SLT ISZERO PUSH2 0x2483 JUMPI PUSH1 0x0 DUP1 REVERT JUMPDEST PUSH1 0x0 PUSH2 0x2491 DUP9 DUP3 DUP10 ADD PUSH2 0x239B JUMP JUMPDEST SWAP6 POP POP PUSH1 0x20 PUSH2 0x24A2 DUP9 DUP3 DUP10 ADD PUSH2 0x2404 JUMP JUMPDEST SWAP5 POP POP PUSH1 0x40 PUSH2 0x24B3 DUP9 DUP3 DUP10 ADD PUSH2 0x2404 JUMP JUMPDEST SWAP4 POP POP PUSH1 0x60 PUSH2 0x24C4 DUP9 DUP3 DUP10 ADD PUSH2 0x2404 JUMP JUMPDEST SWAP3 POP POP PUSH1 0x80 PUSH2 0x24D5 DUP9 DUP3 DUP10 ADD PUSH2 0x2371 JUMP JUMPDEST SWAP2 POP POP SWAP3 SWAP6 POP SWAP3 SWAP6 SWAP1 SWAP4 POP JUMP JUMPDEST PUSH1 0x0 PUSH1 0x20 DUP3 DUP5 SUB SLT ISZERO PUSH2 0x24F4 JUMPI PUSH1 0x0 DUP1 REVERT JUMPDEST PUSH1 0x0 DUP3 ADD CALLDATALOAD PUSH8 0xFFFFFFFFFFFFFFFF DUP2 GT ISZERO PUSH2 0x250E JUMPI PUSH1 0x0 DUP1 REVERT JUMPDEST PUSH2 0x251A DUP5 DUP3 DUP6 ADD PUSH2 0x23B0 JUMP JUMPDEST SWAP2 POP POP SWAP3 SWAP2 POP POP JUMP JUMPDEST PUSH1 0x0 PUSH1 0x20 DUP3 DUP5 SUB SLT ISZERO PUSH2 0x2535 JUMPI PUSH1 0x0 DUP1 REVERT JUMPDEST PUSH1 0x0 DUP3 ADD MLOAD PUSH8 0xFFFFFFFFFFFFFFFF DUP2 GT ISZERO PUSH2 0x254F JUMPI PUSH1 0x0 DUP1 REVERT JUMPDEST PUSH2 0x255B DUP5 DUP3 DUP6 ADD PUSH2 0x23DA JUMP JUMPDEST SWAP2 POP POP SWAP3 SWAP2 POP POP JUMP JUMPDEST PUSH2 0x256D DUP2 PUSH2 0x2EBF JUMP JUMPDEST DUP3 MSTORE POP POP JUMP JUMPDEST PUSH2 0x257C DUP2 PUSH2 0x2ED1 JUMP JUMPDEST DUP3 MSTORE POP POP JUMP JUMPDEST PUSH2 0x258B DUP2 PUSH2 0x2EDD JUMP JUMPDEST DUP3 MSTORE POP POP JUMP JUMPDEST PUSH2 0x25A2 PUSH2 0x259D DUP3 PUSH2 0x2EDD JUMP JUMPDEST PUSH2 0x2FFF JUMP JUMPDEST DUP3 MSTORE POP POP JUMP JUMPDEST PUSH1 0x0 PUSH2 0x25B3 DUP3 PUSH2 0x2B9C JUMP JUMPDEST PUSH2 0x25BD DUP2 DUP6 PUSH2 0x2BA7 JUMP JUMPDEST SWAP4 POP PUSH2 0x25CD DUP2 DUP6 PUSH1 0x20 DUP7 ADD PUSH2 0x2F51 JUMP JUMPDEST PUSH2 0x25D6 DUP2 PUSH2 0x3131 JUMP JUMPDEST DUP5 ADD SWAP2 POP POP SWAP3 SWAP2 POP POP JUMP JUMPDEST PUSH1 0x0 PUSH2 0x25EC DUP3 PUSH2 0x2B9C JUMP JUMPDEST PUSH2 0x25F6 DUP2 DUP6 PUSH2 0x2BB8 JUMP JUMPDEST SWAP4 POP PUSH2 0x2606 DUP2 DUP6 PUSH1 0x20 DUP7 ADD PUSH2 0x2F51 JUMP JUMPDEST DUP1 DUP5 ADD SWAP2 POP POP SWAP3 SWAP2 POP POP JUMP JUMPDEST PUSH2 0x261B DUP2 PUSH2 0x2F1E JUMP JUMPDEST DUP3 MSTORE POP POP JUMP JUMPDEST PUSH1 0x0 PUSH2 0x262E PUSH1 0x2A DUP4 PUSH2 0x2BC3 JUMP JUMPDEST SWAP2 POP PUSH32 0x467842617365526F6F7454756E6E656C3A204348494C445F54554E4E454C5F41 PUSH1 0x0 DUP4 ADD MSTORE PUSH32 0x4C52454144595F53455400000000000000000000000000000000000000000000 PUSH1 0x20 DUP4 ADD MSTORE PUSH1 0x40 DUP3 ADD SWAP1 POP SWAP2 SWAP1 POP JUMP JUMPDEST PUSH1 0x0 PUSH2 0x2694 PUSH1 0x23 DUP4 PUSH2 0x2BC3 JUMP JUMPDEST SWAP2 POP PUSH32 0x4678526F6F7454756E6E656C3A20494E56414C49445F524543454950545F5052 PUSH1 0x0 DUP4 ADD MSTORE PUSH32 0x4F4F460000000000000000000000000000000000000000000000000000000000 PUSH1 0x20 DUP4 ADD MSTORE PUSH1 0x40 DUP3 ADD SWAP1 POP SWAP2 SWAP1 POP JUMP JUMPDEST PUSH1 0x0 PUSH2 0x26FA PUSH1 0x24 DUP4 PUSH2 0x2BC3 JUMP JUMPDEST SWAP2 POP PUSH32 0x4678526F6F7454756E6E656C3A20455849545F414C52454144595F50524F4345 PUSH1 0x0 DUP4 ADD MSTORE PUSH32 0x5353454400000000000000000000000000000000000000000000000000000000 PUSH1 0x20 DUP4 ADD MSTORE PUSH1 0x40 DUP3 ADD SWAP1 POP SWAP2 SWAP1 POP JUMP JUMPDEST PUSH1 0x0 PUSH2 0x2760 PUSH1 0x14 DUP4 PUSH2 0x2BC3 JUMP JUMPDEST SWAP2 POP PUSH32 0x496E76616C69642070726F6F66206C656E677468000000000000000000000000 PUSH1 0x0 DUP4 ADD MSTORE PUSH1 0x20 DUP3 ADD SWAP1 POP SWAP2 SWAP1 POP JUMP JUMPDEST PUSH1 0x0 PUSH2 0x27A0 PUSH1 0x15 DUP4 PUSH2 0x2BC3 JUMP JUMPDEST SWAP2 POP PUSH32 0x4C65616620696E64657820697320746F6F206269670000000000000000000000 PUSH1 0x0 DUP4 ADD MSTORE PUSH1 0x20 DUP3 ADD SWAP1 POP SWAP2 SWAP1 POP JUMP JUMPDEST PUSH1 0x0 PUSH2 0x27E0 PUSH1 0x1C DUP4 PUSH2 0x2BC3 JUMP JUMPDEST SWAP2 POP PUSH32 0x4678526F6F7454756E6E656C3A20494E56414C49445F48454144455200000000 PUSH1 0x0 DUP4 ADD MSTORE PUSH1 0x20 DUP3 ADD SWAP1 POP SWAP2 SWAP1 POP JUMP JUMPDEST PUSH1 0x0 PUSH2 0x2820 PUSH1 0x1F DUP4 PUSH2 0x2BC3 JUMP JUMPDEST SWAP2 POP PUSH32 0x4678526F6F7454756E6E656C3A20494E56414C49445F5349474E415455524500 PUSH1 0x0 DUP4 ADD MSTORE PUSH1 0x20 DUP3 ADD SWAP1 POP SWAP2 SWAP1 POP JUMP JUMPDEST PUSH1 0x0 PUSH2 0x2860 PUSH1 0x25 DUP4 PUSH2 0x2BC3 JUMP JUMPDEST SWAP2 POP PUSH32 0x4678526F6F7454756E6E656C3A20494E56414C49445F46585F4348494C445F54 PUSH1 0x0 DUP4 ADD MSTORE PUSH32 0x554E4E454C000000000000000000000000000000000000000000000000000000 PUSH1 0x20 DUP4 ADD MSTORE PUSH1 0x40 DUP3 ADD SWAP1 POP SWAP2 SWAP1 POP JUMP JUMPDEST PUSH2 0x28C2 DUP2 PUSH2 0x2F07 JUMP JUMPDEST DUP3 MSTORE POP POP JUMP JUMPDEST PUSH2 0x28D9 PUSH2 0x28D4 DUP3 PUSH2 0x2F07 JUMP JUMPDEST PUSH2 0x3009 JUMP JUMPDEST DUP3 MSTORE POP POP JUMP JUMPDEST PUSH1 0x0 PUSH2 0x28EB DUP3 DUP6 PUSH2 0x2591 JUMP JUMPDEST PUSH1 0x20 DUP3 ADD SWAP2 POP PUSH2 0x28FB DUP3 DUP5 PUSH2 0x2591 JUMP JUMPDEST PUSH1 0x20 DUP3 ADD SWAP2 POP DUP2 SWAP1 POP SWAP4 SWAP3 POP POP POP JUMP JUMPDEST PUSH1 0x0 PUSH2 0x2917 DUP3 DUP7 PUSH2 0x28C8 JUMP JUMPDEST PUSH1 0x20 DUP3 ADD SWAP2 POP PUSH2 0x2927 DUP3 DUP6 PUSH2 0x25E1 JUMP JUMPDEST SWAP2 POP PUSH2 0x2933 DUP3 DUP5 PUSH2 0x28C8 JUMP JUMPDEST PUSH1 0x20 DUP3 ADD SWAP2 POP DUP2 SWAP1 POP SWAP5 SWAP4 POP POP POP POP JUMP JUMPDEST PUSH1 0x0 PUSH2 0x2950 DUP3 DUP8 PUSH2 0x28C8 JUMP JUMPDEST PUSH1 0x20 DUP3 ADD SWAP2 POP PUSH2 0x2960 DUP3 DUP7 PUSH2 0x28C8 JUMP JUMPDEST PUSH1 0x20 DUP3 ADD SWAP2 POP PUSH2 0x2970 DUP3 DUP6 PUSH2 0x2591 JUMP JUMPDEST PUSH1 0x20 DUP3 ADD SWAP2 POP PUSH2 0x2980 DUP3 DUP5 PUSH2 0x2591 JUMP JUMPDEST PUSH1 0x20 DUP3 ADD SWAP2 POP DUP2 SWAP1 POP SWAP6 SWAP5 POP POP POP POP POP JUMP JUMPDEST PUSH1 0x0 PUSH1 0x20 DUP3 ADD SWAP1 POP PUSH2 0x29A7 PUSH1 0x0 DUP4 ADD DUP5 PUSH2 0x2564 JUMP JUMPDEST SWAP3 SWAP2 POP POP JUMP JUMPDEST PUSH1 0x0 PUSH1 0x20 DUP3 ADD SWAP1 POP PUSH2 0x29C2 PUSH1 0x0 DUP4 ADD DUP5 PUSH2 0x2573 JUMP JUMPDEST SWAP3 SWAP2 POP POP JUMP JUMPDEST PUSH1 0x0 PUSH1 0x20 DUP3 ADD SWAP1 POP PUSH2 0x29DD PUSH1 0x0 DUP4 ADD DUP5 PUSH2 0x2582 JUMP JUMPDEST SWAP3 SWAP2 POP POP JUMP JUMPDEST PUSH1 0x0 PUSH1 0x20 DUP3 ADD SWAP1 POP DUP2 DUP2 SUB PUSH1 0x0 DUP4 ADD MSTORE PUSH2 0x29FD DUP2 DUP5 PUSH2 0x25A8 JUMP JUMPDEST SWAP1 POP SWAP3 SWAP2 POP POP JUMP JUMPDEST PUSH1 0x0 PUSH1 0x20 DUP3 ADD SWAP1 POP PUSH2 0x2A1A PUSH1 0x0 DUP4 ADD DUP5 PUSH2 0x2612 JUMP JUMPDEST SWAP3 SWAP2 POP POP JUMP JUMPDEST PUSH1 0x0 PUSH1 0x20 DUP3 ADD SWAP1 POP DUP2 DUP2 SUB PUSH1 0x0 DUP4 ADD MSTORE PUSH2 0x2A39 DUP2 PUSH2 0x2621 JUMP JUMPDEST SWAP1 POP SWAP2 SWAP1 POP JUMP JUMPDEST PUSH1 0x0 PUSH1 0x20 DUP3 ADD SWAP1 POP DUP2 DUP2 SUB PUSH1 0x0 DUP4 ADD MSTORE PUSH2 0x2A59 DUP2 PUSH2 0x2687 JUMP JUMPDEST SWAP1 POP SWAP2 SWAP1 POP JUMP JUMPDEST PUSH1 0x0 PUSH1 0x20 DUP3 ADD SWAP1 POP DUP2 DUP2 SUB PUSH1 0x0 DUP4 ADD MSTORE PUSH2 0x2A79 DUP2 PUSH2 0x26ED JUMP JUMPDEST SWAP1 POP SWAP2 SWAP1 POP JUMP JUMPDEST PUSH1 0x0 PUSH1 0x20 DUP3 ADD SWAP1 POP DUP2 DUP2 SUB PUSH1 0x0 DUP4 ADD MSTORE PUSH2 0x2A99 DUP2 PUSH2 0x2753 JUMP JUMPDEST SWAP1 POP SWAP2 SWAP1 POP JUMP JUMPDEST PUSH1 0x0 PUSH1 0x20 DUP3 ADD SWAP1 POP DUP2 DUP2 SUB PUSH1 0x0 DUP4 ADD MSTORE PUSH2 0x2AB9 DUP2 PUSH2 0x2793 JUMP JUMPDEST SWAP1 POP SWAP2 SWAP1 POP JUMP JUMPDEST PUSH1 0x0 PUSH1 0x20 DUP3 ADD SWAP1 POP DUP2 DUP2 SUB PUSH1 0x0 DUP4 ADD MSTORE PUSH2 0x2AD9 DUP2 PUSH2 0x27D3 JUMP JUMPDEST SWAP1 POP SWAP2 SWAP1 POP JUMP JUMPDEST PUSH1 0x0 PUSH1 0x20 DUP3 ADD SWAP1 POP DUP2 DUP2 SUB PUSH1 0x0 DUP4 ADD MSTORE PUSH2 0x2AF9 DUP2 PUSH2 0x2813 JUMP JUMPDEST SWAP1 POP SWAP2 SWAP1 POP JUMP JUMPDEST PUSH1 0x0 PUSH1 0x20 DUP3 ADD SWAP1 POP DUP2 DUP2 SUB PUSH1 0x0 DUP4 ADD MSTORE PUSH2 0x2B19 DUP2 PUSH2 0x2853 JUMP JUMPDEST SWAP1 POP SWAP2 SWAP1 POP JUMP JUMPDEST PUSH1 0x0 PUSH1 0x20 DUP3 ADD SWAP1 POP PUSH2 0x2B35 PUSH1 0x0 DUP4 ADD DUP5 PUSH2 0x28B9 JUMP JUMPDEST SWAP3 SWAP2 POP POP JUMP JUMPDEST PUSH1 0x0 PUSH1 0x40 MLOAD SWAP1 POP DUP2 DUP2 ADD DUP2 DUP2 LT PUSH8 0xFFFFFFFFFFFFFFFF DUP3 GT OR ISZERO PUSH2 0x2B62 JUMPI PUSH2 0x2B61 PUSH2 0x3102 JUMP JUMPDEST JUMPDEST DUP1 PUSH1 0x40 MSTORE POP SWAP2 SWAP1 POP JUMP JUMPDEST PUSH1 0x0 PUSH8 0xFFFFFFFFFFFFFFFF DUP3 GT ISZERO PUSH2 0x2B87 JUMPI PUSH2 0x2B86 PUSH2 0x3102 JUMP JUMPDEST JUMPDEST PUSH1 0x1F NOT PUSH1 0x1F DUP4 ADD AND SWAP1 POP PUSH1 0x20 DUP2 ADD SWAP1 POP SWAP2 SWAP1 POP JUMP JUMPDEST PUSH1 0x0 DUP2 MLOAD SWAP1 POP SWAP2 SWAP1 POP JUMP JUMPDEST PUSH1 0x0 DUP3 DUP3 MSTORE PUSH1 0x20 DUP3 ADD SWAP1 POP SWAP3 SWAP2 POP POP JUMP JUMPDEST PUSH1 0x0 DUP2 SWAP1 POP SWAP3 SWAP2 POP POP JUMP JUMPDEST PUSH1 0x0 DUP3 DUP3 MSTORE PUSH1 0x20 DUP3 ADD SWAP1 POP SWAP3 SWAP2 POP POP JUMP JUMPDEST PUSH1 0x0 PUSH2 0x2BDF DUP3 PUSH2 0x2F07 JUMP JUMPDEST SWAP2 POP PUSH2 0x2BEA DUP4 PUSH2 0x2F07 JUMP JUMPDEST SWAP3 POP DUP3 PUSH32 0xFFFFFFFFFFFFFFFFFFFFFFFFFFFFFFFFFFFFFFFFFFFFFFFFFFFFFFFFFFFFFFFF SUB DUP3 GT ISZERO PUSH2 0x2C1F JUMPI PUSH2 0x2C1E PUSH2 0x3075 JUMP JUMPDEST JUMPDEST DUP3 DUP3 ADD SWAP1 POP SWAP3 SWAP2 POP POP JUMP JUMPDEST PUSH1 0x0 PUSH2 0x2C35 DUP3 PUSH2 0x2F07 JUMP JUMPDEST SWAP2 POP PUSH2 0x2C40 DUP4 PUSH2 0x2F07 JUMP JUMPDEST SWAP3 POP DUP3 PUSH2 0x2C50 JUMPI PUSH2 0x2C4F PUSH2 0x30A4 JUMP JUMPDEST JUMPDEST DUP3 DUP3 DIV SWAP1 POP SWAP3 SWAP2 POP POP JUMP JUMPDEST PUSH1 0x0 PUSH2 0x2C66 DUP3 PUSH2 0x2F11 JUMP JUMPDEST SWAP2 POP PUSH2 0x2C71 DUP4 PUSH2 0x2F11 JUMP JUMPDEST SWAP3 POP DUP3 PUSH2 0x2C81 JUMPI PUSH2 0x2C80 PUSH2 0x30A4 JUMP JUMPDEST JUMPDEST DUP3 DUP3 DIV SWAP1 POP SWAP3 SWAP2 POP POP JUMP JUMPDEST PUSH1 0x0 DUP1 DUP3 SWAP2 POP DUP4 SWAP1 POP JUMPDEST PUSH1 0x1 DUP6 GT ISZERO PUSH2 0x2CD6 JUMPI DUP1 DUP7 DIV DUP2 GT ISZERO PUSH2 0x2CB2 JUMPI PUSH2 0x2CB1 PUSH2 0x3075 JUMP JUMPDEST JUMPDEST PUSH1 0x1 DUP6 AND ISZERO PUSH2 0x2CC1 JUMPI DUP1 DUP3 MUL SWAP2 POP JUMPDEST DUP1 DUP2 MUL SWAP1 POP PUSH2 0x2CCF DUP6 PUSH2 0x3142 JUMP JUMPDEST SWAP5 POP PUSH2 0x2C96 JUMP JUMPDEST SWAP5 POP SWAP5 SWAP3 POP POP POP JUMP JUMPDEST PUSH1 0x0 PUSH2 0x2CEA DUP3 PUSH2 0x2F07 JUMP JUMPDEST SWAP2 POP PUSH2 0x2CF5 DUP4 PUSH2 0x2F07 JUMP JUMPDEST SWAP3 POP PUSH2 0x2D22 PUSH32 0xFFFFFFFFFFFFFFFFFFFFFFFFFFFFFFFFFFFFFFFFFFFFFFFFFFFFFFFFFFFFFFFF DUP5 DUP5 PUSH2 0x2D2A JUMP JUMPDEST SWAP1 POP SWAP3 SWAP2 POP POP JUMP JUMPDEST PUSH1 0x0 DUP3 PUSH2 0x2D3A JUMPI PUSH1 0x1 SWAP1 POP PUSH2 0x2DF6 JUMP JUMPDEST DUP2 PUSH2 0x2D48 JUMPI PUSH1 0x0 SWAP1 POP PUSH2 0x2DF6 JUMP JUMPDEST DUP2 PUSH1 0x1 DUP2 EQ PUSH2 0x2D5E JUMPI PUSH1 0x2 DUP2 EQ PUSH2 0x2D68 JUMPI PUSH2 0x2D97 JUMP JUMPDEST PUSH1 0x1 SWAP2 POP POP PUSH2 0x2DF6 JUMP JUMPDEST PUSH1 0xFF DUP5 GT ISZERO PUSH2 0x2D7A JUMPI PUSH2 0x2D79 PUSH2 0x3075 JUMP JUMPDEST JUMPDEST DUP4 PUSH1 0x2 EXP SWAP2 POP DUP5 DUP3 GT ISZERO PUSH2 0x2D91 JUMPI PUSH2 0x2D90 PUSH2 0x3075 JUMP JUMPDEST JUMPDEST POP PUSH2 0x2DF6 JUMP JUMPDEST POP PUSH1 0x20 DUP4 LT PUSH2 0x133 DUP4 LT AND PUSH1 0x4E DUP5 LT PUSH1 0xB DUP5 LT AND OR ISZERO PUSH2 0x2DCC JUMPI DUP3 DUP3 EXP SWAP1 POP DUP4 DUP2 GT ISZERO PUSH2 0x2DC7 JUMPI PUSH2 0x2DC6 PUSH2 0x3075 JUMP JUMPDEST JUMPDEST PUSH2 0x2DF6 JUMP JUMPDEST PUSH2 0x2DD9 DUP5 DUP5 DUP5 PUSH1 0x1 PUSH2 0x2C8C JUMP JUMPDEST SWAP3 POP SWAP1 POP DUP2 DUP5 DIV DUP2 GT ISZERO PUSH2 0x2DF0 JUMPI PUSH2 0x2DEF PUSH2 0x3075 JUMP JUMPDEST JUMPDEST DUP2 DUP2 MUL SWAP1 POP JUMPDEST SWAP4 SWAP3 POP POP POP JUMP JUMPDEST PUSH1 0x0 PUSH2 0x2E08 DUP3 PUSH2 0x2F07 JUMP JUMPDEST SWAP2 POP PUSH2 0x2E13 DUP4 PUSH2 0x2F07 JUMP JUMPDEST SWAP3 POP DUP2 PUSH32 0xFFFFFFFFFFFFFFFFFFFFFFFFFFFFFFFFFFFFFFFFFFFFFFFFFFFFFFFFFFFFFFFF DIV DUP4 GT DUP3 ISZERO ISZERO AND ISZERO PUSH2 0x2E4C JUMPI PUSH2 0x2E4B PUSH2 0x3075 JUMP JUMPDEST JUMPDEST DUP3 DUP3 MUL SWAP1 POP SWAP3 SWAP2 POP POP JUMP JUMPDEST PUSH1 0x0 PUSH2 0x2E62 DUP3 PUSH2 0x2F07 JUMP JUMPDEST SWAP2 POP PUSH2 0x2E6D DUP4 PUSH2 0x2F07 JUMP JUMPDEST SWAP3 POP DUP3 DUP3 LT ISZERO PUSH2 0x2E80 JUMPI PUSH2 0x2E7F PUSH2 0x3075 JUMP JUMPDEST JUMPDEST DUP3 DUP3 SUB SWAP1 POP SWAP3 SWAP2 POP POP JUMP JUMPDEST PUSH1 0x0 PUSH2 0x2E96 DUP3 PUSH2 0x2F11 JUMP JUMPDEST SWAP2 POP PUSH2 0x2EA1 DUP4 PUSH2 0x2F11 JUMP JUMPDEST SWAP3 POP DUP3 DUP3 LT ISZERO PUSH2 0x2EB4 JUMPI PUSH2 0x2EB3 PUSH2 0x3075 JUMP JUMPDEST JUMPDEST DUP3 DUP3 SUB SWAP1 POP SWAP3 SWAP2 POP POP JUMP JUMPDEST PUSH1 0x0 PUSH2 0x2ECA DUP3 PUSH2 0x2EE7 JUMP JUMPDEST SWAP1 POP SWAP2 SWAP1 POP JUMP JUMPDEST PUSH1 0x0 DUP2 ISZERO ISZERO SWAP1 POP SWAP2 SWAP1 POP JUMP JUMPDEST PUSH1 0x0 DUP2 SWAP1 POP SWAP2 SWAP1 POP JUMP JUMPDEST PUSH1 0x0 PUSH20 0xFFFFFFFFFFFFFFFFFFFFFFFFFFFFFFFFFFFFFFFF DUP3 AND SWAP1 POP SWAP2 SWAP1 POP JUMP JUMPDEST PUSH1 0x0 DUP2 SWAP1 POP SWAP2 SWAP1 POP JUMP JUMPDEST PUSH1 0x0 PUSH1 0xFF DUP3 AND SWAP1 POP SWAP2 SWAP1 POP JUMP JUMPDEST PUSH1 0x0 PUSH2 0x2F29 DUP3 PUSH2 0x2F30 JUMP JUMPDEST SWAP1 POP SWAP2 SWAP1 POP JUMP JUMPDEST PUSH1 0x0 PUSH2 0x2F3B DUP3 PUSH2 0x2EE7 JUMP JUMPDEST SWAP1 POP SWAP2 SWAP1 POP JUMP JUMPDEST DUP3 DUP2 DUP4 CALLDATACOPY PUSH1 0x0 DUP4 DUP4 ADD MSTORE POP POP POP JUMP JUMPDEST PUSH1 0x0 JUMPDEST DUP4 DUP2 LT ISZERO PUSH2 0x2F6F JUMPI DUP1 DUP3 ADD MLOAD DUP2 DUP5 ADD MSTORE PUSH1 0x20 DUP2 ADD SWAP1 POP PUSH2 0x2F54 JUMP JUMPDEST DUP4 DUP2 GT ISZERO PUSH2 0x2F7E JUMPI PUSH1 0x0 DUP5 DUP5 ADD MSTORE JUMPDEST POP POP POP POP JUMP JUMPDEST PUSH1 0x0 PUSH1 0x2 DUP3 DIV SWAP1 POP PUSH1 0x1 DUP3 AND DUP1 PUSH2 0x2F9C JUMPI PUSH1 0x7F DUP3 AND SWAP2 POP JUMPDEST PUSH1 0x20 DUP3 LT DUP2 EQ ISZERO PUSH2 0x2FB0 JUMPI PUSH2 0x2FAF PUSH2 0x30D3 JUMP JUMPDEST JUMPDEST POP SWAP2 SWAP1 POP JUMP JUMPDEST PUSH1 0x0 PUSH2 0x2FC1 DUP3 PUSH2 0x2F07 JUMP JUMPDEST SWAP2 POP PUSH32 0xFFFFFFFFFFFFFFFFFFFFFFFFFFFFFFFFFFFFFFFFFFFFFFFFFFFFFFFFFFFFFFFF DUP3 EQ ISZERO PUSH2 0x2FF4 JUMPI PUSH2 0x2FF3 PUSH2 0x3075 JUMP JUMPDEST JUMPDEST PUSH1 0x1 DUP3 ADD SWAP1 POP SWAP2 SWAP1 POP JUMP JUMPDEST PUSH1 0x0 DUP2 SWAP1 POP SWAP2 SWAP1 POP JUMP JUMPDEST PUSH1 0x0 DUP2 SWAP1 POP SWAP2 SWAP1 POP JUMP JUMPDEST PUSH1 0x0 PUSH2 0x301E DUP3 PUSH2 0x2F07 JUMP JUMPDEST SWAP2 POP PUSH2 0x3029 DUP4 PUSH2 0x2F07 JUMP JUMPDEST SWAP3 POP DUP3 PUSH2 0x3039 JUMPI PUSH2 0x3038 PUSH2 0x30A4 JUMP JUMPDEST JUMPDEST DUP3 DUP3 MOD SWAP1 POP SWAP3 SWAP2 POP POP JUMP JUMPDEST PUSH1 0x0 PUSH2 0x304F DUP3 PUSH2 0x2F11 JUMP JUMPDEST SWAP2 POP PUSH2 0x305A DUP4 PUSH2 0x2F11 JUMP JUMPDEST SWAP3 POP DUP3 PUSH2 0x306A JUMPI PUSH2 0x3069 PUSH2 0x30A4 JUMP JUMPDEST JUMPDEST DUP3 DUP3 MOD SWAP1 POP SWAP3 SWAP2 POP POP JUMP JUMPDEST PUSH32 0x4E487B7100000000000000000000000000000000000000000000000000000000 PUSH1 0x0 MSTORE PUSH1 0x11 PUSH1 0x4 MSTORE PUSH1 0x24 PUSH1 0x0 REVERT JUMPDEST PUSH32 0x4E487B7100000000000000000000000000000000000000000000000000000000 PUSH1 0x0 MSTORE PUSH1 0x12 PUSH1 0x4 MSTORE PUSH1 0x24 PUSH1 0x0 REVERT JUMPDEST PUSH32 0x4E487B7100000000000000000000000000000000000000000000000000000000 PUSH1 0x0 MSTORE PUSH1 0x22 PUSH1 0x4 MSTORE PUSH1 0x24 PUSH1 0x0 REVERT JUMPDEST PUSH32 0x4E487B7100000000000000000000000000000000000000000000000000000000 PUSH1 0x0 MSTORE PUSH1 0x41 PUSH1 0x4 MSTORE PUSH1 0x24 PUSH1 0x0 REVERT JUMPDEST PUSH1 0x0 PUSH1 0x1F NOT PUSH1 0x1F DUP4 ADD AND SWAP1 POP SWAP2 SWAP1 POP JUMP JUMPDEST PUSH1 0x0 DUP2 PUSH1 0x1 SHR SWAP1 POP SWAP2 SWAP1 POP JUMP JUMPDEST PUSH2 0x3158 DUP2 PUSH2 0x2EBF JUMP JUMPDEST DUP2 EQ PUSH2 0x3163 JUMPI PUSH1 0x0 DUP1 REVERT JUMPDEST POP JUMP JUMPDEST PUSH2 0x316F DUP2 PUSH2 0x2EDD JUMP JUMPDEST DUP2 EQ PUSH2 0x317A JUMPI PUSH1 0x0 DUP1 REVERT JUMPDEST POP JUMP JUMPDEST PUSH2 0x3186 DUP2 PUSH2 0x2F07 JUMP JUMPDEST DUP2 EQ PUSH2 0x3191 JUMPI PUSH1 0x0 DUP1 REVERT JUMPDEST POP JUMP INVALID LOG2 PUSH5 0x6970667358 0x22 SLT KECCAK256 MSTORE8 SHR BLOCKHASH 0xF9 0x2B CREATE2 JUMP CODECOPY ADDMOD 0xA7 0xE1 0xBE 0xCA DUP9 0xBA PC 0x49 0xD0 SWAP2 0xDA 0xD4 0xE8 0x26 0x1E 0xAC 0xD 0xBC 0x4A SHL EXTCODECOPY 0xBB 0xDD PUSH5 0x736F6C6343 STOP ADDMOD STOP STOP CALLER "
        },
        "methodIdentifiers": {
          "SEND_MESSAGE_EVENT_SIG()": "0e387de6",
          "checkpointManager()": "c0857ba0",
          "fxChildTunnel()": "972c4928",
          "latestData()": "142bc2ae",
          "processedExits(bytes32)": "607f2d42",
          "receiveMessage(bytes)": "f953cec7",
          "setFxChildTunnel(address)": "aea4e49e",
          "setLatestData(bytes)": "8a7115af"
        }
      }
    }
  }
}