{
  "_format": "hh-sol-artifact-1",
  "contractName": "TestBytes",
  "sourceName": "contracts/polygon/TestBytes.sol",
  "abi": [
    {
      "inputs": [],
      "stateMutability": "nonpayable",
      "type": "constructor"
    },
    {
      "inputs": [],
      "name": "myBytes",
      "outputs": [
        {
          "internalType": "bytes",
          "name": "",
          "type": "bytes"
        }
      ],
      "stateMutability": "view",
      "type": "function"
    },
    {
      "inputs": [
        {
          "internalType": "bytes",
          "name": "message",
          "type": "bytes"
        }
      ],
      "name": "setBytes",
      "outputs": [],
      "stateMutability": "nonpayable",
      "type": "function"
    }
  ],
  "bytecode": "0x608060405234801561001057600080fd5b5061045a806100206000396000f3fe608060405234801561001057600080fd5b50600436106100365760003560e01c8063712f46021461003b578063da359dc814610059575b600080fd5b610043610075565b60405161005091906102a2565b60405180910390f35b610073600480360381019061006e9190610228565b610103565b005b6000805461008290610383565b80601f01602080910402602001604051908101604052809291908181526020018280546100ae90610383565b80156100fb5780601f106100d0576101008083540402835291602001916100fb565b820191906000526020600020905b8154815290600101906020018083116100de57829003601f168201915b505050505081565b806000908051906020019061011992919061011d565b5050565b82805461012990610383565b90600052602060002090601f01602090048101928261014b5760008555610192565b82601f1061016457805160ff1916838001178555610192565b82800160010185558215610192579182015b82811115610191578251825591602001919060010190610176565b5b50905061019f91906101a3565b5090565b5b808211156101bc5760008160009055506001016101a4565b5090565b60006101d36101ce846102f5565b6102c4565b9050828152602081018484840111156101eb57600080fd5b6101f6848285610341565b509392505050565b600082601f83011261020f57600080fd5b813561021f8482602086016101c0565b91505092915050565b60006020828403121561023a57600080fd5b600082013567ffffffffffffffff81111561025457600080fd5b610260848285016101fe565b91505092915050565b600061027482610325565b61027e8185610330565b935061028e818560208601610350565b61029781610413565b840191505092915050565b600060208201905081810360008301526102bc8184610269565b905092915050565b6000604051905081810181811067ffffffffffffffff821117156102eb576102ea6103e4565b5b8060405250919050565b600067ffffffffffffffff8211156103105761030f6103e4565b5b601f19601f8301169050602081019050919050565b600081519050919050565b600082825260208201905092915050565b82818337600083830152505050565b60005b8381101561036e578082015181840152602081019050610353565b8381111561037d576000848401525b50505050565b6000600282049050600182168061039b57607f821691505b602082108114156103af576103ae6103b5565b5b50919050565b7f4e487b7100000000000000000000000000000000000000000000000000000000600052602260045260246000fd5b7f4e487b7100000000000000000000000000000000000000000000000000000000600052604160045260246000fd5b6000601f19601f830116905091905056fea26469706673582212200745c8c13334de4e4f5cd0ce389df6a57ae53acb8a2e934500b40530d707636e64736f6c63430008000033",
  "linkReferences": {},
  "deployedLinkReferences": {}
}