{
  "_format": "hh-sol-artifact-1",
  "contractName": "ICheckpointManager",
  "sourceName": "contracts/eth/FxBaseRootTunnel.sol",
  "abi": [
    {
      "inputs": [
        {
          "internalType": "uint256",
          "name": "",
          "type": "uint256"
        }
      ],
      "name": "headerBlocks",
      "outputs": [
        {
          "internalType": "bytes32",
          "name": "root",
          "type": "bytes32"
        },
        {
          "internalType": "uint256",
          "name": "start",
          "type": "uint256"
        },
        {
          "internalType": "uint256",
          "name": "end",
          "type": "uint256"
        },
        {
          "internalType": "uint256",
          "name": "createdAt",
          "type": "uint256"
        },
        {
          "internalType": "address",
          "name": "proposer",
          "type": "address"
        }
      ],
      "stateMutability": "view",
      "type": "function"
    }
  ],
  "bytecode": "0x608060405234801561001057600080fd5b5061020b806100206000396000f3fe608060405234801561001057600080fd5b506004361061002b5760003560e01c806341539d4a14610030575b600080fd5b61004a600480360381019061004591906100cf565b610064565b60405161005b959493929190610125565b60405180910390f35b60006020528060005260406000206000915090508060000154908060010154908060020154908060030154908060040160009054906101000a900473ffffffffffffffffffffffffffffffffffffffff16905085565b6000813590506100c9816101be565b92915050565b6000602082840312156100e157600080fd5b60006100ef848285016100ba565b91505092915050565b61010181610178565b82525050565b6101108161018a565b82525050565b61011f816101b4565b82525050565b600060a08201905061013a6000830188610107565b6101476020830187610116565b6101546040830186610116565b6101616060830185610116565b61016e60808301846100f8565b9695505050505050565b600061018382610194565b9050919050565b6000819050919050565b600073ffffffffffffffffffffffffffffffffffffffff82169050919050565b6000819050919050565b6101c7816101b4565b81146101d257600080fd5b5056fea2646970667358221220c43ceaf00fc280df6b38ba1b5210f121ef991f10cd723a9c76e8c23853aabcc864736f6c63430008000033",
  "linkReferences": {},
  "deployedLinkReferences": {}
}